{
	"LiriaToken_flat.sol": {
		"LiriaToken": {
			"abi": [
				{
					"inputs": [],
					"stateMutability": "nonpayable",
					"type": "constructor"
				},
				{
					"anonymous": false,
					"inputs": [
						{
							"indexed": true,
							"internalType": "address",
							"name": "owner",
							"type": "address"
						},
						{
							"indexed": true,
							"internalType": "address",
							"name": "spender",
							"type": "address"
						},
						{
							"indexed": false,
							"internalType": "uint256",
							"name": "value",
							"type": "uint256"
						}
					],
					"name": "Approval",
					"type": "event"
				},
				{
					"anonymous": false,
					"inputs": [
						{
							"indexed": true,
							"internalType": "bytes32",
							"name": "role",
							"type": "bytes32"
						},
						{
							"indexed": true,
							"internalType": "bytes32",
							"name": "previousAdminRole",
							"type": "bytes32"
						},
						{
							"indexed": true,
							"internalType": "bytes32",
							"name": "newAdminRole",
							"type": "bytes32"
						}
					],
					"name": "RoleAdminChanged",
					"type": "event"
				},
				{
					"anonymous": false,
					"inputs": [
						{
							"indexed": true,
							"internalType": "bytes32",
							"name": "role",
							"type": "bytes32"
						},
						{
							"indexed": true,
							"internalType": "address",
							"name": "account",
							"type": "address"
						},
						{
							"indexed": true,
							"internalType": "address",
							"name": "sender",
							"type": "address"
						}
					],
					"name": "RoleGranted",
					"type": "event"
				},
				{
					"anonymous": false,
					"inputs": [
						{
							"indexed": true,
							"internalType": "bytes32",
							"name": "role",
							"type": "bytes32"
						},
						{
							"indexed": true,
							"internalType": "address",
							"name": "account",
							"type": "address"
						},
						{
							"indexed": true,
							"internalType": "address",
							"name": "sender",
							"type": "address"
						}
					],
					"name": "RoleRevoked",
					"type": "event"
				},
				{
					"anonymous": false,
					"inputs": [
						{
							"indexed": true,
							"internalType": "address",
							"name": "from",
							"type": "address"
						},
						{
							"indexed": true,
							"internalType": "address",
							"name": "to",
							"type": "address"
						},
						{
							"indexed": false,
							"internalType": "uint256",
							"name": "value",
							"type": "uint256"
						}
					],
					"name": "Transfer",
					"type": "event"
				},
				{
					"inputs": [],
					"name": "ADMIN_ROLE",
					"outputs": [
						{
							"internalType": "bytes32",
							"name": "",
							"type": "bytes32"
						}
					],
					"stateMutability": "view",
					"type": "function"
				},
				{
					"inputs": [],
					"name": "DEFAULT_ADMIN_ROLE",
					"outputs": [
						{
							"internalType": "bytes32",
							"name": "",
							"type": "bytes32"
						}
					],
					"stateMutability": "view",
					"type": "function"
				},
				{
					"inputs": [],
					"name": "MINTER_ROLE",
					"outputs": [
						{
							"internalType": "bytes32",
							"name": "",
							"type": "bytes32"
						}
					],
					"stateMutability": "view",
					"type": "function"
				},
				{
					"inputs": [
						{
							"internalType": "address",
							"name": "owner",
							"type": "address"
						},
						{
							"internalType": "address",
							"name": "spender",
							"type": "address"
						}
					],
					"name": "allowance",
					"outputs": [
						{
							"internalType": "uint256",
							"name": "",
							"type": "uint256"
						}
					],
					"stateMutability": "view",
					"type": "function"
				},
				{
					"inputs": [
						{
							"internalType": "address",
							"name": "spender",
							"type": "address"
						},
						{
							"internalType": "uint256",
							"name": "amount",
							"type": "uint256"
						}
					],
					"name": "approve",
					"outputs": [
						{
							"internalType": "bool",
							"name": "",
							"type": "bool"
						}
					],
					"stateMutability": "nonpayable",
					"type": "function"
				},
				{
					"inputs": [
						{
							"internalType": "address",
							"name": "account",
							"type": "address"
						}
					],
					"name": "balanceOf",
					"outputs": [
						{
							"internalType": "uint256",
							"name": "",
							"type": "uint256"
						}
					],
					"stateMutability": "view",
					"type": "function"
				},
				{
					"inputs": [],
					"name": "decimals",
					"outputs": [
						{
							"internalType": "uint8",
							"name": "",
							"type": "uint8"
						}
					],
					"stateMutability": "view",
					"type": "function"
				},
				{
					"inputs": [
						{
							"internalType": "address",
							"name": "spender",
							"type": "address"
						},
						{
							"internalType": "uint256",
							"name": "subtractedValue",
							"type": "uint256"
						}
					],
					"name": "decreaseAllowance",
					"outputs": [
						{
							"internalType": "bool",
							"name": "",
							"type": "bool"
						}
					],
					"stateMutability": "nonpayable",
					"type": "function"
				},
				{
					"inputs": [
						{
							"internalType": "bytes32",
							"name": "role",
							"type": "bytes32"
						}
					],
					"name": "getRoleAdmin",
					"outputs": [
						{
							"internalType": "bytes32",
							"name": "",
							"type": "bytes32"
						}
					],
					"stateMutability": "view",
					"type": "function"
				},
				{
					"inputs": [
						{
							"internalType": "bytes32",
							"name": "role",
							"type": "bytes32"
						},
						{
							"internalType": "address",
							"name": "account",
							"type": "address"
						}
					],
					"name": "grantRole",
					"outputs": [],
					"stateMutability": "nonpayable",
					"type": "function"
				},
				{
					"inputs": [
						{
							"internalType": "bytes32",
							"name": "role",
							"type": "bytes32"
						},
						{
							"internalType": "address",
							"name": "account",
							"type": "address"
						}
					],
					"name": "hasRole",
					"outputs": [
						{
							"internalType": "bool",
							"name": "",
							"type": "bool"
						}
					],
					"stateMutability": "view",
					"type": "function"
				},
				{
					"inputs": [
						{
							"internalType": "address",
							"name": "spender",
							"type": "address"
						},
						{
							"internalType": "uint256",
							"name": "addedValue",
							"type": "uint256"
						}
					],
					"name": "increaseAllowance",
					"outputs": [
						{
							"internalType": "bool",
							"name": "",
							"type": "bool"
						}
					],
					"stateMutability": "nonpayable",
					"type": "function"
				},
				{
					"inputs": [
						{
							"internalType": "address",
							"name": "to",
							"type": "address"
						},
						{
							"internalType": "uint256",
							"name": "amount",
							"type": "uint256"
						}
					],
					"name": "mint",
					"outputs": [],
					"stateMutability": "nonpayable",
					"type": "function"
				},
				{
					"inputs": [],
					"name": "name",
					"outputs": [
						{
							"internalType": "string",
							"name": "",
							"type": "string"
						}
					],
					"stateMutability": "view",
					"type": "function"
				},
				{
					"inputs": [
						{
							"internalType": "bytes32",
							"name": "role",
							"type": "bytes32"
						},
						{
							"internalType": "address",
							"name": "account",
							"type": "address"
						}
					],
					"name": "renounceRole",
					"outputs": [],
					"stateMutability": "nonpayable",
					"type": "function"
				},
				{
					"inputs": [
						{
							"internalType": "bytes32",
							"name": "role",
							"type": "bytes32"
						},
						{
							"internalType": "address",
							"name": "account",
							"type": "address"
						}
					],
					"name": "revokeRole",
					"outputs": [],
					"stateMutability": "nonpayable",
					"type": "function"
				},
				{
					"inputs": [
						{
							"internalType": "address",
							"name": "minter",
							"type": "address"
						},
						{
							"internalType": "bool",
							"name": "enabled",
							"type": "bool"
						}
					],
					"name": "setupMinter",
					"outputs": [],
					"stateMutability": "nonpayable",
					"type": "function"
				},
				{
					"inputs": [
						{
							"internalType": "bytes4",
							"name": "interfaceId",
							"type": "bytes4"
						}
					],
					"name": "supportsInterface",
					"outputs": [
						{
							"internalType": "bool",
							"name": "",
							"type": "bool"
						}
					],
					"stateMutability": "view",
					"type": "function"
				},
				{
					"inputs": [],
					"name": "symbol",
					"outputs": [
						{
							"internalType": "string",
							"name": "",
							"type": "string"
						}
					],
					"stateMutability": "view",
					"type": "function"
				},
				{
					"inputs": [],
					"name": "totalSupply",
					"outputs": [
						{
							"internalType": "uint256",
							"name": "",
							"type": "uint256"
						}
					],
					"stateMutability": "view",
					"type": "function"
				},
				{
					"inputs": [
						{
							"internalType": "address",
							"name": "to",
							"type": "address"
						},
						{
							"internalType": "uint256",
							"name": "amount",
							"type": "uint256"
						}
					],
					"name": "transfer",
					"outputs": [
						{
							"internalType": "bool",
							"name": "",
							"type": "bool"
						}
					],
					"stateMutability": "nonpayable",
					"type": "function"
				},
				{
					"inputs": [
						{
							"internalType": "address",
							"name": "from",
							"type": "address"
						},
						{
							"internalType": "address",
							"name": "to",
							"type": "address"
						},
						{
							"internalType": "uint256",
							"name": "amount",
							"type": "uint256"
						}
					],
					"name": "transferFrom",
					"outputs": [
						{
							"internalType": "bool",
							"name": "",
							"type": "bool"
						}
					],
					"stateMutability": "nonpayable",
					"type": "function"
				}
			],
			"devdoc": {
				"kind": "dev",
				"methods": {
					"allowance(address,address)": {
						"details": "See {IERC20-allowance}."
					},
					"approve(address,uint256)": {
						"details": "See {IERC20-approve}. NOTE: If `amount` is the maximum `uint256`, the allowance is not updated on `transferFrom`. This is semantically equivalent to an infinite approval. Requirements: - `spender` cannot be the zero address."
					},
					"balanceOf(address)": {
						"details": "See {IERC20-balanceOf}."
					},
					"decimals()": {
						"details": "Returns the number of decimals used to get its user representation. For example, if `decimals` equals `2`, a balance of `505` tokens should be displayed to a user as `5.05` (`505 / 10 ** 2`). Tokens usually opt for a value of 18, imitating the relationship between Ether and Wei. This is the value {ERC20} uses, unless this function is overridden; NOTE: This information is only used for _display_ purposes: it in no way affects any of the arithmetic of the contract, including {IERC20-balanceOf} and {IERC20-transfer}."
					},
					"decreaseAllowance(address,uint256)": {
						"details": "Atomically decreases the allowance granted to `spender` by the caller. This is an alternative to {approve} that can be used as a mitigation for problems described in {IERC20-approve}. Emits an {Approval} event indicating the updated allowance. Requirements: - `spender` cannot be the zero address. - `spender` must have allowance for the caller of at least `subtractedValue`."
					},
					"getRoleAdmin(bytes32)": {
						"details": "Returns the admin role that controls `role`. See {grantRole} and {revokeRole}. To change a role's admin, use {_setRoleAdmin}."
					},
					"grantRole(bytes32,address)": {
						"details": "Grants `role` to `account`. If `account` had not been already granted `role`, emits a {RoleGranted} event. Requirements: - the caller must have ``role``'s admin role. May emit a {RoleGranted} event."
					},
					"hasRole(bytes32,address)": {
						"details": "Returns `true` if `account` has been granted `role`."
					},
					"increaseAllowance(address,uint256)": {
						"details": "Atomically increases the allowance granted to `spender` by the caller. This is an alternative to {approve} that can be used as a mitigation for problems described in {IERC20-approve}. Emits an {Approval} event indicating the updated allowance. Requirements: - `spender` cannot be the zero address."
					},
					"name()": {
						"details": "Returns the name of the token."
					},
					"renounceRole(bytes32,address)": {
						"details": "Revokes `role` from the calling account. Roles are often managed via {grantRole} and {revokeRole}: this function's purpose is to provide a mechanism for accounts to lose their privileges if they are compromised (such as when a trusted device is misplaced). If the calling account had been revoked `role`, emits a {RoleRevoked} event. Requirements: - the caller must be `account`. May emit a {RoleRevoked} event."
					},
					"revokeRole(bytes32,address)": {
						"details": "Revokes `role` from `account`. If `account` had been granted `role`, emits a {RoleRevoked} event. Requirements: - the caller must have ``role``'s admin role. May emit a {RoleRevoked} event."
					},
					"supportsInterface(bytes4)": {
						"details": "See {IERC165-supportsInterface}."
					},
					"symbol()": {
						"details": "Returns the symbol of the token, usually a shorter version of the name."
					},
					"totalSupply()": {
						"details": "See {IERC20-totalSupply}."
					},
					"transfer(address,uint256)": {
						"details": "See {IERC20-transfer}. Requirements: - `to` cannot be the zero address. - the caller must have a balance of at least `amount`."
					},
					"transferFrom(address,address,uint256)": {
						"details": "See {IERC20-transferFrom}. Emits an {Approval} event indicating the updated allowance. This is not required by the EIP. See the note at the beginning of {ERC20}. NOTE: Does not update the allowance if the current allowance is the maximum `uint256`. Requirements: - `from` and `to` cannot be the zero address. - `from` must have a balance of at least `amount`. - the caller must have allowance for ``from``'s tokens of at least `amount`."
					}
				},
				"version": 1
			},
			"evm": {
				"assembly": "    /* \"LiriaToken_flat.sol\":44992:45633  contract LiriaToken is ERC20,AccessControl{... */\n  mstore(0x40, 0x80)\n    /* \"LiriaToken_flat.sol\":45175:45266  constructor() ERC20(\"LiriaToken\", \"LRA\"){... */\n  callvalue\n  dup1\n  iszero\n  tag_1\n  jumpi\n  0x00\n  dup1\n  revert\ntag_1:\n  pop\n    /* \"LiriaToken_flat.sol\":33883:33996  constructor(string memory name_, string memory symbol_) {... */\n  mload(0x40)\n  dup1\n  0x40\n  add\n  0x40\n  mstore\n  dup1\n  0x0a\n  dup2\n  mstore\n  0x20\n  add\n  0x4c69726961546f6b656e00000000000000000000000000000000000000000000\n  dup2\n  mstore\n  pop\n  mload(0x40)\n  dup1\n  0x40\n  add\n  0x40\n  mstore\n  dup1\n  0x03\n  dup2\n  mstore\n  0x20\n  add\n  0x4c52410000000000000000000000000000000000000000000000000000000000\n  dup2\n  mstore\n  pop\n    /* \"LiriaToken_flat.sol\":33957:33962  name_ */\n  dup2\n    /* \"LiriaToken_flat.sol\":33949:33954  _name */\n  0x03\n    /* \"LiriaToken_flat.sol\":33949:33962  _name = name_ */\n  swap1\n  dup1\n  mload\n  swap1\n  0x20\n  add\n  swap1\n  tag_5\n  swap3\n  swap2\n  swap1\n  tag_6\n  jump\t// in\ntag_5:\n  pop\n    /* \"LiriaToken_flat.sol\":33982:33989  symbol_ */\n  dup1\n    /* \"LiriaToken_flat.sol\":33972:33979  _symbol */\n  0x04\n    /* \"LiriaToken_flat.sol\":33972:33989  _symbol = symbol_ */\n  swap1\n  dup1\n  mload\n  swap1\n  0x20\n  add\n  swap1\n  tag_7\n  swap3\n  swap2\n  swap1\n  tag_6\n  jump\t// in\ntag_7:\n  pop\n    /* \"LiriaToken_flat.sol\":33883:33996  constructor(string memory name_, string memory symbol_) {... */\n  pop\n  pop\n    /* \"LiriaToken_flat.sol\":45225:45259  _setupRole(ADMIN_ROLE, msg.sender) */\n  tag_9\n    /* \"LiriaToken_flat.sol\":45145:45168  keccak256(\"ADMIN_ROLE\") */\n  0xa49807205ce4d355092ef5a8a18f56e8913cf4a201fbe287825b095693c21775\n    /* \"LiriaToken_flat.sol\":45248:45258  msg.sender */\n  caller\n    /* \"LiriaToken_flat.sol\":45225:45235  _setupRole */\n  shl(0x20, tag_10)\n    /* \"LiriaToken_flat.sol\":45225:45259  _setupRole(ADMIN_ROLE, msg.sender) */\n  0x20\n  shr\n  jump\t// in\ntag_9:\n    /* \"LiriaToken_flat.sol\":44992:45633  contract LiriaToken is ERC20,AccessControl{... */\n  jump(tag_11)\n    /* \"LiriaToken_flat.sol\":27188:27298  function _setupRole(bytes32 role, address account) internal virtual {... */\ntag_10:\n    /* \"LiriaToken_flat.sol\":27266:27291  _grantRole(role, account) */\n  tag_13\n    /* \"LiriaToken_flat.sol\":27277:27281  role */\n  dup3\n    /* \"LiriaToken_flat.sol\":27283:27290  account */\n  dup3\n    /* \"LiriaToken_flat.sol\":27266:27276  _grantRole */\n  shl(0x20, tag_14)\n    /* \"LiriaToken_flat.sol\":27266:27291  _grantRole(role, account) */\n  0x20\n  shr\n  jump\t// in\ntag_13:\n    /* \"LiriaToken_flat.sol\":27188:27298  function _setupRole(bytes32 role, address account) internal virtual {... */\n  pop\n  pop\n  jump\t// out\n    /* \"LiriaToken_flat.sol\":27838:28071  function _grantRole(bytes32 role, address account) internal virtual {... */\ntag_14:\n    /* \"LiriaToken_flat.sol\":27921:27943  hasRole(role, account) */\n  tag_16\n    /* \"LiriaToken_flat.sol\":27929:27933  role */\n  dup3\n    /* \"LiriaToken_flat.sol\":27935:27942  account */\n  dup3\n    /* \"LiriaToken_flat.sol\":27921:27928  hasRole */\n  shl(0x20, tag_17)\n    /* \"LiriaToken_flat.sol\":27921:27943  hasRole(role, account) */\n  0x20\n  shr\n  jump\t// in\ntag_16:\n    /* \"LiriaToken_flat.sol\":27916:28065  if (!hasRole(role, account)) {... */\n  tag_18\n  jumpi\n    /* \"LiriaToken_flat.sol\":27991:27995  true */\n  0x01\n    /* \"LiriaToken_flat.sol\":27959:27965  _roles */\n  0x05\n    /* \"LiriaToken_flat.sol\":27959:27971  _roles[role] */\n  0x00\n    /* \"LiriaToken_flat.sol\":27966:27970  role */\n  dup5\n    /* \"LiriaToken_flat.sol\":27959:27971  _roles[role] */\n  dup2\n  mstore\n  0x20\n  add\n  swap1\n  dup2\n  mstore\n  0x20\n  add\n  0x00\n  keccak256\n    /* \"LiriaToken_flat.sol\":27959:27979  _roles[role].members */\n  0x00\n  add\n    /* \"LiriaToken_flat.sol\":27959:27988  _roles[role].members[account] */\n  0x00\n    /* \"LiriaToken_flat.sol\":27980:27987  account */\n  dup4\n    /* \"LiriaToken_flat.sol\":27959:27988  _roles[role].members[account] */\n  0xffffffffffffffffffffffffffffffffffffffff\n  and\n  0xffffffffffffffffffffffffffffffffffffffff\n  and\n  dup2\n  mstore\n  0x20\n  add\n  swap1\n  dup2\n  mstore\n  0x20\n  add\n  0x00\n  keccak256\n  0x00\n    /* \"LiriaToken_flat.sol\":27959:27995  _roles[role].members[account] = true */\n  0x0100\n  exp\n  dup2\n  sload\n  dup2\n  0xff\n  mul\n  not\n  and\n  swap1\n  dup4\n  iszero\n  iszero\n  mul\n  or\n  swap1\n  sstore\n  pop\n    /* \"LiriaToken_flat.sol\":28041:28053  _msgSender() */\n  tag_19\n    /* \"LiriaToken_flat.sol\":28041:28051  _msgSender */\n  shl(0x20, tag_20)\n    /* \"LiriaToken_flat.sol\":28041:28053  _msgSender() */\n  0x20\n  shr\n  jump\t// in\ntag_19:\n    /* \"LiriaToken_flat.sol\":28014:28054  RoleGranted(role, account, _msgSender()) */\n  0xffffffffffffffffffffffffffffffffffffffff\n  and\n    /* \"LiriaToken_flat.sol\":28032:28039  account */\n  dup2\n    /* \"LiriaToken_flat.sol\":28014:28054  RoleGranted(role, account, _msgSender()) */\n  0xffffffffffffffffffffffffffffffffffffffff\n  and\n    /* \"LiriaToken_flat.sol\":28026:28030  role */\n  dup4\n    /* \"LiriaToken_flat.sol\":28014:28054  RoleGranted(role, account, _msgSender()) */\n  0x2f8788117e7eff1d82e926ec794901d17c78024a50270940304540a733656f0d\n  mload(0x40)\n  mload(0x40)\n  dup1\n  swap2\n  sub\n  swap1\n  log4\n    /* \"LiriaToken_flat.sol\":27916:28065  if (!hasRole(role, account)) {... */\ntag_18:\n    /* \"LiriaToken_flat.sol\":27838:28071  function _grantRole(bytes32 role, address account) internal virtual {... */\n  pop\n  pop\n  jump\t// out\n    /* \"LiriaToken_flat.sol\":23272:23417  function hasRole(bytes32 role, address account) public view virtual override returns (bool) {... */\ntag_17:\n    /* \"LiriaToken_flat.sol\":23358:23362  bool */\n  0x00\n    /* \"LiriaToken_flat.sol\":23381:23387  _roles */\n  0x05\n    /* \"LiriaToken_flat.sol\":23381:23393  _roles[role] */\n  0x00\n    /* \"LiriaToken_flat.sol\":23388:23392  role */\n  dup5\n    /* \"LiriaToken_flat.sol\":23381:23393  _roles[role] */\n  dup2\n  mstore\n  0x20\n  add\n  swap1\n  dup2\n  mstore\n  0x20\n  add\n  0x00\n  keccak256\n    /* \"LiriaToken_flat.sol\":23381:23401  _roles[role].members */\n  0x00\n  add\n    /* \"LiriaToken_flat.sol\":23381:23410  _roles[role].members[account] */\n  0x00\n    /* \"LiriaToken_flat.sol\":23402:23409  account */\n  dup4\n    /* \"LiriaToken_flat.sol\":23381:23410  _roles[role].members[account] */\n  0xffffffffffffffffffffffffffffffffffffffff\n  and\n  0xffffffffffffffffffffffffffffffffffffffff\n  and\n  dup2\n  mstore\n  0x20\n  add\n  swap1\n  dup2\n  mstore\n  0x20\n  add\n  0x00\n  keccak256\n  0x00\n  swap1\n  sload\n  swap1\n  0x0100\n  exp\n  swap1\n  div\n  0xff\n  and\n    /* \"LiriaToken_flat.sol\":23374:23410  return _roles[role].members[account] */\n  swap1\n  pop\n    /* \"LiriaToken_flat.sol\":23272:23417  function hasRole(bytes32 role, address account) public view virtual override returns (bool) {... */\n  swap3\n  swap2\n  pop\n  pop\n  jump\t// out\n    /* \"LiriaToken_flat.sol\":20278:20374  function _msgSender() internal view virtual returns (address) {... */\ntag_20:\n    /* \"LiriaToken_flat.sol\":20331:20338  address */\n  0x00\n    /* \"LiriaToken_flat.sol\":20357:20367  msg.sender */\n  caller\n    /* \"LiriaToken_flat.sol\":20350:20367  return msg.sender */\n  swap1\n  pop\n    /* \"LiriaToken_flat.sol\":20278:20374  function _msgSender() internal view virtual returns (address) {... */\n  swap1\n  jump\t// out\n    /* \"LiriaToken_flat.sol\":44992:45633  contract LiriaToken is ERC20,AccessControl{... */\ntag_6:\n  dup3\n  dup1\n  sload\n  tag_23\n  swap1\n  tag_24\n  jump\t// in\ntag_23:\n  swap1\n  0x00\n  mstore\n  keccak256(0x00, 0x20)\n  swap1\n  0x1f\n  add\n  0x20\n  swap1\n  div\n  dup2\n  add\n  swap3\n  dup3\n  tag_26\n  jumpi\n  0x00\n  dup6\n  sstore\n  jump(tag_25)\ntag_26:\n  dup3\n  0x1f\n  lt\n  tag_27\n  jumpi\n  dup1\n  mload\n  not(0xff)\n  and\n  dup4\n  dup1\n  add\n  or\n  dup6\n  sstore\n  jump(tag_25)\ntag_27:\n  dup3\n  dup1\n  add\n  0x01\n  add\n  dup6\n  sstore\n  dup3\n  iszero\n  tag_25\n  jumpi\n  swap2\n  dup3\n  add\ntag_28:\n  dup3\n  dup2\n  gt\n  iszero\n  tag_29\n  jumpi\n  dup3\n  mload\n  dup3\n  sstore\n  swap2\n  0x20\n  add\n  swap2\n  swap1\n  0x01\n  add\n  swap1\n  jump(tag_28)\ntag_29:\ntag_25:\n  pop\n  swap1\n  pop\n  tag_30\n  swap2\n  swap1\n  tag_31\n  jump\t// in\ntag_30:\n  pop\n  swap1\n  jump\t// out\ntag_31:\ntag_32:\n  dup1\n  dup3\n  gt\n  iszero\n  tag_33\n  jumpi\n  0x00\n  dup2\n  0x00\n  swap1\n  sstore\n  pop\n  0x01\n  add\n  jump(tag_32)\ntag_33:\n  pop\n  swap1\n  jump\t// out\n    /* \"#utility.yul\":7:327   */\ntag_24:\n    /* \"#utility.yul\":51:57   */\n  0x00\n    /* \"#utility.yul\":88:89   */\n  0x02\n    /* \"#utility.yul\":82:86   */\n  dup3\n    /* \"#utility.yul\":78:90   */\n  div\n    /* \"#utility.yul\":68:90   */\n  swap1\n  pop\n    /* \"#utility.yul\":135:136   */\n  0x01\n    /* \"#utility.yul\":129:133   */\n  dup3\n    /* \"#utility.yul\":125:137   */\n  and\n    /* \"#utility.yul\":156:174   */\n  dup1\n    /* \"#utility.yul\":146:227   */\n  tag_36\n  jumpi\n    /* \"#utility.yul\":212:216   */\n  0x7f\n    /* \"#utility.yul\":204:210   */\n  dup3\n    /* \"#utility.yul\":200:217   */\n  and\n    /* \"#utility.yul\":190:217   */\n  swap2\n  pop\n    /* \"#utility.yul\":146:227   */\ntag_36:\n    /* \"#utility.yul\":274:276   */\n  0x20\n    /* \"#utility.yul\":266:272   */\n  dup3\n    /* \"#utility.yul\":263:277   */\n  lt\n    /* \"#utility.yul\":243:261   */\n  dup2\n    /* \"#utility.yul\":240:278   */\n  eq\n    /* \"#utility.yul\":237:321   */\n  iszero\n  tag_37\n  jumpi\n    /* \"#utility.yul\":293:311   */\n  tag_38\n  tag_39\n  jump\t// in\ntag_38:\n    /* \"#utility.yul\":237:321   */\ntag_37:\n    /* \"#utility.yul\":58:327   */\n  pop\n    /* \"#utility.yul\":7:327   */\n  swap2\n  swap1\n  pop\n  jump\t// out\n    /* \"#utility.yul\":333:513   */\ntag_39:\n    /* \"#utility.yul\":381:458   */\n  0x4e487b7100000000000000000000000000000000000000000000000000000000\n    /* \"#utility.yul\":378:379   */\n  0x00\n    /* \"#utility.yul\":371:459   */\n  mstore\n    /* \"#utility.yul\":478:482   */\n  0x22\n    /* \"#utility.yul\":475:476   */\n  0x04\n    /* \"#utility.yul\":468:483   */\n  mstore\n    /* \"#utility.yul\":502:506   */\n  0x24\n    /* \"#utility.yul\":499:500   */\n  0x00\n    /* \"#utility.yul\":492:507   */\n  revert\n    /* \"LiriaToken_flat.sol\":44992:45633  contract LiriaToken is ERC20,AccessControl{... */\ntag_11:\n  dataSize(sub_0)\n  dup1\n  dataOffset(sub_0)\n  0x00\n  codecopy\n  0x00\n  return\nstop\n\nsub_0: assembly {\n        /* \"LiriaToken_flat.sol\":44992:45633  contract LiriaToken is ERC20,AccessControl{... */\n      mstore(0x40, 0x80)\n      callvalue\n      dup1\n      iszero\n      tag_1\n      jumpi\n      0x00\n      dup1\n      revert\n    tag_1:\n      pop\n      jumpi(tag_2, lt(calldatasize, 0x04))\n      shr(0xe0, calldataload(0x00))\n      dup1\n      0x40c10f19\n      gt\n      tag_25\n      jumpi\n      dup1\n      0xa217fddf\n      gt\n      tag_26\n      jumpi\n      dup1\n      0xa217fddf\n      eq\n      tag_19\n      jumpi\n      dup1\n      0xa457c2d7\n      eq\n      tag_20\n      jumpi\n      dup1\n      0xa9059cbb\n      eq\n      tag_21\n      jumpi\n      dup1\n      0xd5391393\n      eq\n      tag_22\n      jumpi\n      dup1\n      0xd547741f\n      eq\n      tag_23\n      jumpi\n      dup1\n      0xdd62ed3e\n      eq\n      tag_24\n      jumpi\n      jump(tag_2)\n    tag_26:\n      dup1\n      0x40c10f19\n      eq\n      tag_14\n      jumpi\n      dup1\n      0x70a08231\n      eq\n      tag_15\n      jumpi\n      dup1\n      0x75b238fc\n      eq\n      tag_16\n      jumpi\n      dup1\n      0x91d14854\n      eq\n      tag_17\n      jumpi\n      dup1\n      0x95d89b41\n      eq\n      tag_18\n      jumpi\n      jump(tag_2)\n    tag_25:\n      dup1\n      0x23b872dd\n      gt\n      tag_27\n      jumpi\n      dup1\n      0x23b872dd\n      eq\n      tag_8\n      jumpi\n      dup1\n      0x248a9ca3\n      eq\n      tag_9\n      jumpi\n      dup1\n      0x2f2ff15d\n      eq\n      tag_10\n      jumpi\n      dup1\n      0x313ce567\n      eq\n      tag_11\n      jumpi\n      dup1\n      0x36568abe\n      eq\n      tag_12\n      jumpi\n      dup1\n      0x39509351\n      eq\n      tag_13\n      jumpi\n      jump(tag_2)\n    tag_27:\n      dup1\n      0x01ffc9a7\n      eq\n      tag_3\n      jumpi\n      dup1\n      0x06fdde03\n      eq\n      tag_4\n      jumpi\n      dup1\n      0x090f78dc\n      eq\n      tag_5\n      jumpi\n      dup1\n      0x095ea7b3\n      eq\n      tag_6\n      jumpi\n      dup1\n      0x18160ddd\n      eq\n      tag_7\n      jumpi\n    tag_2:\n      0x00\n      dup1\n      revert\n        /* \"LiriaToken_flat.sol\":22983:23185  function supportsInterface(bytes4 interfaceId) public view virtual override returns (bool) {... */\n    tag_3:\n      tag_28\n      0x04\n      dup1\n      calldatasize\n      sub\n      dup2\n      add\n      swap1\n      tag_29\n      swap2\n      swap1\n      tag_30\n      jump\t// in\n    tag_29:\n      tag_31\n      jump\t// in\n    tag_28:\n      mload(0x40)\n      tag_32\n      swap2\n      swap1\n      tag_33\n      jump\t// in\n    tag_32:\n      mload(0x40)\n      dup1\n      swap2\n      sub\n      swap1\n      return\n        /* \"LiriaToken_flat.sol\":34061:34159  function name() public view virtual override returns (string memory) {... */\n    tag_4:\n      tag_34\n      tag_35\n      jump\t// in\n    tag_34:\n      mload(0x40)\n      tag_36\n      swap2\n      swap1\n      tag_37\n      jump\t// in\n    tag_36:\n      mload(0x40)\n      dup1\n      swap2\n      sub\n      swap1\n      return\n        /* \"LiriaToken_flat.sol\":45272:45514  function setupMinter(address minter, bool enabled) external onlyRole(ADMIN_ROLE) {... */\n    tag_5:\n      tag_38\n      0x04\n      dup1\n      calldatasize\n      sub\n      dup2\n      add\n      swap1\n      tag_39\n      swap2\n      swap1\n      tag_40\n      jump\t// in\n    tag_39:\n      tag_41\n      jump\t// in\n    tag_38:\n      stop\n        /* \"LiriaToken_flat.sol\":36338:36535  function approve(address spender, uint256 amount) public virtual override returns (bool) {... */\n    tag_6:\n      tag_42\n      0x04\n      dup1\n      calldatasize\n      sub\n      dup2\n      add\n      swap1\n      tag_43\n      swap2\n      swap1\n      tag_44\n      jump\t// in\n    tag_43:\n      tag_45\n      jump\t// in\n    tag_42:\n      mload(0x40)\n      tag_46\n      swap2\n      swap1\n      tag_33\n      jump\t// in\n    tag_46:\n      mload(0x40)\n      dup1\n      swap2\n      sub\n      swap1\n      return\n        /* \"LiriaToken_flat.sol\":35149:35255  function totalSupply() public view virtual override returns (uint256) {... */\n    tag_7:\n      tag_47\n      tag_48\n      jump\t// in\n    tag_47:\n      mload(0x40)\n      tag_49\n      swap2\n      swap1\n      tag_50\n      jump\t// in\n    tag_49:\n      mload(0x40)\n      dup1\n      swap2\n      sub\n      swap1\n      return\n        /* \"LiriaToken_flat.sol\":37097:37383  function transferFrom(... */\n    tag_8:\n      tag_51\n      0x04\n      dup1\n      calldatasize\n      sub\n      dup2\n      add\n      swap1\n      tag_52\n      swap2\n      swap1\n      tag_53\n      jump\t// in\n    tag_52:\n      tag_54\n      jump\t// in\n    tag_51:\n      mload(0x40)\n      tag_55\n      swap2\n      swap1\n      tag_33\n      jump\t// in\n    tag_55:\n      mload(0x40)\n      dup1\n      swap2\n      sub\n      swap1\n      return\n        /* \"LiriaToken_flat.sol\":24755:24884  function getRoleAdmin(bytes32 role) public view virtual override returns (bytes32) {... */\n    tag_9:\n      tag_56\n      0x04\n      dup1\n      calldatasize\n      sub\n      dup2\n      add\n      swap1\n      tag_57\n      swap2\n      swap1\n      tag_58\n      jump\t// in\n    tag_57:\n      tag_59\n      jump\t// in\n    tag_56:\n      mload(0x40)\n      tag_60\n      swap2\n      swap1\n      tag_61\n      jump\t// in\n    tag_60:\n      mload(0x40)\n      dup1\n      swap2\n      sub\n      swap1\n      return\n        /* \"LiriaToken_flat.sol\":25180:25325  function grantRole(bytes32 role, address account) public virtual override onlyRole(getRoleAdmin(role)) {... */\n    tag_10:\n      tag_62\n      0x04\n      dup1\n      calldatasize\n      sub\n      dup2\n      add\n      swap1\n      tag_63\n      swap2\n      swap1\n      tag_64\n      jump\t// in\n    tag_63:\n      tag_65\n      jump\t// in\n    tag_62:\n      stop\n        /* \"LiriaToken_flat.sol\":34998:35089  function decimals() public view virtual override returns (uint8) {... */\n    tag_11:\n      tag_66\n      tag_67\n      jump\t// in\n    tag_66:\n      mload(0x40)\n      tag_68\n      swap2\n      swap1\n      tag_69\n      jump\t// in\n    tag_68:\n      mload(0x40)\n      dup1\n      swap2\n      sub\n      swap1\n      return\n        /* \"LiriaToken_flat.sol\":26289:26503  function renounceRole(bytes32 role, address account) public virtual override {... */\n    tag_12:\n      tag_70\n      0x04\n      dup1\n      calldatasize\n      sub\n      dup2\n      add\n      swap1\n      tag_71\n      swap2\n      swap1\n      tag_64\n      jump\t// in\n    tag_71:\n      tag_72\n      jump\t// in\n    tag_70:\n      stop\n        /* \"LiriaToken_flat.sol\":37778:38012  function increaseAllowance(address spender, uint256 addedValue) public virtual returns (bool) {... */\n    tag_13:\n      tag_73\n      0x04\n      dup1\n      calldatasize\n      sub\n      dup2\n      add\n      swap1\n      tag_74\n      swap2\n      swap1\n      tag_44\n      jump\t// in\n    tag_74:\n      tag_75\n      jump\t// in\n    tag_73:\n      mload(0x40)\n      tag_76\n      swap2\n      swap1\n      tag_33\n      jump\t// in\n    tag_76:\n      mload(0x40)\n      dup1\n      swap2\n      sub\n      swap1\n      return\n        /* \"LiriaToken_flat.sol\":45520:45625  function mint(address to, uint256 amount) public onlyRole(MINTER_ROLE) {... */\n    tag_14:\n      tag_77\n      0x04\n      dup1\n      calldatasize\n      sub\n      dup2\n      add\n      swap1\n      tag_78\n      swap2\n      swap1\n      tag_44\n      jump\t// in\n    tag_78:\n      tag_79\n      jump\t// in\n    tag_77:\n      stop\n        /* \"LiriaToken_flat.sol\":35313:35438  function balanceOf(address account) public view virtual override returns (uint256) {... */\n    tag_15:\n      tag_80\n      0x04\n      dup1\n      calldatasize\n      sub\n      dup2\n      add\n      swap1\n      tag_81\n      swap2\n      swap1\n      tag_82\n      jump\t// in\n    tag_81:\n      tag_83\n      jump\t// in\n    tag_80:\n      mload(0x40)\n      tag_84\n      swap2\n      swap1\n      tag_50\n      jump\t// in\n    tag_84:\n      mload(0x40)\n      dup1\n      swap2\n      sub\n      swap1\n      return\n        /* \"LiriaToken_flat.sol\":45108:45168  bytes32 public constant ADMIN_ROLE = keccak256(\"ADMIN_ROLE\") */\n    tag_16:\n      tag_85\n      tag_86\n      jump\t// in\n    tag_85:\n      mload(0x40)\n      tag_87\n      swap2\n      swap1\n      tag_61\n      jump\t// in\n    tag_87:\n      mload(0x40)\n      dup1\n      swap2\n      sub\n      swap1\n      return\n        /* \"LiriaToken_flat.sol\":23272:23417  function hasRole(bytes32 role, address account) public view virtual override returns (bool) {... */\n    tag_17:\n      tag_88\n      0x04\n      dup1\n      calldatasize\n      sub\n      dup2\n      add\n      swap1\n      tag_89\n      swap2\n      swap1\n      tag_64\n      jump\t// in\n    tag_89:\n      tag_90\n      jump\t// in\n    tag_88:\n      mload(0x40)\n      tag_91\n      swap2\n      swap1\n      tag_33\n      jump\t// in\n    tag_91:\n      mload(0x40)\n      dup1\n      swap2\n      sub\n      swap1\n      return\n        /* \"LiriaToken_flat.sol\":34272:34374  function symbol() public view virtual override returns (string memory) {... */\n    tag_18:\n      tag_92\n      tag_93\n      jump\t// in\n    tag_92:\n      mload(0x40)\n      tag_94\n      swap2\n      swap1\n      tag_37\n      jump\t// in\n    tag_94:\n      mload(0x40)\n      dup1\n      swap2\n      sub\n      swap1\n      return\n        /* \"LiriaToken_flat.sol\":22404:22453  bytes32 public constant DEFAULT_ADMIN_ROLE = 0x00 */\n    tag_19:\n      tag_95\n      tag_96\n      jump\t// in\n    tag_95:\n      mload(0x40)\n      tag_97\n      swap2\n      swap1\n      tag_61\n      jump\t// in\n    tag_97:\n      mload(0x40)\n      dup1\n      swap2\n      sub\n      swap1\n      return\n        /* \"LiriaToken_flat.sol\":38499:38926  function decreaseAllowance(address spender, uint256 subtractedValue) public virtual returns (bool) {... */\n    tag_20:\n      tag_98\n      0x04\n      dup1\n      calldatasize\n      sub\n      dup2\n      add\n      swap1\n      tag_99\n      swap2\n      swap1\n      tag_44\n      jump\t// in\n    tag_99:\n      tag_100\n      jump\t// in\n    tag_98:\n      mload(0x40)\n      tag_101\n      swap2\n      swap1\n      tag_33\n      jump\t// in\n    tag_101:\n      mload(0x40)\n      dup1\n      swap2\n      sub\n      swap1\n      return\n        /* \"LiriaToken_flat.sol\":35634:35823  function transfer(address to, uint256 amount) public virtual override returns (bool) {... */\n    tag_21:\n      tag_102\n      0x04\n      dup1\n      calldatasize\n      sub\n      dup2\n      add\n      swap1\n      tag_103\n      swap2\n      swap1\n      tag_44\n      jump\t// in\n    tag_103:\n      tag_104\n      jump\t// in\n    tag_102:\n      mload(0x40)\n      tag_105\n      swap2\n      swap1\n      tag_33\n      jump\t// in\n    tag_105:\n      mload(0x40)\n      dup1\n      swap2\n      sub\n      swap1\n      return\n        /* \"LiriaToken_flat.sol\":45040:45102  bytes32 public constant MINTER_ROLE = keccak256(\"MINTER_ROLE\") */\n    tag_22:\n      tag_106\n      tag_107\n      jump\t// in\n    tag_106:\n      mload(0x40)\n      tag_108\n      swap2\n      swap1\n      tag_61\n      jump\t// in\n    tag_108:\n      mload(0x40)\n      dup1\n      swap2\n      sub\n      swap1\n      return\n        /* \"LiriaToken_flat.sol\":25605:25752  function revokeRole(bytes32 role, address account) public virtual override onlyRole(getRoleAdmin(role)) {... */\n    tag_23:\n      tag_109\n      0x04\n      dup1\n      calldatasize\n      sub\n      dup2\n      add\n      swap1\n      tag_110\n      swap2\n      swap1\n      tag_64\n      jump\t// in\n    tag_110:\n      tag_111\n      jump\t// in\n    tag_109:\n      stop\n        /* \"LiriaToken_flat.sol\":35881:36030  function allowance(address owner, address spender) public view virtual override returns (uint256) {... */\n    tag_24:\n      tag_112\n      0x04\n      dup1\n      calldatasize\n      sub\n      dup2\n      add\n      swap1\n      tag_113\n      swap2\n      swap1\n      tag_114\n      jump\t// in\n    tag_113:\n      tag_115\n      jump\t// in\n    tag_112:\n      mload(0x40)\n      tag_116\n      swap2\n      swap1\n      tag_50\n      jump\t// in\n    tag_116:\n      mload(0x40)\n      dup1\n      swap2\n      sub\n      swap1\n      return\n        /* \"LiriaToken_flat.sol\":22983:23185  function supportsInterface(bytes4 interfaceId) public view virtual override returns (bool) {... */\n    tag_31:\n        /* \"LiriaToken_flat.sol\":23068:23072  bool */\n      0x00\n        /* \"LiriaToken_flat.sol\":23106:23138  type(IAccessControl).interfaceId */\n      0x7965db0b00000000000000000000000000000000000000000000000000000000\n        /* \"LiriaToken_flat.sol\":23091:23138  interfaceId == type(IAccessControl).interfaceId */\n      not(0xffffffffffffffffffffffffffffffffffffffffffffffffffffffff)\n      and\n        /* \"LiriaToken_flat.sol\":23091:23102  interfaceId */\n      dup3\n        /* \"LiriaToken_flat.sol\":23091:23138  interfaceId == type(IAccessControl).interfaceId */\n      not(0xffffffffffffffffffffffffffffffffffffffffffffffffffffffff)\n      and\n      eq\n        /* \"LiriaToken_flat.sol\":23091:23178  interfaceId == type(IAccessControl).interfaceId || super.supportsInterface(interfaceId) */\n      dup1\n      tag_118\n      jumpi\n      pop\n        /* \"LiriaToken_flat.sol\":23142:23178  super.supportsInterface(interfaceId) */\n      tag_119\n        /* \"LiriaToken_flat.sol\":23166:23177  interfaceId */\n      dup3\n        /* \"LiriaToken_flat.sol\":23142:23165  super.supportsInterface */\n      tag_120\n        /* \"LiriaToken_flat.sol\":23142:23178  super.supportsInterface(interfaceId) */\n      jump\t// in\n    tag_119:\n        /* \"LiriaToken_flat.sol\":23091:23178  interfaceId == type(IAccessControl).interfaceId || super.supportsInterface(interfaceId) */\n    tag_118:\n        /* \"LiriaToken_flat.sol\":23084:23178  return interfaceId == type(IAccessControl).interfaceId || super.supportsInterface(interfaceId) */\n      swap1\n      pop\n        /* \"LiriaToken_flat.sol\":22983:23185  function supportsInterface(bytes4 interfaceId) public view virtual override returns (bool) {... */\n      swap2\n      swap1\n      pop\n      jump\t// out\n        /* \"LiriaToken_flat.sol\":34061:34159  function name() public view virtual override returns (string memory) {... */\n    tag_35:\n        /* \"LiriaToken_flat.sol\":34115:34128  string memory */\n      0x60\n        /* \"LiriaToken_flat.sol\":34147:34152  _name */\n      0x03\n        /* \"LiriaToken_flat.sol\":34140:34152  return _name */\n      dup1\n      sload\n      tag_122\n      swap1\n      tag_123\n      jump\t// in\n    tag_122:\n      dup1\n      0x1f\n      add\n      0x20\n      dup1\n      swap2\n      div\n      mul\n      0x20\n      add\n      mload(0x40)\n      swap1\n      dup2\n      add\n      0x40\n      mstore\n      dup1\n      swap3\n      swap2\n      swap1\n      dup2\n      dup2\n      mstore\n      0x20\n      add\n      dup3\n      dup1\n      sload\n      tag_124\n      swap1\n      tag_123\n      jump\t// in\n    tag_124:\n      dup1\n      iszero\n      tag_125\n      jumpi\n      dup1\n      0x1f\n      lt\n      tag_126\n      jumpi\n      0x0100\n      dup1\n      dup4\n      sload\n      div\n      mul\n      dup4\n      mstore\n      swap2\n      0x20\n      add\n      swap2\n      jump(tag_125)\n    tag_126:\n      dup3\n      add\n      swap2\n      swap1\n      0x00\n      mstore\n      keccak256(0x00, 0x20)\n      swap1\n    tag_127:\n      dup2\n      sload\n      dup2\n      mstore\n      swap1\n      0x01\n      add\n      swap1\n      0x20\n      add\n      dup1\n      dup4\n      gt\n      tag_127\n      jumpi\n      dup3\n      swap1\n      sub\n      0x1f\n      and\n      dup3\n      add\n      swap2\n    tag_125:\n      pop\n      pop\n      pop\n      pop\n      pop\n      swap1\n      pop\n        /* \"LiriaToken_flat.sol\":34061:34159  function name() public view virtual override returns (string memory) {... */\n      swap1\n      jump\t// out\n        /* \"LiriaToken_flat.sol\":45272:45514  function setupMinter(address minter, bool enabled) external onlyRole(ADMIN_ROLE) {... */\n    tag_41:\n        /* \"LiriaToken_flat.sol\":45145:45168  keccak256(\"ADMIN_ROLE\") */\n      0xa49807205ce4d355092ef5a8a18f56e8913cf4a201fbe287825b095693c21775\n        /* \"LiriaToken_flat.sol\":22882:22898  _checkRole(role) */\n      tag_129\n        /* \"LiriaToken_flat.sol\":22893:22897  role */\n      dup2\n        /* \"LiriaToken_flat.sol\":22882:22892  _checkRole */\n      tag_130\n        /* \"LiriaToken_flat.sol\":22882:22898  _checkRole(role) */\n      jump\t// in\n    tag_129:\n        /* \"LiriaToken_flat.sol\":45389:45390  0 */\n      0x00\n        /* \"LiriaToken_flat.sol\":45371:45391  minter != address(0) */\n      0xffffffffffffffffffffffffffffffffffffffff\n      and\n        /* \"LiriaToken_flat.sol\":45371:45377  minter */\n      dup4\n        /* \"LiriaToken_flat.sol\":45371:45391  minter != address(0) */\n      0xffffffffffffffffffffffffffffffffffffffff\n      and\n      eq\n      iszero\n        /* \"LiriaToken_flat.sol\":45363:45403  require(minter != address(0), \"!minter\") */\n      tag_132\n      jumpi\n      mload(0x40)\n      0x08c379a000000000000000000000000000000000000000000000000000000000\n      dup2\n      mstore\n      0x04\n      add\n      tag_133\n      swap1\n      tag_134\n      jump\t// in\n    tag_133:\n      mload(0x40)\n      dup1\n      swap2\n      sub\n      swap1\n      revert\n    tag_132:\n        /* \"LiriaToken_flat.sol\":45417:45424  enabled */\n      dup2\n        /* \"LiriaToken_flat.sol\":45413:45504  if (enabled) _setupRole(MINTER_ROLE, minter);... */\n      iszero\n      tag_135\n      jumpi\n        /* \"LiriaToken_flat.sol\":45426:45457  _setupRole(MINTER_ROLE, minter) */\n      tag_136\n        /* \"LiriaToken_flat.sol\":45078:45102  keccak256(\"MINTER_ROLE\") */\n      0x9f2df0fed2c77648de5860a4cc508cd0818c85b8b8a1ab4ceeef8d981c8956a6\n        /* \"LiriaToken_flat.sol\":45450:45456  minter */\n      dup5\n        /* \"LiriaToken_flat.sol\":45426:45436  _setupRole */\n      tag_137\n        /* \"LiriaToken_flat.sol\":45426:45457  _setupRole(MINTER_ROLE, minter) */\n      jump\t// in\n    tag_136:\n        /* \"LiriaToken_flat.sol\":45413:45504  if (enabled) _setupRole(MINTER_ROLE, minter);... */\n      jump(tag_138)\n    tag_135:\n        /* \"LiriaToken_flat.sol\":45472:45504  _revokeRole(MINTER_ROLE, minter) */\n      tag_139\n        /* \"LiriaToken_flat.sol\":45078:45102  keccak256(\"MINTER_ROLE\") */\n      0x9f2df0fed2c77648de5860a4cc508cd0818c85b8b8a1ab4ceeef8d981c8956a6\n        /* \"LiriaToken_flat.sol\":45497:45503  minter */\n      dup5\n        /* \"LiriaToken_flat.sol\":45472:45483  _revokeRole */\n      tag_140\n        /* \"LiriaToken_flat.sol\":45472:45504  _revokeRole(MINTER_ROLE, minter) */\n      jump\t// in\n    tag_139:\n        /* \"LiriaToken_flat.sol\":45413:45504  if (enabled) _setupRole(MINTER_ROLE, minter);... */\n    tag_138:\n        /* \"LiriaToken_flat.sol\":45272:45514  function setupMinter(address minter, bool enabled) external onlyRole(ADMIN_ROLE) {... */\n      pop\n      pop\n      pop\n      jump\t// out\n        /* \"LiriaToken_flat.sol\":36338:36535  function approve(address spender, uint256 amount) public virtual override returns (bool) {... */\n    tag_45:\n        /* \"LiriaToken_flat.sol\":36421:36425  bool */\n      0x00\n        /* \"LiriaToken_flat.sol\":36437:36450  address owner */\n      dup1\n        /* \"LiriaToken_flat.sol\":36453:36465  _msgSender() */\n      tag_142\n        /* \"LiriaToken_flat.sol\":36453:36463  _msgSender */\n      tag_143\n        /* \"LiriaToken_flat.sol\":36453:36465  _msgSender() */\n      jump\t// in\n    tag_142:\n        /* \"LiriaToken_flat.sol\":36437:36465  address owner = _msgSender() */\n      swap1\n      pop\n        /* \"LiriaToken_flat.sol\":36475:36507  _approve(owner, spender, amount) */\n      tag_144\n        /* \"LiriaToken_flat.sol\":36484:36489  owner */\n      dup2\n        /* \"LiriaToken_flat.sol\":36491:36498  spender */\n      dup6\n        /* \"LiriaToken_flat.sol\":36500:36506  amount */\n      dup6\n        /* \"LiriaToken_flat.sol\":36475:36483  _approve */\n      tag_145\n        /* \"LiriaToken_flat.sol\":36475:36507  _approve(owner, spender, amount) */\n      jump\t// in\n    tag_144:\n        /* \"LiriaToken_flat.sol\":36524:36528  true */\n      0x01\n        /* \"LiriaToken_flat.sol\":36517:36528  return true */\n      swap2\n      pop\n      pop\n        /* \"LiriaToken_flat.sol\":36338:36535  function approve(address spender, uint256 amount) public virtual override returns (bool) {... */\n      swap3\n      swap2\n      pop\n      pop\n      jump\t// out\n        /* \"LiriaToken_flat.sol\":35149:35255  function totalSupply() public view virtual override returns (uint256) {... */\n    tag_48:\n        /* \"LiriaToken_flat.sol\":35210:35217  uint256 */\n      0x00\n        /* \"LiriaToken_flat.sol\":35236:35248  _totalSupply */\n      sload(0x02)\n        /* \"LiriaToken_flat.sol\":35229:35248  return _totalSupply */\n      swap1\n      pop\n        /* \"LiriaToken_flat.sol\":35149:35255  function totalSupply() public view virtual override returns (uint256) {... */\n      swap1\n      jump\t// out\n        /* \"LiriaToken_flat.sol\":37097:37383  function transferFrom(... */\n    tag_54:\n        /* \"LiriaToken_flat.sol\":37224:37228  bool */\n      0x00\n        /* \"LiriaToken_flat.sol\":37240:37255  address spender */\n      dup1\n        /* \"LiriaToken_flat.sol\":37258:37270  _msgSender() */\n      tag_148\n        /* \"LiriaToken_flat.sol\":37258:37268  _msgSender */\n      tag_143\n        /* \"LiriaToken_flat.sol\":37258:37270  _msgSender() */\n      jump\t// in\n    tag_148:\n        /* \"LiriaToken_flat.sol\":37240:37270  address spender = _msgSender() */\n      swap1\n      pop\n        /* \"LiriaToken_flat.sol\":37280:37318  _spendAllowance(from, spender, amount) */\n      tag_149\n        /* \"LiriaToken_flat.sol\":37296:37300  from */\n      dup6\n        /* \"LiriaToken_flat.sol\":37302:37309  spender */\n      dup3\n        /* \"LiriaToken_flat.sol\":37311:37317  amount */\n      dup6\n        /* \"LiriaToken_flat.sol\":37280:37295  _spendAllowance */\n      tag_150\n        /* \"LiriaToken_flat.sol\":37280:37318  _spendAllowance(from, spender, amount) */\n      jump\t// in\n    tag_149:\n        /* \"LiriaToken_flat.sol\":37328:37355  _transfer(from, to, amount) */\n      tag_151\n        /* \"LiriaToken_flat.sol\":37338:37342  from */\n      dup6\n        /* \"LiriaToken_flat.sol\":37344:37346  to */\n      dup6\n        /* \"LiriaToken_flat.sol\":37348:37354  amount */\n      dup6\n        /* \"LiriaToken_flat.sol\":37328:37337  _transfer */\n      tag_152\n        /* \"LiriaToken_flat.sol\":37328:37355  _transfer(from, to, amount) */\n      jump\t// in\n    tag_151:\n        /* \"LiriaToken_flat.sol\":37372:37376  true */\n      0x01\n        /* \"LiriaToken_flat.sol\":37365:37376  return true */\n      swap2\n      pop\n      pop\n        /* \"LiriaToken_flat.sol\":37097:37383  function transferFrom(... */\n      swap4\n      swap3\n      pop\n      pop\n      pop\n      jump\t// out\n        /* \"LiriaToken_flat.sol\":24755:24884  function getRoleAdmin(bytes32 role) public view virtual override returns (bytes32) {... */\n    tag_59:\n        /* \"LiriaToken_flat.sol\":24829:24836  bytes32 */\n      0x00\n        /* \"LiriaToken_flat.sol\":24855:24861  _roles */\n      0x05\n        /* \"LiriaToken_flat.sol\":24855:24867  _roles[role] */\n      0x00\n        /* \"LiriaToken_flat.sol\":24862:24866  role */\n      dup4\n        /* \"LiriaToken_flat.sol\":24855:24867  _roles[role] */\n      dup2\n      mstore\n      0x20\n      add\n      swap1\n      dup2\n      mstore\n      0x20\n      add\n      0x00\n      keccak256\n        /* \"LiriaToken_flat.sol\":24855:24877  _roles[role].adminRole */\n      0x01\n      add\n      sload\n        /* \"LiriaToken_flat.sol\":24848:24877  return _roles[role].adminRole */\n      swap1\n      pop\n        /* \"LiriaToken_flat.sol\":24755:24884  function getRoleAdmin(bytes32 role) public view virtual override returns (bytes32) {... */\n      swap2\n      swap1\n      pop\n      jump\t// out\n        /* \"LiriaToken_flat.sol\":25180:25325  function grantRole(bytes32 role, address account) public virtual override onlyRole(getRoleAdmin(role)) {... */\n    tag_65:\n        /* \"LiriaToken_flat.sol\":25263:25281  getRoleAdmin(role) */\n      tag_154\n        /* \"LiriaToken_flat.sol\":25276:25280  role */\n      dup3\n        /* \"LiriaToken_flat.sol\":25263:25275  getRoleAdmin */\n      tag_59\n        /* \"LiriaToken_flat.sol\":25263:25281  getRoleAdmin(role) */\n      jump\t// in\n    tag_154:\n        /* \"LiriaToken_flat.sol\":22882:22898  _checkRole(role) */\n      tag_156\n        /* \"LiriaToken_flat.sol\":22893:22897  role */\n      dup2\n        /* \"LiriaToken_flat.sol\":22882:22892  _checkRole */\n      tag_130\n        /* \"LiriaToken_flat.sol\":22882:22898  _checkRole(role) */\n      jump\t// in\n    tag_156:\n        /* \"LiriaToken_flat.sol\":25293:25318  _grantRole(role, account) */\n      tag_158\n        /* \"LiriaToken_flat.sol\":25304:25308  role */\n      dup4\n        /* \"LiriaToken_flat.sol\":25310:25317  account */\n      dup4\n        /* \"LiriaToken_flat.sol\":25293:25303  _grantRole */\n      tag_159\n        /* \"LiriaToken_flat.sol\":25293:25318  _grantRole(role, account) */\n      jump\t// in\n    tag_158:\n        /* \"LiriaToken_flat.sol\":25180:25325  function grantRole(bytes32 role, address account) public virtual override onlyRole(getRoleAdmin(role)) {... */\n      pop\n      pop\n      pop\n      jump\t// out\n        /* \"LiriaToken_flat.sol\":34998:35089  function decimals() public view virtual override returns (uint8) {... */\n    tag_67:\n        /* \"LiriaToken_flat.sol\":35056:35061  uint8 */\n      0x00\n        /* \"LiriaToken_flat.sol\":35080:35082  18 */\n      0x12\n        /* \"LiriaToken_flat.sol\":35073:35082  return 18 */\n      swap1\n      pop\n        /* \"LiriaToken_flat.sol\":34998:35089  function decimals() public view virtual override returns (uint8) {... */\n      swap1\n      jump\t// out\n        /* \"LiriaToken_flat.sol\":26289:26503  function renounceRole(bytes32 role, address account) public virtual override {... */\n    tag_72:\n        /* \"LiriaToken_flat.sol\":26395:26407  _msgSender() */\n      tag_162\n        /* \"LiriaToken_flat.sol\":26395:26405  _msgSender */\n      tag_143\n        /* \"LiriaToken_flat.sol\":26395:26407  _msgSender() */\n      jump\t// in\n    tag_162:\n        /* \"LiriaToken_flat.sol\":26384:26407  account == _msgSender() */\n      0xffffffffffffffffffffffffffffffffffffffff\n      and\n        /* \"LiriaToken_flat.sol\":26384:26391  account */\n      dup2\n        /* \"LiriaToken_flat.sol\":26384:26407  account == _msgSender() */\n      0xffffffffffffffffffffffffffffffffffffffff\n      and\n      eq\n        /* \"LiriaToken_flat.sol\":26376:26459  require(account == _msgSender(), \"AccessControl: can only renounce roles for self\") */\n      tag_163\n      jumpi\n      mload(0x40)\n      0x08c379a000000000000000000000000000000000000000000000000000000000\n      dup2\n      mstore\n      0x04\n      add\n      tag_164\n      swap1\n      tag_165\n      jump\t// in\n    tag_164:\n      mload(0x40)\n      dup1\n      swap2\n      sub\n      swap1\n      revert\n    tag_163:\n        /* \"LiriaToken_flat.sol\":26470:26496  _revokeRole(role, account) */\n      tag_166\n        /* \"LiriaToken_flat.sol\":26482:26486  role */\n      dup3\n        /* \"LiriaToken_flat.sol\":26488:26495  account */\n      dup3\n        /* \"LiriaToken_flat.sol\":26470:26481  _revokeRole */\n      tag_140\n        /* \"LiriaToken_flat.sol\":26470:26496  _revokeRole(role, account) */\n      jump\t// in\n    tag_166:\n        /* \"LiriaToken_flat.sol\":26289:26503  function renounceRole(bytes32 role, address account) public virtual override {... */\n      pop\n      pop\n      jump\t// out\n        /* \"LiriaToken_flat.sol\":37778:38012  function increaseAllowance(address spender, uint256 addedValue) public virtual returns (bool) {... */\n    tag_75:\n        /* \"LiriaToken_flat.sol\":37866:37870  bool */\n      0x00\n        /* \"LiriaToken_flat.sol\":37882:37895  address owner */\n      dup1\n        /* \"LiriaToken_flat.sol\":37898:37910  _msgSender() */\n      tag_168\n        /* \"LiriaToken_flat.sol\":37898:37908  _msgSender */\n      tag_143\n        /* \"LiriaToken_flat.sol\":37898:37910  _msgSender() */\n      jump\t// in\n    tag_168:\n        /* \"LiriaToken_flat.sol\":37882:37910  address owner = _msgSender() */\n      swap1\n      pop\n        /* \"LiriaToken_flat.sol\":37920:37984  _approve(owner, spender, allowance(owner, spender) + addedValue) */\n      tag_169\n        /* \"LiriaToken_flat.sol\":37929:37934  owner */\n      dup2\n        /* \"LiriaToken_flat.sol\":37936:37943  spender */\n      dup6\n        /* \"LiriaToken_flat.sol\":37973:37983  addedValue */\n      dup6\n        /* \"LiriaToken_flat.sol\":37945:37970  allowance(owner, spender) */\n      tag_170\n        /* \"LiriaToken_flat.sol\":37955:37960  owner */\n      dup6\n        /* \"LiriaToken_flat.sol\":37962:37969  spender */\n      dup10\n        /* \"LiriaToken_flat.sol\":37945:37954  allowance */\n      tag_115\n        /* \"LiriaToken_flat.sol\":37945:37970  allowance(owner, spender) */\n      jump\t// in\n    tag_170:\n        /* \"LiriaToken_flat.sol\":37945:37983  allowance(owner, spender) + addedValue */\n      tag_171\n      swap2\n      swap1\n      tag_172\n      jump\t// in\n    tag_171:\n        /* \"LiriaToken_flat.sol\":37920:37928  _approve */\n      tag_145\n        /* \"LiriaToken_flat.sol\":37920:37984  _approve(owner, spender, allowance(owner, spender) + addedValue) */\n      jump\t// in\n    tag_169:\n        /* \"LiriaToken_flat.sol\":38001:38005  true */\n      0x01\n        /* \"LiriaToken_flat.sol\":37994:38005  return true */\n      swap2\n      pop\n      pop\n        /* \"LiriaToken_flat.sol\":37778:38012  function increaseAllowance(address spender, uint256 addedValue) public virtual returns (bool) {... */\n      swap3\n      swap2\n      pop\n      pop\n      jump\t// out\n        /* \"LiriaToken_flat.sol\":45520:45625  function mint(address to, uint256 amount) public onlyRole(MINTER_ROLE) {... */\n    tag_79:\n        /* \"LiriaToken_flat.sol\":45078:45102  keccak256(\"MINTER_ROLE\") */\n      0x9f2df0fed2c77648de5860a4cc508cd0818c85b8b8a1ab4ceeef8d981c8956a6\n        /* \"LiriaToken_flat.sol\":22882:22898  _checkRole(role) */\n      tag_174\n        /* \"LiriaToken_flat.sol\":22893:22897  role */\n      dup2\n        /* \"LiriaToken_flat.sol\":22882:22892  _checkRole */\n      tag_130\n        /* \"LiriaToken_flat.sol\":22882:22898  _checkRole(role) */\n      jump\t// in\n    tag_174:\n        /* \"LiriaToken_flat.sol\":45601:45618  _mint(to, amount) */\n      tag_176\n        /* \"LiriaToken_flat.sol\":45607:45609  to */\n      dup4\n        /* \"LiriaToken_flat.sol\":45611:45617  amount */\n      dup4\n        /* \"LiriaToken_flat.sol\":45601:45606  _mint */\n      tag_177\n        /* \"LiriaToken_flat.sol\":45601:45618  _mint(to, amount) */\n      jump\t// in\n    tag_176:\n        /* \"LiriaToken_flat.sol\":45520:45625  function mint(address to, uint256 amount) public onlyRole(MINTER_ROLE) {... */\n      pop\n      pop\n      pop\n      jump\t// out\n        /* \"LiriaToken_flat.sol\":35313:35438  function balanceOf(address account) public view virtual override returns (uint256) {... */\n    tag_83:\n        /* \"LiriaToken_flat.sol\":35387:35394  uint256 */\n      0x00\n        /* \"LiriaToken_flat.sol\":35413:35422  _balances */\n      dup1\n        /* \"LiriaToken_flat.sol\":35413:35431  _balances[account] */\n      0x00\n        /* \"LiriaToken_flat.sol\":35423:35430  account */\n      dup4\n        /* \"LiriaToken_flat.sol\":35413:35431  _balances[account] */\n      0xffffffffffffffffffffffffffffffffffffffff\n      and\n      0xffffffffffffffffffffffffffffffffffffffff\n      and\n      dup2\n      mstore\n      0x20\n      add\n      swap1\n      dup2\n      mstore\n      0x20\n      add\n      0x00\n      keccak256\n      sload\n        /* \"LiriaToken_flat.sol\":35406:35431  return _balances[account] */\n      swap1\n      pop\n        /* \"LiriaToken_flat.sol\":35313:35438  function balanceOf(address account) public view virtual override returns (uint256) {... */\n      swap2\n      swap1\n      pop\n      jump\t// out\n        /* \"LiriaToken_flat.sol\":45108:45168  bytes32 public constant ADMIN_ROLE = keccak256(\"ADMIN_ROLE\") */\n    tag_86:\n        /* \"LiriaToken_flat.sol\":45145:45168  keccak256(\"ADMIN_ROLE\") */\n      0xa49807205ce4d355092ef5a8a18f56e8913cf4a201fbe287825b095693c21775\n        /* \"LiriaToken_flat.sol\":45108:45168  bytes32 public constant ADMIN_ROLE = keccak256(\"ADMIN_ROLE\") */\n      dup2\n      jump\t// out\n        /* \"LiriaToken_flat.sol\":23272:23417  function hasRole(bytes32 role, address account) public view virtual override returns (bool) {... */\n    tag_90:\n        /* \"LiriaToken_flat.sol\":23358:23362  bool */\n      0x00\n        /* \"LiriaToken_flat.sol\":23381:23387  _roles */\n      0x05\n        /* \"LiriaToken_flat.sol\":23381:23393  _roles[role] */\n      0x00\n        /* \"LiriaToken_flat.sol\":23388:23392  role */\n      dup5\n        /* \"LiriaToken_flat.sol\":23381:23393  _roles[role] */\n      dup2\n      mstore\n      0x20\n      add\n      swap1\n      dup2\n      mstore\n      0x20\n      add\n      0x00\n      keccak256\n        /* \"LiriaToken_flat.sol\":23381:23401  _roles[role].members */\n      0x00\n      add\n        /* \"LiriaToken_flat.sol\":23381:23410  _roles[role].members[account] */\n      0x00\n        /* \"LiriaToken_flat.sol\":23402:23409  account */\n      dup4\n        /* \"LiriaToken_flat.sol\":23381:23410  _roles[role].members[account] */\n      0xffffffffffffffffffffffffffffffffffffffff\n      and\n      0xffffffffffffffffffffffffffffffffffffffff\n      and\n      dup2\n      mstore\n      0x20\n      add\n      swap1\n      dup2\n      mstore\n      0x20\n      add\n      0x00\n      keccak256\n      0x00\n      swap1\n      sload\n      swap1\n      0x0100\n      exp\n      swap1\n      div\n      0xff\n      and\n        /* \"LiriaToken_flat.sol\":23374:23410  return _roles[role].members[account] */\n      swap1\n      pop\n        /* \"LiriaToken_flat.sol\":23272:23417  function hasRole(bytes32 role, address account) public view virtual override returns (bool) {... */\n      swap3\n      swap2\n      pop\n      pop\n      jump\t// out\n        /* \"LiriaToken_flat.sol\":34272:34374  function symbol() public view virtual override returns (string memory) {... */\n    tag_93:\n        /* \"LiriaToken_flat.sol\":34328:34341  string memory */\n      0x60\n        /* \"LiriaToken_flat.sol\":34360:34367  _symbol */\n      0x04\n        /* \"LiriaToken_flat.sol\":34353:34367  return _symbol */\n      dup1\n      sload\n      tag_181\n      swap1\n      tag_123\n      jump\t// in\n    tag_181:\n      dup1\n      0x1f\n      add\n      0x20\n      dup1\n      swap2\n      div\n      mul\n      0x20\n      add\n      mload(0x40)\n      swap1\n      dup2\n      add\n      0x40\n      mstore\n      dup1\n      swap3\n      swap2\n      swap1\n      dup2\n      dup2\n      mstore\n      0x20\n      add\n      dup3\n      dup1\n      sload\n      tag_182\n      swap1\n      tag_123\n      jump\t// in\n    tag_182:\n      dup1\n      iszero\n      tag_183\n      jumpi\n      dup1\n      0x1f\n      lt\n      tag_184\n      jumpi\n      0x0100\n      dup1\n      dup4\n      sload\n      div\n      mul\n      dup4\n      mstore\n      swap2\n      0x20\n      add\n      swap2\n      jump(tag_183)\n    tag_184:\n      dup3\n      add\n      swap2\n      swap1\n      0x00\n      mstore\n      keccak256(0x00, 0x20)\n      swap1\n    tag_185:\n      dup2\n      sload\n      dup2\n      mstore\n      swap1\n      0x01\n      add\n      swap1\n      0x20\n      add\n      dup1\n      dup4\n      gt\n      tag_185\n      jumpi\n      dup3\n      swap1\n      sub\n      0x1f\n      and\n      dup3\n      add\n      swap2\n    tag_183:\n      pop\n      pop\n      pop\n      pop\n      pop\n      swap1\n      pop\n        /* \"LiriaToken_flat.sol\":34272:34374  function symbol() public view virtual override returns (string memory) {... */\n      swap1\n      jump\t// out\n        /* \"LiriaToken_flat.sol\":22404:22453  bytes32 public constant DEFAULT_ADMIN_ROLE = 0x00 */\n    tag_96:\n        /* \"LiriaToken_flat.sol\":22449:22453  0x00 */\n      0x00\n        /* \"LiriaToken_flat.sol\":22404:22453  bytes32 public constant DEFAULT_ADMIN_ROLE = 0x00 */\n      dup1\n      shl\n      dup2\n      jump\t// out\n        /* \"LiriaToken_flat.sol\":38499:38926  function decreaseAllowance(address spender, uint256 subtractedValue) public virtual returns (bool) {... */\n    tag_100:\n        /* \"LiriaToken_flat.sol\":38592:38596  bool */\n      0x00\n        /* \"LiriaToken_flat.sol\":38608:38621  address owner */\n      dup1\n        /* \"LiriaToken_flat.sol\":38624:38636  _msgSender() */\n      tag_187\n        /* \"LiriaToken_flat.sol\":38624:38634  _msgSender */\n      tag_143\n        /* \"LiriaToken_flat.sol\":38624:38636  _msgSender() */\n      jump\t// in\n    tag_187:\n        /* \"LiriaToken_flat.sol\":38608:38636  address owner = _msgSender() */\n      swap1\n      pop\n        /* \"LiriaToken_flat.sol\":38646:38670  uint256 currentAllowance */\n      0x00\n        /* \"LiriaToken_flat.sol\":38673:38698  allowance(owner, spender) */\n      tag_188\n        /* \"LiriaToken_flat.sol\":38683:38688  owner */\n      dup3\n        /* \"LiriaToken_flat.sol\":38690:38697  spender */\n      dup7\n        /* \"LiriaToken_flat.sol\":38673:38682  allowance */\n      tag_115\n        /* \"LiriaToken_flat.sol\":38673:38698  allowance(owner, spender) */\n      jump\t// in\n    tag_188:\n        /* \"LiriaToken_flat.sol\":38646:38698  uint256 currentAllowance = allowance(owner, spender) */\n      swap1\n      pop\n        /* \"LiriaToken_flat.sol\":38736:38751  subtractedValue */\n      dup4\n        /* \"LiriaToken_flat.sol\":38716:38732  currentAllowance */\n      dup2\n        /* \"LiriaToken_flat.sol\":38716:38751  currentAllowance >= subtractedValue */\n      lt\n      iszero\n        /* \"LiriaToken_flat.sol\":38708:38793  require(currentAllowance >= subtractedValue, \"ERC20: decreased allowance below zero\") */\n      tag_189\n      jumpi\n      mload(0x40)\n      0x08c379a000000000000000000000000000000000000000000000000000000000\n      dup2\n      mstore\n      0x04\n      add\n      tag_190\n      swap1\n      tag_191\n      jump\t// in\n    tag_190:\n      mload(0x40)\n      dup1\n      swap2\n      sub\n      swap1\n      revert\n    tag_189:\n        /* \"LiriaToken_flat.sol\":38827:38887  _approve(owner, spender, currentAllowance - subtractedValue) */\n      tag_192\n        /* \"LiriaToken_flat.sol\":38836:38841  owner */\n      dup3\n        /* \"LiriaToken_flat.sol\":38843:38850  spender */\n      dup7\n        /* \"LiriaToken_flat.sol\":38871:38886  subtractedValue */\n      dup7\n        /* \"LiriaToken_flat.sol\":38852:38868  currentAllowance */\n      dup5\n        /* \"LiriaToken_flat.sol\":38852:38886  currentAllowance - subtractedValue */\n      sub\n        /* \"LiriaToken_flat.sol\":38827:38835  _approve */\n      tag_145\n        /* \"LiriaToken_flat.sol\":38827:38887  _approve(owner, spender, currentAllowance - subtractedValue) */\n      jump\t// in\n    tag_192:\n        /* \"LiriaToken_flat.sol\":38915:38919  true */\n      0x01\n        /* \"LiriaToken_flat.sol\":38908:38919  return true */\n      swap3\n      pop\n      pop\n      pop\n        /* \"LiriaToken_flat.sol\":38499:38926  function decreaseAllowance(address spender, uint256 subtractedValue) public virtual returns (bool) {... */\n      swap3\n      swap2\n      pop\n      pop\n      jump\t// out\n        /* \"LiriaToken_flat.sol\":35634:35823  function transfer(address to, uint256 amount) public virtual override returns (bool) {... */\n    tag_104:\n        /* \"LiriaToken_flat.sol\":35713:35717  bool */\n      0x00\n        /* \"LiriaToken_flat.sol\":35729:35742  address owner */\n      dup1\n        /* \"LiriaToken_flat.sol\":35745:35757  _msgSender() */\n      tag_194\n        /* \"LiriaToken_flat.sol\":35745:35755  _msgSender */\n      tag_143\n        /* \"LiriaToken_flat.sol\":35745:35757  _msgSender() */\n      jump\t// in\n    tag_194:\n        /* \"LiriaToken_flat.sol\":35729:35757  address owner = _msgSender() */\n      swap1\n      pop\n        /* \"LiriaToken_flat.sol\":35767:35795  _transfer(owner, to, amount) */\n      tag_195\n        /* \"LiriaToken_flat.sol\":35777:35782  owner */\n      dup2\n        /* \"LiriaToken_flat.sol\":35784:35786  to */\n      dup6\n        /* \"LiriaToken_flat.sol\":35788:35794  amount */\n      dup6\n        /* \"LiriaToken_flat.sol\":35767:35776  _transfer */\n      tag_152\n        /* \"LiriaToken_flat.sol\":35767:35795  _transfer(owner, to, amount) */\n      jump\t// in\n    tag_195:\n        /* \"LiriaToken_flat.sol\":35812:35816  true */\n      0x01\n        /* \"LiriaToken_flat.sol\":35805:35816  return true */\n      swap2\n      pop\n      pop\n        /* \"LiriaToken_flat.sol\":35634:35823  function transfer(address to, uint256 amount) public virtual override returns (bool) {... */\n      swap3\n      swap2\n      pop\n      pop\n      jump\t// out\n        /* \"LiriaToken_flat.sol\":45040:45102  bytes32 public constant MINTER_ROLE = keccak256(\"MINTER_ROLE\") */\n    tag_107:\n        /* \"LiriaToken_flat.sol\":45078:45102  keccak256(\"MINTER_ROLE\") */\n      0x9f2df0fed2c77648de5860a4cc508cd0818c85b8b8a1ab4ceeef8d981c8956a6\n        /* \"LiriaToken_flat.sol\":45040:45102  bytes32 public constant MINTER_ROLE = keccak256(\"MINTER_ROLE\") */\n      dup2\n      jump\t// out\n        /* \"LiriaToken_flat.sol\":25605:25752  function revokeRole(bytes32 role, address account) public virtual override onlyRole(getRoleAdmin(role)) {... */\n    tag_111:\n        /* \"LiriaToken_flat.sol\":25689:25707  getRoleAdmin(role) */\n      tag_196\n        /* \"LiriaToken_flat.sol\":25702:25706  role */\n      dup3\n        /* \"LiriaToken_flat.sol\":25689:25701  getRoleAdmin */\n      tag_59\n        /* \"LiriaToken_flat.sol\":25689:25707  getRoleAdmin(role) */\n      jump\t// in\n    tag_196:\n        /* \"LiriaToken_flat.sol\":22882:22898  _checkRole(role) */\n      tag_198\n        /* \"LiriaToken_flat.sol\":22893:22897  role */\n      dup2\n        /* \"LiriaToken_flat.sol\":22882:22892  _checkRole */\n      tag_130\n        /* \"LiriaToken_flat.sol\":22882:22898  _checkRole(role) */\n      jump\t// in\n    tag_198:\n        /* \"LiriaToken_flat.sol\":25719:25745  _revokeRole(role, account) */\n      tag_200\n        /* \"LiriaToken_flat.sol\":25731:25735  role */\n      dup4\n        /* \"LiriaToken_flat.sol\":25737:25744  account */\n      dup4\n        /* \"LiriaToken_flat.sol\":25719:25730  _revokeRole */\n      tag_140\n        /* \"LiriaToken_flat.sol\":25719:25745  _revokeRole(role, account) */\n      jump\t// in\n    tag_200:\n        /* \"LiriaToken_flat.sol\":25605:25752  function revokeRole(bytes32 role, address account) public virtual override onlyRole(getRoleAdmin(role)) {... */\n      pop\n      pop\n      pop\n      jump\t// out\n        /* \"LiriaToken_flat.sol\":35881:36030  function allowance(address owner, address spender) public view virtual override returns (uint256) {... */\n    tag_115:\n        /* \"LiriaToken_flat.sol\":35970:35977  uint256 */\n      0x00\n        /* \"LiriaToken_flat.sol\":35996:36007  _allowances */\n      0x01\n        /* \"LiriaToken_flat.sol\":35996:36014  _allowances[owner] */\n      0x00\n        /* \"LiriaToken_flat.sol\":36008:36013  owner */\n      dup5\n        /* \"LiriaToken_flat.sol\":35996:36014  _allowances[owner] */\n      0xffffffffffffffffffffffffffffffffffffffff\n      and\n      0xffffffffffffffffffffffffffffffffffffffff\n      and\n      dup2\n      mstore\n      0x20\n      add\n      swap1\n      dup2\n      mstore\n      0x20\n      add\n      0x00\n      keccak256\n        /* \"LiriaToken_flat.sol\":35996:36023  _allowances[owner][spender] */\n      0x00\n        /* \"LiriaToken_flat.sol\":36015:36022  spender */\n      dup4\n        /* \"LiriaToken_flat.sol\":35996:36023  _allowances[owner][spender] */\n      0xffffffffffffffffffffffffffffffffffffffff\n      and\n      0xffffffffffffffffffffffffffffffffffffffff\n      and\n      dup2\n      mstore\n      0x20\n      add\n      swap1\n      dup2\n      mstore\n      0x20\n      add\n      0x00\n      keccak256\n      sload\n        /* \"LiriaToken_flat.sol\":35989:36023  return _allowances[owner][spender] */\n      swap1\n      pop\n        /* \"LiriaToken_flat.sol\":35881:36030  function allowance(address owner, address spender) public view virtual override returns (uint256) {... */\n      swap3\n      swap2\n      pop\n      pop\n      jump\t// out\n        /* \"LiriaToken_flat.sol\":1729:1884  function supportsInterface(bytes4 interfaceId) public view virtual override returns (bool) {... */\n    tag_120:\n        /* \"LiriaToken_flat.sol\":1814:1818  bool */\n      0x00\n        /* \"LiriaToken_flat.sol\":1852:1877  type(IERC165).interfaceId */\n      0x01ffc9a700000000000000000000000000000000000000000000000000000000\n        /* \"LiriaToken_flat.sol\":1837:1877  interfaceId == type(IERC165).interfaceId */\n      not(0xffffffffffffffffffffffffffffffffffffffffffffffffffffffff)\n      and\n        /* \"LiriaToken_flat.sol\":1837:1848  interfaceId */\n      dup3\n        /* \"LiriaToken_flat.sol\":1837:1877  interfaceId == type(IERC165).interfaceId */\n      not(0xffffffffffffffffffffffffffffffffffffffffffffffffffffffff)\n      and\n      eq\n        /* \"LiriaToken_flat.sol\":1830:1877  return interfaceId == type(IERC165).interfaceId */\n      swap1\n      pop\n        /* \"LiriaToken_flat.sol\":1729:1884  function supportsInterface(bytes4 interfaceId) public view virtual override returns (bool) {... */\n      swap2\n      swap1\n      pop\n      jump\t// out\n        /* \"LiriaToken_flat.sol\":23711:23814  function _checkRole(bytes32 role) internal view virtual {... */\n    tag_130:\n        /* \"LiriaToken_flat.sol\":23777:23807  _checkRole(role, _msgSender()) */\n      tag_204\n        /* \"LiriaToken_flat.sol\":23788:23792  role */\n      dup2\n        /* \"LiriaToken_flat.sol\":23794:23806  _msgSender() */\n      tag_205\n        /* \"LiriaToken_flat.sol\":23794:23804  _msgSender */\n      tag_143\n        /* \"LiriaToken_flat.sol\":23794:23806  _msgSender() */\n      jump\t// in\n    tag_205:\n        /* \"LiriaToken_flat.sol\":23777:23787  _checkRole */\n      tag_206\n        /* \"LiriaToken_flat.sol\":23777:23807  _checkRole(role, _msgSender()) */\n      jump\t// in\n    tag_204:\n        /* \"LiriaToken_flat.sol\":23711:23814  function _checkRole(bytes32 role) internal view virtual {... */\n      pop\n      jump\t// out\n        /* \"LiriaToken_flat.sol\":27188:27298  function _setupRole(bytes32 role, address account) internal virtual {... */\n    tag_137:\n        /* \"LiriaToken_flat.sol\":27266:27291  _grantRole(role, account) */\n      tag_208\n        /* \"LiriaToken_flat.sol\":27277:27281  role */\n      dup3\n        /* \"LiriaToken_flat.sol\":27283:27290  account */\n      dup3\n        /* \"LiriaToken_flat.sol\":27266:27276  _grantRole */\n      tag_159\n        /* \"LiriaToken_flat.sol\":27266:27291  _grantRole(role, account) */\n      jump\t// in\n    tag_208:\n        /* \"LiriaToken_flat.sol\":27188:27298  function _setupRole(bytes32 role, address account) internal virtual {... */\n      pop\n      pop\n      jump\t// out\n        /* \"LiriaToken_flat.sol\":28242:28476  function _revokeRole(bytes32 role, address account) internal virtual {... */\n    tag_140:\n        /* \"LiriaToken_flat.sol\":28325:28347  hasRole(role, account) */\n      tag_210\n        /* \"LiriaToken_flat.sol\":28333:28337  role */\n      dup3\n        /* \"LiriaToken_flat.sol\":28339:28346  account */\n      dup3\n        /* \"LiriaToken_flat.sol\":28325:28332  hasRole */\n      tag_90\n        /* \"LiriaToken_flat.sol\":28325:28347  hasRole(role, account) */\n      jump\t// in\n    tag_210:\n        /* \"LiriaToken_flat.sol\":28321:28470  if (hasRole(role, account)) {... */\n      iszero\n      tag_211\n      jumpi\n        /* \"LiriaToken_flat.sol\":28395:28400  false */\n      0x00\n        /* \"LiriaToken_flat.sol\":28363:28369  _roles */\n      0x05\n        /* \"LiriaToken_flat.sol\":28363:28375  _roles[role] */\n      0x00\n        /* \"LiriaToken_flat.sol\":28370:28374  role */\n      dup5\n        /* \"LiriaToken_flat.sol\":28363:28375  _roles[role] */\n      dup2\n      mstore\n      0x20\n      add\n      swap1\n      dup2\n      mstore\n      0x20\n      add\n      0x00\n      keccak256\n        /* \"LiriaToken_flat.sol\":28363:28383  _roles[role].members */\n      0x00\n      add\n        /* \"LiriaToken_flat.sol\":28363:28392  _roles[role].members[account] */\n      0x00\n        /* \"LiriaToken_flat.sol\":28384:28391  account */\n      dup4\n        /* \"LiriaToken_flat.sol\":28363:28392  _roles[role].members[account] */\n      0xffffffffffffffffffffffffffffffffffffffff\n      and\n      0xffffffffffffffffffffffffffffffffffffffff\n      and\n      dup2\n      mstore\n      0x20\n      add\n      swap1\n      dup2\n      mstore\n      0x20\n      add\n      0x00\n      keccak256\n      0x00\n        /* \"LiriaToken_flat.sol\":28363:28400  _roles[role].members[account] = false */\n      0x0100\n      exp\n      dup2\n      sload\n      dup2\n      0xff\n      mul\n      not\n      and\n      swap1\n      dup4\n      iszero\n      iszero\n      mul\n      or\n      swap1\n      sstore\n      pop\n        /* \"LiriaToken_flat.sol\":28446:28458  _msgSender() */\n      tag_212\n        /* \"LiriaToken_flat.sol\":28446:28456  _msgSender */\n      tag_143\n        /* \"LiriaToken_flat.sol\":28446:28458  _msgSender() */\n      jump\t// in\n    tag_212:\n        /* \"LiriaToken_flat.sol\":28419:28459  RoleRevoked(role, account, _msgSender()) */\n      0xffffffffffffffffffffffffffffffffffffffff\n      and\n        /* \"LiriaToken_flat.sol\":28437:28444  account */\n      dup2\n        /* \"LiriaToken_flat.sol\":28419:28459  RoleRevoked(role, account, _msgSender()) */\n      0xffffffffffffffffffffffffffffffffffffffff\n      and\n        /* \"LiriaToken_flat.sol\":28431:28435  role */\n      dup4\n        /* \"LiriaToken_flat.sol\":28419:28459  RoleRevoked(role, account, _msgSender()) */\n      0xf6391f5c32d9c69d2a47ea670b442974b53935d1edc7fd64eb21e047a839171b\n      mload(0x40)\n      mload(0x40)\n      dup1\n      swap2\n      sub\n      swap1\n      log4\n        /* \"LiriaToken_flat.sol\":28321:28470  if (hasRole(role, account)) {... */\n    tag_211:\n        /* \"LiriaToken_flat.sol\":28242:28476  function _revokeRole(bytes32 role, address account) internal virtual {... */\n      pop\n      pop\n      jump\t// out\n        /* \"LiriaToken_flat.sol\":20278:20374  function _msgSender() internal view virtual returns (address) {... */\n    tag_143:\n        /* \"LiriaToken_flat.sol\":20331:20338  address */\n      0x00\n        /* \"LiriaToken_flat.sol\":20357:20367  msg.sender */\n      caller\n        /* \"LiriaToken_flat.sol\":20350:20367  return msg.sender */\n      swap1\n      pop\n        /* \"LiriaToken_flat.sol\":20278:20374  function _msgSender() internal view virtual returns (address) {... */\n      swap1\n      jump\t// out\n        /* \"LiriaToken_flat.sol\":42411:42781  function _approve(... */\n    tag_145:\n        /* \"LiriaToken_flat.sol\":42559:42560  0 */\n      0x00\n        /* \"LiriaToken_flat.sol\":42542:42561  owner != address(0) */\n      0xffffffffffffffffffffffffffffffffffffffff\n      and\n        /* \"LiriaToken_flat.sol\":42542:42547  owner */\n      dup4\n        /* \"LiriaToken_flat.sol\":42542:42561  owner != address(0) */\n      0xffffffffffffffffffffffffffffffffffffffff\n      and\n      eq\n      iszero\n        /* \"LiriaToken_flat.sol\":42534:42602  require(owner != address(0), \"ERC20: approve from the zero address\") */\n      tag_215\n      jumpi\n      mload(0x40)\n      0x08c379a000000000000000000000000000000000000000000000000000000000\n      dup2\n      mstore\n      0x04\n      add\n      tag_216\n      swap1\n      tag_217\n      jump\t// in\n    tag_216:\n      mload(0x40)\n      dup1\n      swap2\n      sub\n      swap1\n      revert\n    tag_215:\n        /* \"LiriaToken_flat.sol\":42639:42640  0 */\n      0x00\n        /* \"LiriaToken_flat.sol\":42620:42641  spender != address(0) */\n      0xffffffffffffffffffffffffffffffffffffffff\n      and\n        /* \"LiriaToken_flat.sol\":42620:42627  spender */\n      dup3\n        /* \"LiriaToken_flat.sol\":42620:42641  spender != address(0) */\n      0xffffffffffffffffffffffffffffffffffffffff\n      and\n      eq\n      iszero\n        /* \"LiriaToken_flat.sol\":42612:42680  require(spender != address(0), \"ERC20: approve to the zero address\") */\n      tag_218\n      jumpi\n      mload(0x40)\n      0x08c379a000000000000000000000000000000000000000000000000000000000\n      dup2\n      mstore\n      0x04\n      add\n      tag_219\n      swap1\n      tag_220\n      jump\t// in\n    tag_219:\n      mload(0x40)\n      dup1\n      swap2\n      sub\n      swap1\n      revert\n    tag_218:\n        /* \"LiriaToken_flat.sol\":42721:42727  amount */\n      dup1\n        /* \"LiriaToken_flat.sol\":42691:42702  _allowances */\n      0x01\n        /* \"LiriaToken_flat.sol\":42691:42709  _allowances[owner] */\n      0x00\n        /* \"LiriaToken_flat.sol\":42703:42708  owner */\n      dup6\n        /* \"LiriaToken_flat.sol\":42691:42709  _allowances[owner] */\n      0xffffffffffffffffffffffffffffffffffffffff\n      and\n      0xffffffffffffffffffffffffffffffffffffffff\n      and\n      dup2\n      mstore\n      0x20\n      add\n      swap1\n      dup2\n      mstore\n      0x20\n      add\n      0x00\n      keccak256\n        /* \"LiriaToken_flat.sol\":42691:42718  _allowances[owner][spender] */\n      0x00\n        /* \"LiriaToken_flat.sol\":42710:42717  spender */\n      dup5\n        /* \"LiriaToken_flat.sol\":42691:42718  _allowances[owner][spender] */\n      0xffffffffffffffffffffffffffffffffffffffff\n      and\n      0xffffffffffffffffffffffffffffffffffffffff\n      and\n      dup2\n      mstore\n      0x20\n      add\n      swap1\n      dup2\n      mstore\n      0x20\n      add\n      0x00\n      keccak256\n        /* \"LiriaToken_flat.sol\":42691:42727  _allowances[owner][spender] = amount */\n      dup2\n      swap1\n      sstore\n      pop\n        /* \"LiriaToken_flat.sol\":42758:42765  spender */\n      dup2\n        /* \"LiriaToken_flat.sol\":42742:42774  Approval(owner, spender, amount) */\n      0xffffffffffffffffffffffffffffffffffffffff\n      and\n        /* \"LiriaToken_flat.sol\":42751:42756  owner */\n      dup4\n        /* \"LiriaToken_flat.sol\":42742:42774  Approval(owner, spender, amount) */\n      0xffffffffffffffffffffffffffffffffffffffff\n      and\n      0x8c5be1e5ebec7d5bd14f71427d1e84f3dd0314c0f7b2291e5b200ac8c7c3b925\n        /* \"LiriaToken_flat.sol\":42767:42773  amount */\n      dup4\n        /* \"LiriaToken_flat.sol\":42742:42774  Approval(owner, spender, amount) */\n      mload(0x40)\n      tag_221\n      swap2\n      swap1\n      tag_50\n      jump\t// in\n    tag_221:\n      mload(0x40)\n      dup1\n      swap2\n      sub\n      swap1\n      log3\n        /* \"LiriaToken_flat.sol\":42411:42781  function _approve(... */\n      pop\n      pop\n      pop\n      jump\t// out\n        /* \"LiriaToken_flat.sol\":43062:43503  function _spendAllowance(... */\n    tag_150:\n        /* \"LiriaToken_flat.sol\":43192:43216  uint256 currentAllowance */\n      0x00\n        /* \"LiriaToken_flat.sol\":43219:43244  allowance(owner, spender) */\n      tag_223\n        /* \"LiriaToken_flat.sol\":43229:43234  owner */\n      dup5\n        /* \"LiriaToken_flat.sol\":43236:43243  spender */\n      dup5\n        /* \"LiriaToken_flat.sol\":43219:43228  allowance */\n      tag_115\n        /* \"LiriaToken_flat.sol\":43219:43244  allowance(owner, spender) */\n      jump\t// in\n    tag_223:\n        /* \"LiriaToken_flat.sol\":43192:43244  uint256 currentAllowance = allowance(owner, spender) */\n      swap1\n      pop\n        /* \"LiriaToken_flat.sol\":43278:43295  type(uint256).max */\n      0xffffffffffffffffffffffffffffffffffffffffffffffffffffffffffffffff\n        /* \"LiriaToken_flat.sol\":43258:43274  currentAllowance */\n      dup2\n        /* \"LiriaToken_flat.sol\":43258:43295  currentAllowance != type(uint256).max */\n      eq\n        /* \"LiriaToken_flat.sol\":43254:43497  if (currentAllowance != type(uint256).max) {... */\n      tag_224\n      jumpi\n        /* \"LiriaToken_flat.sol\":43339:43345  amount */\n      dup2\n        /* \"LiriaToken_flat.sol\":43319:43335  currentAllowance */\n      dup2\n        /* \"LiriaToken_flat.sol\":43319:43345  currentAllowance >= amount */\n      lt\n      iszero\n        /* \"LiriaToken_flat.sol\":43311:43379  require(currentAllowance >= amount, \"ERC20: insufficient allowance\") */\n      tag_225\n      jumpi\n      mload(0x40)\n      0x08c379a000000000000000000000000000000000000000000000000000000000\n      dup2\n      mstore\n      0x04\n      add\n      tag_226\n      swap1\n      tag_227\n      jump\t// in\n    tag_226:\n      mload(0x40)\n      dup1\n      swap2\n      sub\n      swap1\n      revert\n    tag_225:\n        /* \"LiriaToken_flat.sol\":43421:43472  _approve(owner, spender, currentAllowance - amount) */\n      tag_228\n        /* \"LiriaToken_flat.sol\":43430:43435  owner */\n      dup5\n        /* \"LiriaToken_flat.sol\":43437:43444  spender */\n      dup5\n        /* \"LiriaToken_flat.sol\":43465:43471  amount */\n      dup5\n        /* \"LiriaToken_flat.sol\":43446:43462  currentAllowance */\n      dup5\n        /* \"LiriaToken_flat.sol\":43446:43471  currentAllowance - amount */\n      sub\n        /* \"LiriaToken_flat.sol\":43421:43429  _approve */\n      tag_145\n        /* \"LiriaToken_flat.sol\":43421:43472  _approve(owner, spender, currentAllowance - amount) */\n      jump\t// in\n    tag_228:\n        /* \"LiriaToken_flat.sol\":43254:43497  if (currentAllowance != type(uint256).max) {... */\n    tag_224:\n        /* \"LiriaToken_flat.sol\":43182:43503  {... */\n      pop\n        /* \"LiriaToken_flat.sol\":43062:43503  function _spendAllowance(... */\n      pop\n      pop\n      pop\n      jump\t// out\n        /* \"LiriaToken_flat.sol\":39380:40198  function _transfer(... */\n    tag_152:\n        /* \"LiriaToken_flat.sol\":39522:39523  0 */\n      0x00\n        /* \"LiriaToken_flat.sol\":39506:39524  from != address(0) */\n      0xffffffffffffffffffffffffffffffffffffffff\n      and\n        /* \"LiriaToken_flat.sol\":39506:39510  from */\n      dup4\n        /* \"LiriaToken_flat.sol\":39506:39524  from != address(0) */\n      0xffffffffffffffffffffffffffffffffffffffff\n      and\n      eq\n      iszero\n        /* \"LiriaToken_flat.sol\":39498:39566  require(from != address(0), \"ERC20: transfer from the zero address\") */\n      tag_230\n      jumpi\n      mload(0x40)\n      0x08c379a000000000000000000000000000000000000000000000000000000000\n      dup2\n      mstore\n      0x04\n      add\n      tag_231\n      swap1\n      tag_232\n      jump\t// in\n    tag_231:\n      mload(0x40)\n      dup1\n      swap2\n      sub\n      swap1\n      revert\n    tag_230:\n        /* \"LiriaToken_flat.sol\":39598:39599  0 */\n      0x00\n        /* \"LiriaToken_flat.sol\":39584:39600  to != address(0) */\n      0xffffffffffffffffffffffffffffffffffffffff\n      and\n        /* \"LiriaToken_flat.sol\":39584:39586  to */\n      dup3\n        /* \"LiriaToken_flat.sol\":39584:39600  to != address(0) */\n      0xffffffffffffffffffffffffffffffffffffffff\n      and\n      eq\n      iszero\n        /* \"LiriaToken_flat.sol\":39576:39640  require(to != address(0), \"ERC20: transfer to the zero address\") */\n      tag_233\n      jumpi\n      mload(0x40)\n      0x08c379a000000000000000000000000000000000000000000000000000000000\n      dup2\n      mstore\n      0x04\n      add\n      tag_234\n      swap1\n      tag_235\n      jump\t// in\n    tag_234:\n      mload(0x40)\n      dup1\n      swap2\n      sub\n      swap1\n      revert\n    tag_233:\n        /* \"LiriaToken_flat.sol\":39651:39689  _beforeTokenTransfer(from, to, amount) */\n      tag_236\n        /* \"LiriaToken_flat.sol\":39672:39676  from */\n      dup4\n        /* \"LiriaToken_flat.sol\":39678:39680  to */\n      dup4\n        /* \"LiriaToken_flat.sol\":39682:39688  amount */\n      dup4\n        /* \"LiriaToken_flat.sol\":39651:39671  _beforeTokenTransfer */\n      tag_237\n        /* \"LiriaToken_flat.sol\":39651:39689  _beforeTokenTransfer(from, to, amount) */\n      jump\t// in\n    tag_236:\n        /* \"LiriaToken_flat.sol\":39700:39719  uint256 fromBalance */\n      0x00\n        /* \"LiriaToken_flat.sol\":39722:39731  _balances */\n      dup1\n        /* \"LiriaToken_flat.sol\":39722:39737  _balances[from] */\n      0x00\n        /* \"LiriaToken_flat.sol\":39732:39736  from */\n      dup6\n        /* \"LiriaToken_flat.sol\":39722:39737  _balances[from] */\n      0xffffffffffffffffffffffffffffffffffffffff\n      and\n      0xffffffffffffffffffffffffffffffffffffffff\n      and\n      dup2\n      mstore\n      0x20\n      add\n      swap1\n      dup2\n      mstore\n      0x20\n      add\n      0x00\n      keccak256\n      sload\n        /* \"LiriaToken_flat.sol\":39700:39737  uint256 fromBalance = _balances[from] */\n      swap1\n      pop\n        /* \"LiriaToken_flat.sol\":39770:39776  amount */\n      dup2\n        /* \"LiriaToken_flat.sol\":39755:39766  fromBalance */\n      dup2\n        /* \"LiriaToken_flat.sol\":39755:39776  fromBalance >= amount */\n      lt\n      iszero\n        /* \"LiriaToken_flat.sol\":39747:39819  require(fromBalance >= amount, \"ERC20: transfer amount exceeds balance\") */\n      tag_238\n      jumpi\n      mload(0x40)\n      0x08c379a000000000000000000000000000000000000000000000000000000000\n      dup2\n      mstore\n      0x04\n      add\n      tag_239\n      swap1\n      tag_240\n      jump\t// in\n    tag_239:\n      mload(0x40)\n      dup1\n      swap2\n      sub\n      swap1\n      revert\n    tag_238:\n        /* \"LiriaToken_flat.sol\":39885:39891  amount */\n      dup2\n        /* \"LiriaToken_flat.sol\":39871:39882  fromBalance */\n      dup2\n        /* \"LiriaToken_flat.sol\":39871:39891  fromBalance - amount */\n      sub\n        /* \"LiriaToken_flat.sol\":39853:39862  _balances */\n      0x00\n        /* \"LiriaToken_flat.sol\":39853:39868  _balances[from] */\n      dup1\n        /* \"LiriaToken_flat.sol\":39863:39867  from */\n      dup7\n        /* \"LiriaToken_flat.sol\":39853:39868  _balances[from] */\n      0xffffffffffffffffffffffffffffffffffffffff\n      and\n      0xffffffffffffffffffffffffffffffffffffffff\n      and\n      dup2\n      mstore\n      0x20\n      add\n      swap1\n      dup2\n      mstore\n      0x20\n      add\n      0x00\n      keccak256\n        /* \"LiriaToken_flat.sol\":39853:39891  _balances[from] = fromBalance - amount */\n      dup2\n      swap1\n      sstore\n      pop\n        /* \"LiriaToken_flat.sol\":40085:40091  amount */\n      dup2\n        /* \"LiriaToken_flat.sol\":40068:40077  _balances */\n      0x00\n        /* \"LiriaToken_flat.sol\":40068:40081  _balances[to] */\n      dup1\n        /* \"LiriaToken_flat.sol\":40078:40080  to */\n      dup6\n        /* \"LiriaToken_flat.sol\":40068:40081  _balances[to] */\n      0xffffffffffffffffffffffffffffffffffffffff\n      and\n      0xffffffffffffffffffffffffffffffffffffffff\n      and\n      dup2\n      mstore\n      0x20\n      add\n      swap1\n      dup2\n      mstore\n      0x20\n      add\n      0x00\n      keccak256\n      0x00\n        /* \"LiriaToken_flat.sol\":40068:40091  _balances[to] += amount */\n      dup3\n      dup3\n      sload\n      add\n      swap3\n      pop\n      pop\n      dup2\n      swap1\n      sstore\n      pop\n        /* \"LiriaToken_flat.sol\":40132:40134  to */\n      dup3\n        /* \"LiriaToken_flat.sol\":40117:40143  Transfer(from, to, amount) */\n      0xffffffffffffffffffffffffffffffffffffffff\n      and\n        /* \"LiriaToken_flat.sol\":40126:40130  from */\n      dup5\n        /* \"LiriaToken_flat.sol\":40117:40143  Transfer(from, to, amount) */\n      0xffffffffffffffffffffffffffffffffffffffff\n      and\n      0xddf252ad1be2c89b69c2b068fc378daa952ba7f163c4a11628f55a4df523b3ef\n        /* \"LiriaToken_flat.sol\":40136:40142  amount */\n      dup5\n        /* \"LiriaToken_flat.sol\":40117:40143  Transfer(from, to, amount) */\n      mload(0x40)\n      tag_241\n      swap2\n      swap1\n      tag_50\n      jump\t// in\n    tag_241:\n      mload(0x40)\n      dup1\n      swap2\n      sub\n      swap1\n      log3\n        /* \"LiriaToken_flat.sol\":40154:40191  _afterTokenTransfer(from, to, amount) */\n      tag_242\n        /* \"LiriaToken_flat.sol\":40174:40178  from */\n      dup5\n        /* \"LiriaToken_flat.sol\":40180:40182  to */\n      dup5\n        /* \"LiriaToken_flat.sol\":40184:40190  amount */\n      dup5\n        /* \"LiriaToken_flat.sol\":40154:40173  _afterTokenTransfer */\n      tag_243\n        /* \"LiriaToken_flat.sol\":40154:40191  _afterTokenTransfer(from, to, amount) */\n      jump\t// in\n    tag_242:\n        /* \"LiriaToken_flat.sol\":39488:40198  {... */\n      pop\n        /* \"LiriaToken_flat.sol\":39380:40198  function _transfer(... */\n      pop\n      pop\n      pop\n      jump\t// out\n        /* \"LiriaToken_flat.sol\":27838:28071  function _grantRole(bytes32 role, address account) internal virtual {... */\n    tag_159:\n        /* \"LiriaToken_flat.sol\":27921:27943  hasRole(role, account) */\n      tag_245\n        /* \"LiriaToken_flat.sol\":27929:27933  role */\n      dup3\n        /* \"LiriaToken_flat.sol\":27935:27942  account */\n      dup3\n        /* \"LiriaToken_flat.sol\":27921:27928  hasRole */\n      tag_90\n        /* \"LiriaToken_flat.sol\":27921:27943  hasRole(role, account) */\n      jump\t// in\n    tag_245:\n        /* \"LiriaToken_flat.sol\":27916:28065  if (!hasRole(role, account)) {... */\n      tag_246\n      jumpi\n        /* \"LiriaToken_flat.sol\":27991:27995  true */\n      0x01\n        /* \"LiriaToken_flat.sol\":27959:27965  _roles */\n      0x05\n        /* \"LiriaToken_flat.sol\":27959:27971  _roles[role] */\n      0x00\n        /* \"LiriaToken_flat.sol\":27966:27970  role */\n      dup5\n        /* \"LiriaToken_flat.sol\":27959:27971  _roles[role] */\n      dup2\n      mstore\n      0x20\n      add\n      swap1\n      dup2\n      mstore\n      0x20\n      add\n      0x00\n      keccak256\n        /* \"LiriaToken_flat.sol\":27959:27979  _roles[role].members */\n      0x00\n      add\n        /* \"LiriaToken_flat.sol\":27959:27988  _roles[role].members[account] */\n      0x00\n        /* \"LiriaToken_flat.sol\":27980:27987  account */\n      dup4\n        /* \"LiriaToken_flat.sol\":27959:27988  _roles[role].members[account] */\n      0xffffffffffffffffffffffffffffffffffffffff\n      and\n      0xffffffffffffffffffffffffffffffffffffffff\n      and\n      dup2\n      mstore\n      0x20\n      add\n      swap1\n      dup2\n      mstore\n      0x20\n      add\n      0x00\n      keccak256\n      0x00\n        /* \"LiriaToken_flat.sol\":27959:27995  _roles[role].members[account] = true */\n      0x0100\n      exp\n      dup2\n      sload\n      dup2\n      0xff\n      mul\n      not\n      and\n      swap1\n      dup4\n      iszero\n      iszero\n      mul\n      or\n      swap1\n      sstore\n      pop\n        /* \"LiriaToken_flat.sol\":28041:28053  _msgSender() */\n      tag_247\n        /* \"LiriaToken_flat.sol\":28041:28051  _msgSender */\n      tag_143\n        /* \"LiriaToken_flat.sol\":28041:28053  _msgSender() */\n      jump\t// in\n    tag_247:\n        /* \"LiriaToken_flat.sol\":28014:28054  RoleGranted(role, account, _msgSender()) */\n      0xffffffffffffffffffffffffffffffffffffffff\n      and\n        /* \"LiriaToken_flat.sol\":28032:28039  account */\n      dup2\n        /* \"LiriaToken_flat.sol\":28014:28054  RoleGranted(role, account, _msgSender()) */\n      0xffffffffffffffffffffffffffffffffffffffff\n      and\n        /* \"LiriaToken_flat.sol\":28026:28030  role */\n      dup4\n        /* \"LiriaToken_flat.sol\":28014:28054  RoleGranted(role, account, _msgSender()) */\n      0x2f8788117e7eff1d82e926ec794901d17c78024a50270940304540a733656f0d\n      mload(0x40)\n      mload(0x40)\n      dup1\n      swap2\n      sub\n      swap1\n      log4\n        /* \"LiriaToken_flat.sol\":27916:28065  if (!hasRole(role, account)) {... */\n    tag_246:\n        /* \"LiriaToken_flat.sol\":27838:28071  function _grantRole(bytes32 role, address account) internal virtual {... */\n      pop\n      pop\n      jump\t// out\n        /* \"LiriaToken_flat.sol\":40474:41009  function _mint(address account, uint256 amount) internal virtual {... */\n    tag_177:\n        /* \"LiriaToken_flat.sol\":40576:40577  0 */\n      0x00\n        /* \"LiriaToken_flat.sol\":40557:40578  account != address(0) */\n      0xffffffffffffffffffffffffffffffffffffffff\n      and\n        /* \"LiriaToken_flat.sol\":40557:40564  account */\n      dup3\n        /* \"LiriaToken_flat.sol\":40557:40578  account != address(0) */\n      0xffffffffffffffffffffffffffffffffffffffff\n      and\n      eq\n      iszero\n        /* \"LiriaToken_flat.sol\":40549:40614  require(account != address(0), \"ERC20: mint to the zero address\") */\n      tag_249\n      jumpi\n      mload(0x40)\n      0x08c379a000000000000000000000000000000000000000000000000000000000\n      dup2\n      mstore\n      0x04\n      add\n      tag_250\n      swap1\n      tag_251\n      jump\t// in\n    tag_250:\n      mload(0x40)\n      dup1\n      swap2\n      sub\n      swap1\n      revert\n    tag_249:\n        /* \"LiriaToken_flat.sol\":40625:40674  _beforeTokenTransfer(address(0), account, amount) */\n      tag_252\n        /* \"LiriaToken_flat.sol\":40654:40655  0 */\n      0x00\n        /* \"LiriaToken_flat.sol\":40658:40665  account */\n      dup4\n        /* \"LiriaToken_flat.sol\":40667:40673  amount */\n      dup4\n        /* \"LiriaToken_flat.sol\":40625:40645  _beforeTokenTransfer */\n      tag_237\n        /* \"LiriaToken_flat.sol\":40625:40674  _beforeTokenTransfer(address(0), account, amount) */\n      jump\t// in\n    tag_252:\n        /* \"LiriaToken_flat.sol\":40701:40707  amount */\n      dup1\n        /* \"LiriaToken_flat.sol\":40685:40697  _totalSupply */\n      0x02\n      0x00\n        /* \"LiriaToken_flat.sol\":40685:40707  _totalSupply += amount */\n      dup3\n      dup3\n      sload\n      tag_253\n      swap2\n      swap1\n      tag_172\n      jump\t// in\n    tag_253:\n      swap3\n      pop\n      pop\n      dup2\n      swap1\n      sstore\n      pop\n        /* \"LiriaToken_flat.sol\":40875:40881  amount */\n      dup1\n        /* \"LiriaToken_flat.sol\":40853:40862  _balances */\n      0x00\n        /* \"LiriaToken_flat.sol\":40853:40871  _balances[account] */\n      dup1\n        /* \"LiriaToken_flat.sol\":40863:40870  account */\n      dup5\n        /* \"LiriaToken_flat.sol\":40853:40871  _balances[account] */\n      0xffffffffffffffffffffffffffffffffffffffff\n      and\n      0xffffffffffffffffffffffffffffffffffffffff\n      and\n      dup2\n      mstore\n      0x20\n      add\n      swap1\n      dup2\n      mstore\n      0x20\n      add\n      0x00\n      keccak256\n      0x00\n        /* \"LiriaToken_flat.sol\":40853:40881  _balances[account] += amount */\n      dup3\n      dup3\n      sload\n      add\n      swap3\n      pop\n      pop\n      dup2\n      swap1\n      sstore\n      pop\n        /* \"LiriaToken_flat.sol\":40927:40934  account */\n      dup2\n        /* \"LiriaToken_flat.sol\":40906:40943  Transfer(address(0), account, amount) */\n      0xffffffffffffffffffffffffffffffffffffffff\n      and\n        /* \"LiriaToken_flat.sol\":40923:40924  0 */\n      0x00\n        /* \"LiriaToken_flat.sol\":40906:40943  Transfer(address(0), account, amount) */\n      0xffffffffffffffffffffffffffffffffffffffff\n      and\n      0xddf252ad1be2c89b69c2b068fc378daa952ba7f163c4a11628f55a4df523b3ef\n        /* \"LiriaToken_flat.sol\":40936:40942  amount */\n      dup4\n        /* \"LiriaToken_flat.sol\":40906:40943  Transfer(address(0), account, amount) */\n      mload(0x40)\n      tag_254\n      swap2\n      swap1\n      tag_50\n      jump\t// in\n    tag_254:\n      mload(0x40)\n      dup1\n      swap2\n      sub\n      swap1\n      log3\n        /* \"LiriaToken_flat.sol\":40954:41002  _afterTokenTransfer(address(0), account, amount) */\n      tag_255\n        /* \"LiriaToken_flat.sol\":40982:40983  0 */\n      0x00\n        /* \"LiriaToken_flat.sol\":40986:40993  account */\n      dup4\n        /* \"LiriaToken_flat.sol\":40995:41001  amount */\n      dup4\n        /* \"LiriaToken_flat.sol\":40954:40973  _afterTokenTransfer */\n      tag_243\n        /* \"LiriaToken_flat.sol\":40954:41002  _afterTokenTransfer(address(0), account, amount) */\n      jump\t// in\n    tag_255:\n        /* \"LiriaToken_flat.sol\":40474:41009  function _mint(address account, uint256 amount) internal virtual {... */\n      pop\n      pop\n      jump\t// out\n        /* \"LiriaToken_flat.sol\":24095:24574  function _checkRole(bytes32 role, address account) internal view virtual {... */\n    tag_206:\n        /* \"LiriaToken_flat.sol\":24183:24205  hasRole(role, account) */\n      tag_257\n        /* \"LiriaToken_flat.sol\":24191:24195  role */\n      dup3\n        /* \"LiriaToken_flat.sol\":24197:24204  account */\n      dup3\n        /* \"LiriaToken_flat.sol\":24183:24190  hasRole */\n      tag_90\n        /* \"LiriaToken_flat.sol\":24183:24205  hasRole(role, account) */\n      jump\t// in\n    tag_257:\n        /* \"LiriaToken_flat.sol\":24178:24568  if (!hasRole(role, account)) {... */\n      tag_258\n      jumpi\n        /* \"LiriaToken_flat.sol\":24366:24394  Strings.toHexString(account) */\n      tag_259\n        /* \"LiriaToken_flat.sol\":24386:24393  account */\n      dup2\n        /* \"LiriaToken_flat.sol\":24366:24385  Strings.toHexString */\n      tag_260\n        /* \"LiriaToken_flat.sol\":24366:24394  Strings.toHexString(account) */\n      jump\t// in\n    tag_259:\n        /* \"LiriaToken_flat.sol\":24465:24503  Strings.toHexString(uint256(role), 32) */\n      tag_261\n        /* \"LiriaToken_flat.sol\":24493:24497  role */\n      dup4\n        /* \"LiriaToken_flat.sol\":24485:24498  uint256(role) */\n      0x00\n      shr\n        /* \"LiriaToken_flat.sol\":24500:24502  32 */\n      0x20\n        /* \"LiriaToken_flat.sol\":24465:24484  Strings.toHexString */\n      tag_262\n        /* \"LiriaToken_flat.sol\":24465:24503  Strings.toHexString(uint256(role), 32) */\n      jump\t// in\n    tag_261:\n        /* \"LiriaToken_flat.sol\":24273:24525  abi.encodePacked(... */\n      add(0x20, mload(0x40))\n      tag_263\n      swap3\n      swap2\n      swap1\n      tag_264\n      jump\t// in\n    tag_263:\n      mload(0x40)\n      0x20\n      dup2\n      dup4\n      sub\n      sub\n      dup2\n      mstore\n      swap1\n      0x40\n      mstore\n        /* \"LiriaToken_flat.sol\":24221:24557  revert(... */\n      mload(0x40)\n      0x08c379a000000000000000000000000000000000000000000000000000000000\n      dup2\n      mstore\n      0x04\n      add\n      tag_265\n      swap2\n      swap1\n      tag_37\n      jump\t// in\n    tag_265:\n      mload(0x40)\n      dup1\n      swap2\n      sub\n      swap1\n      revert\n        /* \"LiriaToken_flat.sol\":24178:24568  if (!hasRole(role, account)) {... */\n    tag_258:\n        /* \"LiriaToken_flat.sol\":24095:24574  function _checkRole(bytes32 role, address account) internal view virtual {... */\n      pop\n      pop\n      jump\t// out\n        /* \"LiriaToken_flat.sol\":44087:44208  function _beforeTokenTransfer(... */\n    tag_237:\n      pop\n      pop\n      pop\n      jump\t// out\n        /* \"LiriaToken_flat.sol\":44796:44916  function _afterTokenTransfer(... */\n    tag_243:\n      pop\n      pop\n      pop\n      jump\t// out\n        /* \"LiriaToken_flat.sol\":16514:16663  function toHexString(address addr) internal pure returns (string memory) {... */\n    tag_260:\n        /* \"LiriaToken_flat.sol\":16572:16585  string memory */\n      0x60\n        /* \"LiriaToken_flat.sol\":16604:16656  toHexString(uint256(uint160(addr)), _ADDRESS_LENGTH) */\n      tag_269\n        /* \"LiriaToken_flat.sol\":16632:16636  addr */\n      dup3\n        /* \"LiriaToken_flat.sol\":16616:16638  uint256(uint160(addr)) */\n      0xffffffffffffffffffffffffffffffffffffffff\n      and\n        /* \"LiriaToken_flat.sol\":14723:14725  20 */\n      0x14\n        /* \"LiriaToken_flat.sol\":16604:16656  toHexString(uint256(uint160(addr)), _ADDRESS_LENGTH) */\n      0xff\n      and\n        /* \"LiriaToken_flat.sol\":16604:16615  toHexString */\n      tag_262\n        /* \"LiriaToken_flat.sol\":16604:16656  toHexString(uint256(uint160(addr)), _ADDRESS_LENGTH) */\n      jump\t// in\n    tag_269:\n        /* \"LiriaToken_flat.sol\":16597:16656  return toHexString(uint256(uint160(addr)), _ADDRESS_LENGTH) */\n      swap1\n      pop\n        /* \"LiriaToken_flat.sol\":16514:16663  function toHexString(address addr) internal pure returns (string memory) {... */\n      swap2\n      swap1\n      pop\n      jump\t// out\n        /* \"LiriaToken_flat.sol\":15925:16362  function toHexString(uint256 value, uint256 length) internal pure returns (string memory) {... */\n    tag_262:\n        /* \"LiriaToken_flat.sol\":16000:16013  string memory */\n      0x60\n        /* \"LiriaToken_flat.sol\":16025:16044  bytes memory buffer */\n      0x00\n        /* \"LiriaToken_flat.sol\":16070:16071  2 */\n      0x02\n        /* \"LiriaToken_flat.sol\":16061:16067  length */\n      dup4\n        /* \"LiriaToken_flat.sol\":16057:16058  2 */\n      0x02\n        /* \"LiriaToken_flat.sol\":16057:16067  2 * length */\n      tag_271\n      swap2\n      swap1\n      tag_272\n      jump\t// in\n    tag_271:\n        /* \"LiriaToken_flat.sol\":16057:16071  2 * length + 2 */\n      tag_273\n      swap2\n      swap1\n      tag_172\n      jump\t// in\n    tag_273:\n        /* \"LiriaToken_flat.sol\":16047:16072  new bytes(2 * length + 2) */\n      0xffffffffffffffff\n      dup2\n      gt\n      iszero\n      tag_274\n      jumpi\n      tag_275\n      tag_276\n      jump\t// in\n    tag_275:\n    tag_274:\n      mload(0x40)\n      swap1\n      dup1\n      dup3\n      mstore\n      dup1\n      0x1f\n      add\n      not(0x1f)\n      and\n      0x20\n      add\n      dup3\n      add\n      0x40\n      mstore\n      dup1\n      iszero\n      tag_277\n      jumpi\n      dup2\n      0x20\n      add\n      0x01\n      dup3\n      mul\n      dup1\n      calldatasize\n      dup4\n      calldatacopy\n      dup1\n      dup3\n      add\n      swap2\n      pop\n      pop\n      swap1\n      pop\n    tag_277:\n      pop\n        /* \"LiriaToken_flat.sol\":16025:16072  bytes memory buffer = new bytes(2 * length + 2) */\n      swap1\n      pop\n        /* \"LiriaToken_flat.sol\":16082:16097  buffer[0] = \"0\" */\n      0x3000000000000000000000000000000000000000000000000000000000000000\n        /* \"LiriaToken_flat.sol\":16082:16088  buffer */\n      dup2\n        /* \"LiriaToken_flat.sol\":16089:16090  0 */\n      0x00\n        /* \"LiriaToken_flat.sol\":16082:16091  buffer[0] */\n      dup2\n      mload\n      dup2\n      lt\n      tag_278\n      jumpi\n      tag_279\n      tag_280\n      jump\t// in\n    tag_279:\n    tag_278:\n      0x20\n      add\n      add\n        /* \"LiriaToken_flat.sol\":16082:16097  buffer[0] = \"0\" */\n      swap1\n      not(0xffffffffffffffffffffffffffffffffffffffffffffffffffffffffffffff)\n      and\n      swap1\n      dup2\n      0x00\n      byte\n      swap1\n      mstore8\n      pop\n        /* \"LiriaToken_flat.sol\":16107:16122  buffer[1] = \"x\" */\n      0x7800000000000000000000000000000000000000000000000000000000000000\n        /* \"LiriaToken_flat.sol\":16107:16113  buffer */\n      dup2\n        /* \"LiriaToken_flat.sol\":16114:16115  1 */\n      0x01\n        /* \"LiriaToken_flat.sol\":16107:16116  buffer[1] */\n      dup2\n      mload\n      dup2\n      lt\n      tag_281\n      jumpi\n      tag_282\n      tag_280\n      jump\t// in\n    tag_282:\n    tag_281:\n      0x20\n      add\n      add\n        /* \"LiriaToken_flat.sol\":16107:16122  buffer[1] = \"x\" */\n      swap1\n      not(0xffffffffffffffffffffffffffffffffffffffffffffffffffffffffffffff)\n      and\n      swap1\n      dup2\n      0x00\n      byte\n      swap1\n      mstore8\n      pop\n        /* \"LiriaToken_flat.sol\":16137:16146  uint256 i */\n      0x00\n        /* \"LiriaToken_flat.sol\":16162:16163  1 */\n      0x01\n        /* \"LiriaToken_flat.sol\":16153:16159  length */\n      dup5\n        /* \"LiriaToken_flat.sol\":16149:16150  2 */\n      0x02\n        /* \"LiriaToken_flat.sol\":16149:16159  2 * length */\n      tag_286\n      swap2\n      swap1\n      tag_272\n      jump\t// in\n    tag_286:\n        /* \"LiriaToken_flat.sol\":16149:16163  2 * length + 1 */\n      tag_287\n      swap2\n      swap1\n      tag_172\n      jump\t// in\n    tag_287:\n        /* \"LiriaToken_flat.sol\":16137:16163  uint256 i = 2 * length + 1 */\n      swap1\n      pop\n        /* \"LiriaToken_flat.sol\":16132:16260  for (uint256 i = 2 * length + 1; i > 1; --i) {... */\n    tag_283:\n        /* \"LiriaToken_flat.sol\":16169:16170  1 */\n      0x01\n        /* \"LiriaToken_flat.sol\":16165:16166  i */\n      dup2\n        /* \"LiriaToken_flat.sol\":16165:16170  i > 1 */\n      gt\n        /* \"LiriaToken_flat.sol\":16132:16260  for (uint256 i = 2 * length + 1; i > 1; --i) {... */\n      iszero\n      tag_284\n      jumpi\n        /* \"LiriaToken_flat.sol\":16203:16211  _SYMBOLS */\n      0x3031323334353637383961626364656600000000000000000000000000000000\n        /* \"LiriaToken_flat.sol\":16220:16223  0xf */\n      0x0f\n        /* \"LiriaToken_flat.sol\":16212:16217  value */\n      dup7\n        /* \"LiriaToken_flat.sol\":16212:16223  value & 0xf */\n      and\n        /* \"LiriaToken_flat.sol\":16203:16224  _SYMBOLS[value & 0xf] */\n      0x10\n      dup2\n      lt\n      tag_288\n      jumpi\n      tag_289\n      tag_280\n      jump\t// in\n    tag_289:\n    tag_288:\n      byte\n      0xf8\n      shl\n        /* \"LiriaToken_flat.sol\":16191:16197  buffer */\n      dup3\n        /* \"LiriaToken_flat.sol\":16198:16199  i */\n      dup3\n        /* \"LiriaToken_flat.sol\":16191:16200  buffer[i] */\n      dup2\n      mload\n      dup2\n      lt\n      tag_290\n      jumpi\n      tag_291\n      tag_280\n      jump\t// in\n    tag_291:\n    tag_290:\n      0x20\n      add\n      add\n        /* \"LiriaToken_flat.sol\":16191:16224  buffer[i] = _SYMBOLS[value & 0xf] */\n      swap1\n      not(0xffffffffffffffffffffffffffffffffffffffffffffffffffffffffffffff)\n      and\n      swap1\n      dup2\n      0x00\n      byte\n      swap1\n      mstore8\n      pop\n        /* \"LiriaToken_flat.sol\":16248:16249  4 */\n      0x04\n        /* \"LiriaToken_flat.sol\":16238:16249  value >>= 4 */\n      dup6\n      swap1\n      shr\n      swap5\n      pop\n        /* \"LiriaToken_flat.sol\":16172:16175  --i */\n      dup1\n      tag_292\n      swap1\n      tag_293\n      jump\t// in\n    tag_292:\n      swap1\n      pop\n        /* \"LiriaToken_flat.sol\":16132:16260  for (uint256 i = 2 * length + 1; i > 1; --i) {... */\n      jump(tag_283)\n    tag_284:\n      pop\n        /* \"LiriaToken_flat.sol\":16286:16287  0 */\n      0x00\n        /* \"LiriaToken_flat.sol\":16277:16282  value */\n      dup5\n        /* \"LiriaToken_flat.sol\":16277:16287  value == 0 */\n      eq\n        /* \"LiriaToken_flat.sol\":16269:16324  require(value == 0, \"Strings: hex length insufficient\") */\n      tag_294\n      jumpi\n      mload(0x40)\n      0x08c379a000000000000000000000000000000000000000000000000000000000\n      dup2\n      mstore\n      0x04\n      add\n      tag_295\n      swap1\n      tag_296\n      jump\t// in\n    tag_295:\n      mload(0x40)\n      dup1\n      swap2\n      sub\n      swap1\n      revert\n    tag_294:\n        /* \"LiriaToken_flat.sol\":16348:16354  buffer */\n      dup1\n        /* \"LiriaToken_flat.sol\":16334:16355  return string(buffer) */\n      swap2\n      pop\n      pop\n        /* \"LiriaToken_flat.sol\":15925:16362  function toHexString(uint256 value, uint256 length) internal pure returns (string memory) {... */\n      swap3\n      swap2\n      pop\n      pop\n      jump\t// out\n        /* \"#utility.yul\":7:146   */\n    tag_298:\n        /* \"#utility.yul\":53:58   */\n      0x00\n        /* \"#utility.yul\":91:97   */\n      dup2\n        /* \"#utility.yul\":78:98   */\n      calldataload\n        /* \"#utility.yul\":69:98   */\n      swap1\n      pop\n        /* \"#utility.yul\":107:140   */\n      tag_300\n        /* \"#utility.yul\":134:139   */\n      dup2\n        /* \"#utility.yul\":107:140   */\n      tag_301\n      jump\t// in\n    tag_300:\n        /* \"#utility.yul\":7:146   */\n      swap3\n      swap2\n      pop\n      pop\n      jump\t// out\n        /* \"#utility.yul\":152:285   */\n    tag_302:\n        /* \"#utility.yul\":195:200   */\n      0x00\n        /* \"#utility.yul\":233:239   */\n      dup2\n        /* \"#utility.yul\":220:240   */\n      calldataload\n        /* \"#utility.yul\":211:240   */\n      swap1\n      pop\n        /* \"#utility.yul\":249:279   */\n      tag_304\n        /* \"#utility.yul\":273:278   */\n      dup2\n        /* \"#utility.yul\":249:279   */\n      tag_305\n      jump\t// in\n    tag_304:\n        /* \"#utility.yul\":152:285   */\n      swap3\n      swap2\n      pop\n      pop\n      jump\t// out\n        /* \"#utility.yul\":291:430   */\n    tag_306:\n        /* \"#utility.yul\":337:342   */\n      0x00\n        /* \"#utility.yul\":375:381   */\n      dup2\n        /* \"#utility.yul\":362:382   */\n      calldataload\n        /* \"#utility.yul\":353:382   */\n      swap1\n      pop\n        /* \"#utility.yul\":391:424   */\n      tag_308\n        /* \"#utility.yul\":418:423   */\n      dup2\n        /* \"#utility.yul\":391:424   */\n      tag_309\n      jump\t// in\n    tag_308:\n        /* \"#utility.yul\":291:430   */\n      swap3\n      swap2\n      pop\n      pop\n      jump\t// out\n        /* \"#utility.yul\":436:573   */\n    tag_310:\n        /* \"#utility.yul\":481:486   */\n      0x00\n        /* \"#utility.yul\":519:525   */\n      dup2\n        /* \"#utility.yul\":506:526   */\n      calldataload\n        /* \"#utility.yul\":497:526   */\n      swap1\n      pop\n        /* \"#utility.yul\":535:567   */\n      tag_312\n        /* \"#utility.yul\":561:566   */\n      dup2\n        /* \"#utility.yul\":535:567   */\n      tag_313\n      jump\t// in\n    tag_312:\n        /* \"#utility.yul\":436:573   */\n      swap3\n      swap2\n      pop\n      pop\n      jump\t// out\n        /* \"#utility.yul\":579:718   */\n    tag_314:\n        /* \"#utility.yul\":625:630   */\n      0x00\n        /* \"#utility.yul\":663:669   */\n      dup2\n        /* \"#utility.yul\":650:670   */\n      calldataload\n        /* \"#utility.yul\":641:670   */\n      swap1\n      pop\n        /* \"#utility.yul\":679:712   */\n      tag_316\n        /* \"#utility.yul\":706:711   */\n      dup2\n        /* \"#utility.yul\":679:712   */\n      tag_317\n      jump\t// in\n    tag_316:\n        /* \"#utility.yul\":579:718   */\n      swap3\n      swap2\n      pop\n      pop\n      jump\t// out\n        /* \"#utility.yul\":724:1053   */\n    tag_82:\n        /* \"#utility.yul\":783:789   */\n      0x00\n        /* \"#utility.yul\":832:834   */\n      0x20\n        /* \"#utility.yul\":820:829   */\n      dup3\n        /* \"#utility.yul\":811:818   */\n      dup5\n        /* \"#utility.yul\":807:830   */\n      sub\n        /* \"#utility.yul\":803:835   */\n      slt\n        /* \"#utility.yul\":800:919   */\n      iszero\n      tag_319\n      jumpi\n        /* \"#utility.yul\":838:917   */\n      tag_320\n      tag_321\n      jump\t// in\n    tag_320:\n        /* \"#utility.yul\":800:919   */\n    tag_319:\n        /* \"#utility.yul\":958:959   */\n      0x00\n        /* \"#utility.yul\":983:1036   */\n      tag_322\n        /* \"#utility.yul\":1028:1035   */\n      dup5\n        /* \"#utility.yul\":1019:1025   */\n      dup3\n        /* \"#utility.yul\":1008:1017   */\n      dup6\n        /* \"#utility.yul\":1004:1026   */\n      add\n        /* \"#utility.yul\":983:1036   */\n      tag_298\n      jump\t// in\n    tag_322:\n        /* \"#utility.yul\":973:1036   */\n      swap2\n      pop\n        /* \"#utility.yul\":929:1046   */\n      pop\n        /* \"#utility.yul\":724:1053   */\n      swap3\n      swap2\n      pop\n      pop\n      jump\t// out\n        /* \"#utility.yul\":1059:1533   */\n    tag_114:\n        /* \"#utility.yul\":1127:1133   */\n      0x00\n        /* \"#utility.yul\":1135:1141   */\n      dup1\n        /* \"#utility.yul\":1184:1186   */\n      0x40\n        /* \"#utility.yul\":1172:1181   */\n      dup4\n        /* \"#utility.yul\":1163:1170   */\n      dup6\n        /* \"#utility.yul\":1159:1182   */\n      sub\n        /* \"#utility.yul\":1155:1187   */\n      slt\n        /* \"#utility.yul\":1152:1271   */\n      iszero\n      tag_324\n      jumpi\n        /* \"#utility.yul\":1190:1269   */\n      tag_325\n      tag_321\n      jump\t// in\n    tag_325:\n        /* \"#utility.yul\":1152:1271   */\n    tag_324:\n        /* \"#utility.yul\":1310:1311   */\n      0x00\n        /* \"#utility.yul\":1335:1388   */\n      tag_326\n        /* \"#utility.yul\":1380:1387   */\n      dup6\n        /* \"#utility.yul\":1371:1377   */\n      dup3\n        /* \"#utility.yul\":1360:1369   */\n      dup7\n        /* \"#utility.yul\":1356:1378   */\n      add\n        /* \"#utility.yul\":1335:1388   */\n      tag_298\n      jump\t// in\n    tag_326:\n        /* \"#utility.yul\":1325:1388   */\n      swap3\n      pop\n        /* \"#utility.yul\":1281:1398   */\n      pop\n        /* \"#utility.yul\":1437:1439   */\n      0x20\n        /* \"#utility.yul\":1463:1516   */\n      tag_327\n        /* \"#utility.yul\":1508:1515   */\n      dup6\n        /* \"#utility.yul\":1499:1505   */\n      dup3\n        /* \"#utility.yul\":1488:1497   */\n      dup7\n        /* \"#utility.yul\":1484:1506   */\n      add\n        /* \"#utility.yul\":1463:1516   */\n      tag_298\n      jump\t// in\n    tag_327:\n        /* \"#utility.yul\":1453:1516   */\n      swap2\n      pop\n        /* \"#utility.yul\":1408:1526   */\n      pop\n        /* \"#utility.yul\":1059:1533   */\n      swap3\n      pop\n      swap3\n      swap1\n      pop\n      jump\t// out\n        /* \"#utility.yul\":1539:2158   */\n    tag_53:\n        /* \"#utility.yul\":1616:1622   */\n      0x00\n        /* \"#utility.yul\":1624:1630   */\n      dup1\n        /* \"#utility.yul\":1632:1638   */\n      0x00\n        /* \"#utility.yul\":1681:1683   */\n      0x60\n        /* \"#utility.yul\":1669:1678   */\n      dup5\n        /* \"#utility.yul\":1660:1667   */\n      dup7\n        /* \"#utility.yul\":1656:1679   */\n      sub\n        /* \"#utility.yul\":1652:1684   */\n      slt\n        /* \"#utility.yul\":1649:1768   */\n      iszero\n      tag_329\n      jumpi\n        /* \"#utility.yul\":1687:1766   */\n      tag_330\n      tag_321\n      jump\t// in\n    tag_330:\n        /* \"#utility.yul\":1649:1768   */\n    tag_329:\n        /* \"#utility.yul\":1807:1808   */\n      0x00\n        /* \"#utility.yul\":1832:1885   */\n      tag_331\n        /* \"#utility.yul\":1877:1884   */\n      dup7\n        /* \"#utility.yul\":1868:1874   */\n      dup3\n        /* \"#utility.yul\":1857:1866   */\n      dup8\n        /* \"#utility.yul\":1853:1875   */\n      add\n        /* \"#utility.yul\":1832:1885   */\n      tag_298\n      jump\t// in\n    tag_331:\n        /* \"#utility.yul\":1822:1885   */\n      swap4\n      pop\n        /* \"#utility.yul\":1778:1895   */\n      pop\n        /* \"#utility.yul\":1934:1936   */\n      0x20\n        /* \"#utility.yul\":1960:2013   */\n      tag_332\n        /* \"#utility.yul\":2005:2012   */\n      dup7\n        /* \"#utility.yul\":1996:2002   */\n      dup3\n        /* \"#utility.yul\":1985:1994   */\n      dup8\n        /* \"#utility.yul\":1981:2003   */\n      add\n        /* \"#utility.yul\":1960:2013   */\n      tag_298\n      jump\t// in\n    tag_332:\n        /* \"#utility.yul\":1950:2013   */\n      swap3\n      pop\n        /* \"#utility.yul\":1905:2023   */\n      pop\n        /* \"#utility.yul\":2062:2064   */\n      0x40\n        /* \"#utility.yul\":2088:2141   */\n      tag_333\n        /* \"#utility.yul\":2133:2140   */\n      dup7\n        /* \"#utility.yul\":2124:2130   */\n      dup3\n        /* \"#utility.yul\":2113:2122   */\n      dup8\n        /* \"#utility.yul\":2109:2131   */\n      add\n        /* \"#utility.yul\":2088:2141   */\n      tag_314\n      jump\t// in\n    tag_333:\n        /* \"#utility.yul\":2078:2141   */\n      swap2\n      pop\n        /* \"#utility.yul\":2033:2151   */\n      pop\n        /* \"#utility.yul\":1539:2158   */\n      swap3\n      pop\n      swap3\n      pop\n      swap3\n      jump\t// out\n        /* \"#utility.yul\":2164:2632   */\n    tag_40:\n        /* \"#utility.yul\":2229:2235   */\n      0x00\n        /* \"#utility.yul\":2237:2243   */\n      dup1\n        /* \"#utility.yul\":2286:2288   */\n      0x40\n        /* \"#utility.yul\":2274:2283   */\n      dup4\n        /* \"#utility.yul\":2265:2272   */\n      dup6\n        /* \"#utility.yul\":2261:2284   */\n      sub\n        /* \"#utility.yul\":2257:2289   */\n      slt\n        /* \"#utility.yul\":2254:2373   */\n      iszero\n      tag_335\n      jumpi\n        /* \"#utility.yul\":2292:2371   */\n      tag_336\n      tag_321\n      jump\t// in\n    tag_336:\n        /* \"#utility.yul\":2254:2373   */\n    tag_335:\n        /* \"#utility.yul\":2412:2413   */\n      0x00\n        /* \"#utility.yul\":2437:2490   */\n      tag_337\n        /* \"#utility.yul\":2482:2489   */\n      dup6\n        /* \"#utility.yul\":2473:2479   */\n      dup3\n        /* \"#utility.yul\":2462:2471   */\n      dup7\n        /* \"#utility.yul\":2458:2480   */\n      add\n        /* \"#utility.yul\":2437:2490   */\n      tag_298\n      jump\t// in\n    tag_337:\n        /* \"#utility.yul\":2427:2490   */\n      swap3\n      pop\n        /* \"#utility.yul\":2383:2500   */\n      pop\n        /* \"#utility.yul\":2539:2541   */\n      0x20\n        /* \"#utility.yul\":2565:2615   */\n      tag_338\n        /* \"#utility.yul\":2607:2614   */\n      dup6\n        /* \"#utility.yul\":2598:2604   */\n      dup3\n        /* \"#utility.yul\":2587:2596   */\n      dup7\n        /* \"#utility.yul\":2583:2605   */\n      add\n        /* \"#utility.yul\":2565:2615   */\n      tag_302\n      jump\t// in\n    tag_338:\n        /* \"#utility.yul\":2555:2615   */\n      swap2\n      pop\n        /* \"#utility.yul\":2510:2625   */\n      pop\n        /* \"#utility.yul\":2164:2632   */\n      swap3\n      pop\n      swap3\n      swap1\n      pop\n      jump\t// out\n        /* \"#utility.yul\":2638:3112   */\n    tag_44:\n        /* \"#utility.yul\":2706:2712   */\n      0x00\n        /* \"#utility.yul\":2714:2720   */\n      dup1\n        /* \"#utility.yul\":2763:2765   */\n      0x40\n        /* \"#utility.yul\":2751:2760   */\n      dup4\n        /* \"#utility.yul\":2742:2749   */\n      dup6\n        /* \"#utility.yul\":2738:2761   */\n      sub\n        /* \"#utility.yul\":2734:2766   */\n      slt\n        /* \"#utility.yul\":2731:2850   */\n      iszero\n      tag_340\n      jumpi\n        /* \"#utility.yul\":2769:2848   */\n      tag_341\n      tag_321\n      jump\t// in\n    tag_341:\n        /* \"#utility.yul\":2731:2850   */\n    tag_340:\n        /* \"#utility.yul\":2889:2890   */\n      0x00\n        /* \"#utility.yul\":2914:2967   */\n      tag_342\n        /* \"#utility.yul\":2959:2966   */\n      dup6\n        /* \"#utility.yul\":2950:2956   */\n      dup3\n        /* \"#utility.yul\":2939:2948   */\n      dup7\n        /* \"#utility.yul\":2935:2957   */\n      add\n        /* \"#utility.yul\":2914:2967   */\n      tag_298\n      jump\t// in\n    tag_342:\n        /* \"#utility.yul\":2904:2967   */\n      swap3\n      pop\n        /* \"#utility.yul\":2860:2977   */\n      pop\n        /* \"#utility.yul\":3016:3018   */\n      0x20\n        /* \"#utility.yul\":3042:3095   */\n      tag_343\n        /* \"#utility.yul\":3087:3094   */\n      dup6\n        /* \"#utility.yul\":3078:3084   */\n      dup3\n        /* \"#utility.yul\":3067:3076   */\n      dup7\n        /* \"#utility.yul\":3063:3085   */\n      add\n        /* \"#utility.yul\":3042:3095   */\n      tag_314\n      jump\t// in\n    tag_343:\n        /* \"#utility.yul\":3032:3095   */\n      swap2\n      pop\n        /* \"#utility.yul\":2987:3105   */\n      pop\n        /* \"#utility.yul\":2638:3112   */\n      swap3\n      pop\n      swap3\n      swap1\n      pop\n      jump\t// out\n        /* \"#utility.yul\":3118:3447   */\n    tag_58:\n        /* \"#utility.yul\":3177:3183   */\n      0x00\n        /* \"#utility.yul\":3226:3228   */\n      0x20\n        /* \"#utility.yul\":3214:3223   */\n      dup3\n        /* \"#utility.yul\":3205:3212   */\n      dup5\n        /* \"#utility.yul\":3201:3224   */\n      sub\n        /* \"#utility.yul\":3197:3229   */\n      slt\n        /* \"#utility.yul\":3194:3313   */\n      iszero\n      tag_345\n      jumpi\n        /* \"#utility.yul\":3232:3311   */\n      tag_346\n      tag_321\n      jump\t// in\n    tag_346:\n        /* \"#utility.yul\":3194:3313   */\n    tag_345:\n        /* \"#utility.yul\":3352:3353   */\n      0x00\n        /* \"#utility.yul\":3377:3430   */\n      tag_347\n        /* \"#utility.yul\":3422:3429   */\n      dup5\n        /* \"#utility.yul\":3413:3419   */\n      dup3\n        /* \"#utility.yul\":3402:3411   */\n      dup6\n        /* \"#utility.yul\":3398:3420   */\n      add\n        /* \"#utility.yul\":3377:3430   */\n      tag_306\n      jump\t// in\n    tag_347:\n        /* \"#utility.yul\":3367:3430   */\n      swap2\n      pop\n        /* \"#utility.yul\":3323:3440   */\n      pop\n        /* \"#utility.yul\":3118:3447   */\n      swap3\n      swap2\n      pop\n      pop\n      jump\t// out\n        /* \"#utility.yul\":3453:3927   */\n    tag_64:\n        /* \"#utility.yul\":3521:3527   */\n      0x00\n        /* \"#utility.yul\":3529:3535   */\n      dup1\n        /* \"#utility.yul\":3578:3580   */\n      0x40\n        /* \"#utility.yul\":3566:3575   */\n      dup4\n        /* \"#utility.yul\":3557:3564   */\n      dup6\n        /* \"#utility.yul\":3553:3576   */\n      sub\n        /* \"#utility.yul\":3549:3581   */\n      slt\n        /* \"#utility.yul\":3546:3665   */\n      iszero\n      tag_349\n      jumpi\n        /* \"#utility.yul\":3584:3663   */\n      tag_350\n      tag_321\n      jump\t// in\n    tag_350:\n        /* \"#utility.yul\":3546:3665   */\n    tag_349:\n        /* \"#utility.yul\":3704:3705   */\n      0x00\n        /* \"#utility.yul\":3729:3782   */\n      tag_351\n        /* \"#utility.yul\":3774:3781   */\n      dup6\n        /* \"#utility.yul\":3765:3771   */\n      dup3\n        /* \"#utility.yul\":3754:3763   */\n      dup7\n        /* \"#utility.yul\":3750:3772   */\n      add\n        /* \"#utility.yul\":3729:3782   */\n      tag_306\n      jump\t// in\n    tag_351:\n        /* \"#utility.yul\":3719:3782   */\n      swap3\n      pop\n        /* \"#utility.yul\":3675:3792   */\n      pop\n        /* \"#utility.yul\":3831:3833   */\n      0x20\n        /* \"#utility.yul\":3857:3910   */\n      tag_352\n        /* \"#utility.yul\":3902:3909   */\n      dup6\n        /* \"#utility.yul\":3893:3899   */\n      dup3\n        /* \"#utility.yul\":3882:3891   */\n      dup7\n        /* \"#utility.yul\":3878:3900   */\n      add\n        /* \"#utility.yul\":3857:3910   */\n      tag_298\n      jump\t// in\n    tag_352:\n        /* \"#utility.yul\":3847:3910   */\n      swap2\n      pop\n        /* \"#utility.yul\":3802:3920   */\n      pop\n        /* \"#utility.yul\":3453:3927   */\n      swap3\n      pop\n      swap3\n      swap1\n      pop\n      jump\t// out\n        /* \"#utility.yul\":3933:4260   */\n    tag_30:\n        /* \"#utility.yul\":3991:3997   */\n      0x00\n        /* \"#utility.yul\":4040:4042   */\n      0x20\n        /* \"#utility.yul\":4028:4037   */\n      dup3\n        /* \"#utility.yul\":4019:4026   */\n      dup5\n        /* \"#utility.yul\":4015:4038   */\n      sub\n        /* \"#utility.yul\":4011:4043   */\n      slt\n        /* \"#utility.yul\":4008:4127   */\n      iszero\n      tag_354\n      jumpi\n        /* \"#utility.yul\":4046:4125   */\n      tag_355\n      tag_321\n      jump\t// in\n    tag_355:\n        /* \"#utility.yul\":4008:4127   */\n    tag_354:\n        /* \"#utility.yul\":4166:4167   */\n      0x00\n        /* \"#utility.yul\":4191:4243   */\n      tag_356\n        /* \"#utility.yul\":4235:4242   */\n      dup5\n        /* \"#utility.yul\":4226:4232   */\n      dup3\n        /* \"#utility.yul\":4215:4224   */\n      dup6\n        /* \"#utility.yul\":4211:4233   */\n      add\n        /* \"#utility.yul\":4191:4243   */\n      tag_310\n      jump\t// in\n    tag_356:\n        /* \"#utility.yul\":4181:4243   */\n      swap2\n      pop\n        /* \"#utility.yul\":4137:4253   */\n      pop\n        /* \"#utility.yul\":3933:4260   */\n      swap3\n      swap2\n      pop\n      pop\n      jump\t// out\n        /* \"#utility.yul\":4266:4375   */\n    tag_357:\n        /* \"#utility.yul\":4347:4368   */\n      tag_359\n        /* \"#utility.yul\":4362:4367   */\n      dup2\n        /* \"#utility.yul\":4347:4368   */\n      tag_360\n      jump\t// in\n    tag_359:\n        /* \"#utility.yul\":4342:4345   */\n      dup3\n        /* \"#utility.yul\":4335:4369   */\n      mstore\n        /* \"#utility.yul\":4266:4375   */\n      pop\n      pop\n      jump\t// out\n        /* \"#utility.yul\":4381:4499   */\n    tag_361:\n        /* \"#utility.yul\":4468:4492   */\n      tag_363\n        /* \"#utility.yul\":4486:4491   */\n      dup2\n        /* \"#utility.yul\":4468:4492   */\n      tag_364\n      jump\t// in\n    tag_363:\n        /* \"#utility.yul\":4463:4466   */\n      dup3\n        /* \"#utility.yul\":4456:4493   */\n      mstore\n        /* \"#utility.yul\":4381:4499   */\n      pop\n      pop\n      jump\t// out\n        /* \"#utility.yul\":4505:4869   */\n    tag_365:\n        /* \"#utility.yul\":4593:4596   */\n      0x00\n        /* \"#utility.yul\":4621:4660   */\n      tag_367\n        /* \"#utility.yul\":4654:4659   */\n      dup3\n        /* \"#utility.yul\":4621:4660   */\n      tag_368\n      jump\t// in\n    tag_367:\n        /* \"#utility.yul\":4676:4747   */\n      tag_369\n        /* \"#utility.yul\":4740:4746   */\n      dup2\n        /* \"#utility.yul\":4735:4738   */\n      dup6\n        /* \"#utility.yul\":4676:4747   */\n      tag_370\n      jump\t// in\n    tag_369:\n        /* \"#utility.yul\":4669:4747   */\n      swap4\n      pop\n        /* \"#utility.yul\":4756:4808   */\n      tag_371\n        /* \"#utility.yul\":4801:4807   */\n      dup2\n        /* \"#utility.yul\":4796:4799   */\n      dup6\n        /* \"#utility.yul\":4789:4793   */\n      0x20\n        /* \"#utility.yul\":4782:4787   */\n      dup7\n        /* \"#utility.yul\":4778:4794   */\n      add\n        /* \"#utility.yul\":4756:4808   */\n      tag_372\n      jump\t// in\n    tag_371:\n        /* \"#utility.yul\":4833:4862   */\n      tag_373\n        /* \"#utility.yul\":4855:4861   */\n      dup2\n        /* \"#utility.yul\":4833:4862   */\n      tag_374\n      jump\t// in\n    tag_373:\n        /* \"#utility.yul\":4828:4831   */\n      dup5\n        /* \"#utility.yul\":4824:4863   */\n      add\n        /* \"#utility.yul\":4817:4863   */\n      swap2\n      pop\n        /* \"#utility.yul\":4597:4869   */\n      pop\n        /* \"#utility.yul\":4505:4869   */\n      swap3\n      swap2\n      pop\n      pop\n      jump\t// out\n        /* \"#utility.yul\":4875:5252   */\n    tag_375:\n        /* \"#utility.yul\":4981:4984   */\n      0x00\n        /* \"#utility.yul\":5009:5048   */\n      tag_377\n        /* \"#utility.yul\":5042:5047   */\n      dup3\n        /* \"#utility.yul\":5009:5048   */\n      tag_368\n      jump\t// in\n    tag_377:\n        /* \"#utility.yul\":5064:5153   */\n      tag_378\n        /* \"#utility.yul\":5146:5152   */\n      dup2\n        /* \"#utility.yul\":5141:5144   */\n      dup6\n        /* \"#utility.yul\":5064:5153   */\n      tag_379\n      jump\t// in\n    tag_378:\n        /* \"#utility.yul\":5057:5153   */\n      swap4\n      pop\n        /* \"#utility.yul\":5162:5214   */\n      tag_380\n        /* \"#utility.yul\":5207:5213   */\n      dup2\n        /* \"#utility.yul\":5202:5205   */\n      dup6\n        /* \"#utility.yul\":5195:5199   */\n      0x20\n        /* \"#utility.yul\":5188:5193   */\n      dup7\n        /* \"#utility.yul\":5184:5200   */\n      add\n        /* \"#utility.yul\":5162:5214   */\n      tag_372\n      jump\t// in\n    tag_380:\n        /* \"#utility.yul\":5239:5245   */\n      dup1\n        /* \"#utility.yul\":5234:5237   */\n      dup5\n        /* \"#utility.yul\":5230:5246   */\n      add\n        /* \"#utility.yul\":5223:5246   */\n      swap2\n      pop\n        /* \"#utility.yul\":4985:5252   */\n      pop\n        /* \"#utility.yul\":4875:5252   */\n      swap3\n      swap2\n      pop\n      pop\n      jump\t// out\n        /* \"#utility.yul\":5258:5623   */\n    tag_381:\n        /* \"#utility.yul\":5400:5403   */\n      0x00\n        /* \"#utility.yul\":5421:5487   */\n      tag_383\n        /* \"#utility.yul\":5485:5486   */\n      0x07\n        /* \"#utility.yul\":5480:5483   */\n      dup4\n        /* \"#utility.yul\":5421:5487   */\n      tag_370\n      jump\t// in\n    tag_383:\n        /* \"#utility.yul\":5414:5487   */\n      swap2\n      pop\n        /* \"#utility.yul\":5496:5589   */\n      tag_384\n        /* \"#utility.yul\":5585:5588   */\n      dup3\n        /* \"#utility.yul\":5496:5589   */\n      tag_385\n      jump\t// in\n    tag_384:\n        /* \"#utility.yul\":5614:5616   */\n      0x20\n        /* \"#utility.yul\":5609:5612   */\n      dup3\n        /* \"#utility.yul\":5605:5617   */\n      add\n        /* \"#utility.yul\":5598:5617   */\n      swap1\n      pop\n        /* \"#utility.yul\":5258:5623   */\n      swap2\n      swap1\n      pop\n      jump\t// out\n        /* \"#utility.yul\":5629:5995   */\n    tag_386:\n        /* \"#utility.yul\":5771:5774   */\n      0x00\n        /* \"#utility.yul\":5792:5859   */\n      tag_388\n        /* \"#utility.yul\":5856:5858   */\n      0x20\n        /* \"#utility.yul\":5851:5854   */\n      dup4\n        /* \"#utility.yul\":5792:5859   */\n      tag_370\n      jump\t// in\n    tag_388:\n        /* \"#utility.yul\":5785:5859   */\n      swap2\n      pop\n        /* \"#utility.yul\":5868:5961   */\n      tag_389\n        /* \"#utility.yul\":5957:5960   */\n      dup3\n        /* \"#utility.yul\":5868:5961   */\n      tag_390\n      jump\t// in\n    tag_389:\n        /* \"#utility.yul\":5986:5988   */\n      0x20\n        /* \"#utility.yul\":5981:5984   */\n      dup3\n        /* \"#utility.yul\":5977:5989   */\n      add\n        /* \"#utility.yul\":5970:5989   */\n      swap1\n      pop\n        /* \"#utility.yul\":5629:5995   */\n      swap2\n      swap1\n      pop\n      jump\t// out\n        /* \"#utility.yul\":6001:6367   */\n    tag_391:\n        /* \"#utility.yul\":6143:6146   */\n      0x00\n        /* \"#utility.yul\":6164:6231   */\n      tag_393\n        /* \"#utility.yul\":6228:6230   */\n      0x23\n        /* \"#utility.yul\":6223:6226   */\n      dup4\n        /* \"#utility.yul\":6164:6231   */\n      tag_370\n      jump\t// in\n    tag_393:\n        /* \"#utility.yul\":6157:6231   */\n      swap2\n      pop\n        /* \"#utility.yul\":6240:6333   */\n      tag_394\n        /* \"#utility.yul\":6329:6332   */\n      dup3\n        /* \"#utility.yul\":6240:6333   */\n      tag_395\n      jump\t// in\n    tag_394:\n        /* \"#utility.yul\":6358:6360   */\n      0x40\n        /* \"#utility.yul\":6353:6356   */\n      dup3\n        /* \"#utility.yul\":6349:6361   */\n      add\n        /* \"#utility.yul\":6342:6361   */\n      swap1\n      pop\n        /* \"#utility.yul\":6001:6367   */\n      swap2\n      swap1\n      pop\n      jump\t// out\n        /* \"#utility.yul\":6373:6739   */\n    tag_396:\n        /* \"#utility.yul\":6515:6518   */\n      0x00\n        /* \"#utility.yul\":6536:6603   */\n      tag_398\n        /* \"#utility.yul\":6600:6602   */\n      0x22\n        /* \"#utility.yul\":6595:6598   */\n      dup4\n        /* \"#utility.yul\":6536:6603   */\n      tag_370\n      jump\t// in\n    tag_398:\n        /* \"#utility.yul\":6529:6603   */\n      swap2\n      pop\n        /* \"#utility.yul\":6612:6705   */\n      tag_399\n        /* \"#utility.yul\":6701:6704   */\n      dup3\n        /* \"#utility.yul\":6612:6705   */\n      tag_400\n      jump\t// in\n    tag_399:\n        /* \"#utility.yul\":6730:6732   */\n      0x40\n        /* \"#utility.yul\":6725:6728   */\n      dup3\n        /* \"#utility.yul\":6721:6733   */\n      add\n        /* \"#utility.yul\":6714:6733   */\n      swap1\n      pop\n        /* \"#utility.yul\":6373:6739   */\n      swap2\n      swap1\n      pop\n      jump\t// out\n        /* \"#utility.yul\":6745:7111   */\n    tag_401:\n        /* \"#utility.yul\":6887:6890   */\n      0x00\n        /* \"#utility.yul\":6908:6975   */\n      tag_403\n        /* \"#utility.yul\":6972:6974   */\n      0x1d\n        /* \"#utility.yul\":6967:6970   */\n      dup4\n        /* \"#utility.yul\":6908:6975   */\n      tag_370\n      jump\t// in\n    tag_403:\n        /* \"#utility.yul\":6901:6975   */\n      swap2\n      pop\n        /* \"#utility.yul\":6984:7077   */\n      tag_404\n        /* \"#utility.yul\":7073:7076   */\n      dup3\n        /* \"#utility.yul\":6984:7077   */\n      tag_405\n      jump\t// in\n    tag_404:\n        /* \"#utility.yul\":7102:7104   */\n      0x20\n        /* \"#utility.yul\":7097:7100   */\n      dup3\n        /* \"#utility.yul\":7093:7105   */\n      add\n        /* \"#utility.yul\":7086:7105   */\n      swap1\n      pop\n        /* \"#utility.yul\":6745:7111   */\n      swap2\n      swap1\n      pop\n      jump\t// out\n        /* \"#utility.yul\":7117:7483   */\n    tag_406:\n        /* \"#utility.yul\":7259:7262   */\n      0x00\n        /* \"#utility.yul\":7280:7347   */\n      tag_408\n        /* \"#utility.yul\":7344:7346   */\n      0x26\n        /* \"#utility.yul\":7339:7342   */\n      dup4\n        /* \"#utility.yul\":7280:7347   */\n      tag_370\n      jump\t// in\n    tag_408:\n        /* \"#utility.yul\":7273:7347   */\n      swap2\n      pop\n        /* \"#utility.yul\":7356:7449   */\n      tag_409\n        /* \"#utility.yul\":7445:7448   */\n      dup3\n        /* \"#utility.yul\":7356:7449   */\n      tag_410\n      jump\t// in\n    tag_409:\n        /* \"#utility.yul\":7474:7476   */\n      0x40\n        /* \"#utility.yul\":7469:7472   */\n      dup3\n        /* \"#utility.yul\":7465:7477   */\n      add\n        /* \"#utility.yul\":7458:7477   */\n      swap1\n      pop\n        /* \"#utility.yul\":7117:7483   */\n      swap2\n      swap1\n      pop\n      jump\t// out\n        /* \"#utility.yul\":7489:7855   */\n    tag_411:\n        /* \"#utility.yul\":7631:7634   */\n      0x00\n        /* \"#utility.yul\":7652:7719   */\n      tag_413\n        /* \"#utility.yul\":7716:7718   */\n      0x25\n        /* \"#utility.yul\":7711:7714   */\n      dup4\n        /* \"#utility.yul\":7652:7719   */\n      tag_370\n      jump\t// in\n    tag_413:\n        /* \"#utility.yul\":7645:7719   */\n      swap2\n      pop\n        /* \"#utility.yul\":7728:7821   */\n      tag_414\n        /* \"#utility.yul\":7817:7820   */\n      dup3\n        /* \"#utility.yul\":7728:7821   */\n      tag_415\n      jump\t// in\n    tag_414:\n        /* \"#utility.yul\":7846:7848   */\n      0x40\n        /* \"#utility.yul\":7841:7844   */\n      dup3\n        /* \"#utility.yul\":7837:7849   */\n      add\n        /* \"#utility.yul\":7830:7849   */\n      swap1\n      pop\n        /* \"#utility.yul\":7489:7855   */\n      swap2\n      swap1\n      pop\n      jump\t// out\n        /* \"#utility.yul\":7861:8227   */\n    tag_416:\n        /* \"#utility.yul\":8003:8006   */\n      0x00\n        /* \"#utility.yul\":8024:8091   */\n      tag_418\n        /* \"#utility.yul\":8088:8090   */\n      0x24\n        /* \"#utility.yul\":8083:8086   */\n      dup4\n        /* \"#utility.yul\":8024:8091   */\n      tag_370\n      jump\t// in\n    tag_418:\n        /* \"#utility.yul\":8017:8091   */\n      swap2\n      pop\n        /* \"#utility.yul\":8100:8193   */\n      tag_419\n        /* \"#utility.yul\":8189:8192   */\n      dup3\n        /* \"#utility.yul\":8100:8193   */\n      tag_420\n      jump\t// in\n    tag_419:\n        /* \"#utility.yul\":8218:8220   */\n      0x40\n        /* \"#utility.yul\":8213:8216   */\n      dup3\n        /* \"#utility.yul\":8209:8221   */\n      add\n        /* \"#utility.yul\":8202:8221   */\n      swap1\n      pop\n        /* \"#utility.yul\":7861:8227   */\n      swap2\n      swap1\n      pop\n      jump\t// out\n        /* \"#utility.yul\":8233:8635   */\n    tag_421:\n        /* \"#utility.yul\":8393:8396   */\n      0x00\n        /* \"#utility.yul\":8414:8499   */\n      tag_423\n        /* \"#utility.yul\":8496:8498   */\n      0x17\n        /* \"#utility.yul\":8491:8494   */\n      dup4\n        /* \"#utility.yul\":8414:8499   */\n      tag_379\n      jump\t// in\n    tag_423:\n        /* \"#utility.yul\":8407:8499   */\n      swap2\n      pop\n        /* \"#utility.yul\":8508:8601   */\n      tag_424\n        /* \"#utility.yul\":8597:8600   */\n      dup3\n        /* \"#utility.yul\":8508:8601   */\n      tag_425\n      jump\t// in\n    tag_424:\n        /* \"#utility.yul\":8626:8628   */\n      0x17\n        /* \"#utility.yul\":8621:8624   */\n      dup3\n        /* \"#utility.yul\":8617:8629   */\n      add\n        /* \"#utility.yul\":8610:8629   */\n      swap1\n      pop\n        /* \"#utility.yul\":8233:8635   */\n      swap2\n      swap1\n      pop\n      jump\t// out\n        /* \"#utility.yul\":8641:9007   */\n    tag_426:\n        /* \"#utility.yul\":8783:8786   */\n      0x00\n        /* \"#utility.yul\":8804:8871   */\n      tag_428\n        /* \"#utility.yul\":8868:8870   */\n      0x25\n        /* \"#utility.yul\":8863:8866   */\n      dup4\n        /* \"#utility.yul\":8804:8871   */\n      tag_370\n      jump\t// in\n    tag_428:\n        /* \"#utility.yul\":8797:8871   */\n      swap2\n      pop\n        /* \"#utility.yul\":8880:8973   */\n      tag_429\n        /* \"#utility.yul\":8969:8972   */\n      dup3\n        /* \"#utility.yul\":8880:8973   */\n      tag_430\n      jump\t// in\n    tag_429:\n        /* \"#utility.yul\":8998:9000   */\n      0x40\n        /* \"#utility.yul\":8993:8996   */\n      dup3\n        /* \"#utility.yul\":8989:9001   */\n      add\n        /* \"#utility.yul\":8982:9001   */\n      swap1\n      pop\n        /* \"#utility.yul\":8641:9007   */\n      swap2\n      swap1\n      pop\n      jump\t// out\n        /* \"#utility.yul\":9013:9415   */\n    tag_431:\n        /* \"#utility.yul\":9173:9176   */\n      0x00\n        /* \"#utility.yul\":9194:9279   */\n      tag_433\n        /* \"#utility.yul\":9276:9278   */\n      0x11\n        /* \"#utility.yul\":9271:9274   */\n      dup4\n        /* \"#utility.yul\":9194:9279   */\n      tag_379\n      jump\t// in\n    tag_433:\n        /* \"#utility.yul\":9187:9279   */\n      swap2\n      pop\n        /* \"#utility.yul\":9288:9381   */\n      tag_434\n        /* \"#utility.yul\":9377:9380   */\n      dup3\n        /* \"#utility.yul\":9288:9381   */\n      tag_435\n      jump\t// in\n    tag_434:\n        /* \"#utility.yul\":9406:9408   */\n      0x11\n        /* \"#utility.yul\":9401:9404   */\n      dup3\n        /* \"#utility.yul\":9397:9409   */\n      add\n        /* \"#utility.yul\":9390:9409   */\n      swap1\n      pop\n        /* \"#utility.yul\":9013:9415   */\n      swap2\n      swap1\n      pop\n      jump\t// out\n        /* \"#utility.yul\":9421:9787   */\n    tag_436:\n        /* \"#utility.yul\":9563:9566   */\n      0x00\n        /* \"#utility.yul\":9584:9651   */\n      tag_438\n        /* \"#utility.yul\":9648:9650   */\n      0x2f\n        /* \"#utility.yul\":9643:9646   */\n      dup4\n        /* \"#utility.yul\":9584:9651   */\n      tag_370\n      jump\t// in\n    tag_438:\n        /* \"#utility.yul\":9577:9651   */\n      swap2\n      pop\n        /* \"#utility.yul\":9660:9753   */\n      tag_439\n        /* \"#utility.yul\":9749:9752   */\n      dup3\n        /* \"#utility.yul\":9660:9753   */\n      tag_440\n      jump\t// in\n    tag_439:\n        /* \"#utility.yul\":9778:9780   */\n      0x40\n        /* \"#utility.yul\":9773:9776   */\n      dup3\n        /* \"#utility.yul\":9769:9781   */\n      add\n        /* \"#utility.yul\":9762:9781   */\n      swap1\n      pop\n        /* \"#utility.yul\":9421:9787   */\n      swap2\n      swap1\n      pop\n      jump\t// out\n        /* \"#utility.yul\":9793:10159   */\n    tag_441:\n        /* \"#utility.yul\":9935:9938   */\n      0x00\n        /* \"#utility.yul\":9956:10023   */\n      tag_443\n        /* \"#utility.yul\":10020:10022   */\n      0x1f\n        /* \"#utility.yul\":10015:10018   */\n      dup4\n        /* \"#utility.yul\":9956:10023   */\n      tag_370\n      jump\t// in\n    tag_443:\n        /* \"#utility.yul\":9949:10023   */\n      swap2\n      pop\n        /* \"#utility.yul\":10032:10125   */\n      tag_444\n        /* \"#utility.yul\":10121:10124   */\n      dup3\n        /* \"#utility.yul\":10032:10125   */\n      tag_445\n      jump\t// in\n    tag_444:\n        /* \"#utility.yul\":10150:10152   */\n      0x20\n        /* \"#utility.yul\":10145:10148   */\n      dup3\n        /* \"#utility.yul\":10141:10153   */\n      add\n        /* \"#utility.yul\":10134:10153   */\n      swap1\n      pop\n        /* \"#utility.yul\":9793:10159   */\n      swap2\n      swap1\n      pop\n      jump\t// out\n        /* \"#utility.yul\":10165:10283   */\n    tag_446:\n        /* \"#utility.yul\":10252:10276   */\n      tag_448\n        /* \"#utility.yul\":10270:10275   */\n      dup2\n        /* \"#utility.yul\":10252:10276   */\n      tag_449\n      jump\t// in\n    tag_448:\n        /* \"#utility.yul\":10247:10250   */\n      dup3\n        /* \"#utility.yul\":10240:10277   */\n      mstore\n        /* \"#utility.yul\":10165:10283   */\n      pop\n      pop\n      jump\t// out\n        /* \"#utility.yul\":10289:10401   */\n    tag_450:\n        /* \"#utility.yul\":10372:10394   */\n      tag_452\n        /* \"#utility.yul\":10388:10393   */\n      dup2\n        /* \"#utility.yul\":10372:10394   */\n      tag_453\n      jump\t// in\n    tag_452:\n        /* \"#utility.yul\":10367:10370   */\n      dup3\n        /* \"#utility.yul\":10360:10395   */\n      mstore\n        /* \"#utility.yul\":10289:10401   */\n      pop\n      pop\n      jump\t// out\n        /* \"#utility.yul\":10407:11374   */\n    tag_264:\n        /* \"#utility.yul\":10789:10792   */\n      0x00\n        /* \"#utility.yul\":10811:10959   */\n      tag_455\n        /* \"#utility.yul\":10955:10958   */\n      dup3\n        /* \"#utility.yul\":10811:10959   */\n      tag_421\n      jump\t// in\n    tag_455:\n        /* \"#utility.yul\":10804:10959   */\n      swap2\n      pop\n        /* \"#utility.yul\":10976:11071   */\n      tag_456\n        /* \"#utility.yul\":11067:11070   */\n      dup3\n        /* \"#utility.yul\":11058:11064   */\n      dup6\n        /* \"#utility.yul\":10976:11071   */\n      tag_375\n      jump\t// in\n    tag_456:\n        /* \"#utility.yul\":10969:11071   */\n      swap2\n      pop\n        /* \"#utility.yul\":11088:11236   */\n      tag_457\n        /* \"#utility.yul\":11232:11235   */\n      dup3\n        /* \"#utility.yul\":11088:11236   */\n      tag_431\n      jump\t// in\n    tag_457:\n        /* \"#utility.yul\":11081:11236   */\n      swap2\n      pop\n        /* \"#utility.yul\":11253:11348   */\n      tag_458\n        /* \"#utility.yul\":11344:11347   */\n      dup3\n        /* \"#utility.yul\":11335:11341   */\n      dup5\n        /* \"#utility.yul\":11253:11348   */\n      tag_375\n      jump\t// in\n    tag_458:\n        /* \"#utility.yul\":11246:11348   */\n      swap2\n      pop\n        /* \"#utility.yul\":11365:11368   */\n      dup2\n        /* \"#utility.yul\":11358:11368   */\n      swap1\n      pop\n        /* \"#utility.yul\":10407:11374   */\n      swap4\n      swap3\n      pop\n      pop\n      pop\n      jump\t// out\n        /* \"#utility.yul\":11380:11590   */\n    tag_33:\n        /* \"#utility.yul\":11467:11471   */\n      0x00\n        /* \"#utility.yul\":11505:11507   */\n      0x20\n        /* \"#utility.yul\":11494:11503   */\n      dup3\n        /* \"#utility.yul\":11490:11508   */\n      add\n        /* \"#utility.yul\":11482:11508   */\n      swap1\n      pop\n        /* \"#utility.yul\":11518:11583   */\n      tag_460\n        /* \"#utility.yul\":11580:11581   */\n      0x00\n        /* \"#utility.yul\":11569:11578   */\n      dup4\n        /* \"#utility.yul\":11565:11582   */\n      add\n        /* \"#utility.yul\":11556:11562   */\n      dup5\n        /* \"#utility.yul\":11518:11583   */\n      tag_357\n      jump\t// in\n    tag_460:\n        /* \"#utility.yul\":11380:11590   */\n      swap3\n      swap2\n      pop\n      pop\n      jump\t// out\n        /* \"#utility.yul\":11596:11818   */\n    tag_61:\n        /* \"#utility.yul\":11689:11693   */\n      0x00\n        /* \"#utility.yul\":11727:11729   */\n      0x20\n        /* \"#utility.yul\":11716:11725   */\n      dup3\n        /* \"#utility.yul\":11712:11730   */\n      add\n        /* \"#utility.yul\":11704:11730   */\n      swap1\n      pop\n        /* \"#utility.yul\":11740:11811   */\n      tag_462\n        /* \"#utility.yul\":11808:11809   */\n      0x00\n        /* \"#utility.yul\":11797:11806   */\n      dup4\n        /* \"#utility.yul\":11793:11810   */\n      add\n        /* \"#utility.yul\":11784:11790   */\n      dup5\n        /* \"#utility.yul\":11740:11811   */\n      tag_361\n      jump\t// in\n    tag_462:\n        /* \"#utility.yul\":11596:11818   */\n      swap3\n      swap2\n      pop\n      pop\n      jump\t// out\n        /* \"#utility.yul\":11824:12137   */\n    tag_37:\n        /* \"#utility.yul\":11937:11941   */\n      0x00\n        /* \"#utility.yul\":11975:11977   */\n      0x20\n        /* \"#utility.yul\":11964:11973   */\n      dup3\n        /* \"#utility.yul\":11960:11978   */\n      add\n        /* \"#utility.yul\":11952:11978   */\n      swap1\n      pop\n        /* \"#utility.yul\":12024:12033   */\n      dup2\n        /* \"#utility.yul\":12018:12022   */\n      dup2\n        /* \"#utility.yul\":12014:12034   */\n      sub\n        /* \"#utility.yul\":12010:12011   */\n      0x00\n        /* \"#utility.yul\":11999:12008   */\n      dup4\n        /* \"#utility.yul\":11995:12012   */\n      add\n        /* \"#utility.yul\":11988:12035   */\n      mstore\n        /* \"#utility.yul\":12052:12130   */\n      tag_464\n        /* \"#utility.yul\":12125:12129   */\n      dup2\n        /* \"#utility.yul\":12116:12122   */\n      dup5\n        /* \"#utility.yul\":12052:12130   */\n      tag_365\n      jump\t// in\n    tag_464:\n        /* \"#utility.yul\":12044:12130   */\n      swap1\n      pop\n        /* \"#utility.yul\":11824:12137   */\n      swap3\n      swap2\n      pop\n      pop\n      jump\t// out\n        /* \"#utility.yul\":12143:12562   */\n    tag_134:\n        /* \"#utility.yul\":12309:12313   */\n      0x00\n        /* \"#utility.yul\":12347:12349   */\n      0x20\n        /* \"#utility.yul\":12336:12345   */\n      dup3\n        /* \"#utility.yul\":12332:12350   */\n      add\n        /* \"#utility.yul\":12324:12350   */\n      swap1\n      pop\n        /* \"#utility.yul\":12396:12405   */\n      dup2\n        /* \"#utility.yul\":12390:12394   */\n      dup2\n        /* \"#utility.yul\":12386:12406   */\n      sub\n        /* \"#utility.yul\":12382:12383   */\n      0x00\n        /* \"#utility.yul\":12371:12380   */\n      dup4\n        /* \"#utility.yul\":12367:12384   */\n      add\n        /* \"#utility.yul\":12360:12407   */\n      mstore\n        /* \"#utility.yul\":12424:12555   */\n      tag_466\n        /* \"#utility.yul\":12550:12554   */\n      dup2\n        /* \"#utility.yul\":12424:12555   */\n      tag_381\n      jump\t// in\n    tag_466:\n        /* \"#utility.yul\":12416:12555   */\n      swap1\n      pop\n        /* \"#utility.yul\":12143:12562   */\n      swap2\n      swap1\n      pop\n      jump\t// out\n        /* \"#utility.yul\":12568:12987   */\n    tag_296:\n        /* \"#utility.yul\":12734:12738   */\n      0x00\n        /* \"#utility.yul\":12772:12774   */\n      0x20\n        /* \"#utility.yul\":12761:12770   */\n      dup3\n        /* \"#utility.yul\":12757:12775   */\n      add\n        /* \"#utility.yul\":12749:12775   */\n      swap1\n      pop\n        /* \"#utility.yul\":12821:12830   */\n      dup2\n        /* \"#utility.yul\":12815:12819   */\n      dup2\n        /* \"#utility.yul\":12811:12831   */\n      sub\n        /* \"#utility.yul\":12807:12808   */\n      0x00\n        /* \"#utility.yul\":12796:12805   */\n      dup4\n        /* \"#utility.yul\":12792:12809   */\n      add\n        /* \"#utility.yul\":12785:12832   */\n      mstore\n        /* \"#utility.yul\":12849:12980   */\n      tag_468\n        /* \"#utility.yul\":12975:12979   */\n      dup2\n        /* \"#utility.yul\":12849:12980   */\n      tag_386\n      jump\t// in\n    tag_468:\n        /* \"#utility.yul\":12841:12980   */\n      swap1\n      pop\n        /* \"#utility.yul\":12568:12987   */\n      swap2\n      swap1\n      pop\n      jump\t// out\n        /* \"#utility.yul\":12993:13412   */\n    tag_235:\n        /* \"#utility.yul\":13159:13163   */\n      0x00\n        /* \"#utility.yul\":13197:13199   */\n      0x20\n        /* \"#utility.yul\":13186:13195   */\n      dup3\n        /* \"#utility.yul\":13182:13200   */\n      add\n        /* \"#utility.yul\":13174:13200   */\n      swap1\n      pop\n        /* \"#utility.yul\":13246:13255   */\n      dup2\n        /* \"#utility.yul\":13240:13244   */\n      dup2\n        /* \"#utility.yul\":13236:13256   */\n      sub\n        /* \"#utility.yul\":13232:13233   */\n      0x00\n        /* \"#utility.yul\":13221:13230   */\n      dup4\n        /* \"#utility.yul\":13217:13234   */\n      add\n        /* \"#utility.yul\":13210:13257   */\n      mstore\n        /* \"#utility.yul\":13274:13405   */\n      tag_470\n        /* \"#utility.yul\":13400:13404   */\n      dup2\n        /* \"#utility.yul\":13274:13405   */\n      tag_391\n      jump\t// in\n    tag_470:\n        /* \"#utility.yul\":13266:13405   */\n      swap1\n      pop\n        /* \"#utility.yul\":12993:13412   */\n      swap2\n      swap1\n      pop\n      jump\t// out\n        /* \"#utility.yul\":13418:13837   */\n    tag_220:\n        /* \"#utility.yul\":13584:13588   */\n      0x00\n        /* \"#utility.yul\":13622:13624   */\n      0x20\n        /* \"#utility.yul\":13611:13620   */\n      dup3\n        /* \"#utility.yul\":13607:13625   */\n      add\n        /* \"#utility.yul\":13599:13625   */\n      swap1\n      pop\n        /* \"#utility.yul\":13671:13680   */\n      dup2\n        /* \"#utility.yul\":13665:13669   */\n      dup2\n        /* \"#utility.yul\":13661:13681   */\n      sub\n        /* \"#utility.yul\":13657:13658   */\n      0x00\n        /* \"#utility.yul\":13646:13655   */\n      dup4\n        /* \"#utility.yul\":13642:13659   */\n      add\n        /* \"#utility.yul\":13635:13682   */\n      mstore\n        /* \"#utility.yul\":13699:13830   */\n      tag_472\n        /* \"#utility.yul\":13825:13829   */\n      dup2\n        /* \"#utility.yul\":13699:13830   */\n      tag_396\n      jump\t// in\n    tag_472:\n        /* \"#utility.yul\":13691:13830   */\n      swap1\n      pop\n        /* \"#utility.yul\":13418:13837   */\n      swap2\n      swap1\n      pop\n      jump\t// out\n        /* \"#utility.yul\":13843:14262   */\n    tag_227:\n        /* \"#utility.yul\":14009:14013   */\n      0x00\n        /* \"#utility.yul\":14047:14049   */\n      0x20\n        /* \"#utility.yul\":14036:14045   */\n      dup3\n        /* \"#utility.yul\":14032:14050   */\n      add\n        /* \"#utility.yul\":14024:14050   */\n      swap1\n      pop\n        /* \"#utility.yul\":14096:14105   */\n      dup2\n        /* \"#utility.yul\":14090:14094   */\n      dup2\n        /* \"#utility.yul\":14086:14106   */\n      sub\n        /* \"#utility.yul\":14082:14083   */\n      0x00\n        /* \"#utility.yul\":14071:14080   */\n      dup4\n        /* \"#utility.yul\":14067:14084   */\n      add\n        /* \"#utility.yul\":14060:14107   */\n      mstore\n        /* \"#utility.yul\":14124:14255   */\n      tag_474\n        /* \"#utility.yul\":14250:14254   */\n      dup2\n        /* \"#utility.yul\":14124:14255   */\n      tag_401\n      jump\t// in\n    tag_474:\n        /* \"#utility.yul\":14116:14255   */\n      swap1\n      pop\n        /* \"#utility.yul\":13843:14262   */\n      swap2\n      swap1\n      pop\n      jump\t// out\n        /* \"#utility.yul\":14268:14687   */\n    tag_240:\n        /* \"#utility.yul\":14434:14438   */\n      0x00\n        /* \"#utility.yul\":14472:14474   */\n      0x20\n        /* \"#utility.yul\":14461:14470   */\n      dup3\n        /* \"#utility.yul\":14457:14475   */\n      add\n        /* \"#utility.yul\":14449:14475   */\n      swap1\n      pop\n        /* \"#utility.yul\":14521:14530   */\n      dup2\n        /* \"#utility.yul\":14515:14519   */\n      dup2\n        /* \"#utility.yul\":14511:14531   */\n      sub\n        /* \"#utility.yul\":14507:14508   */\n      0x00\n        /* \"#utility.yul\":14496:14505   */\n      dup4\n        /* \"#utility.yul\":14492:14509   */\n      add\n        /* \"#utility.yul\":14485:14532   */\n      mstore\n        /* \"#utility.yul\":14549:14680   */\n      tag_476\n        /* \"#utility.yul\":14675:14679   */\n      dup2\n        /* \"#utility.yul\":14549:14680   */\n      tag_406\n      jump\t// in\n    tag_476:\n        /* \"#utility.yul\":14541:14680   */\n      swap1\n      pop\n        /* \"#utility.yul\":14268:14687   */\n      swap2\n      swap1\n      pop\n      jump\t// out\n        /* \"#utility.yul\":14693:15112   */\n    tag_232:\n        /* \"#utility.yul\":14859:14863   */\n      0x00\n        /* \"#utility.yul\":14897:14899   */\n      0x20\n        /* \"#utility.yul\":14886:14895   */\n      dup3\n        /* \"#utility.yul\":14882:14900   */\n      add\n        /* \"#utility.yul\":14874:14900   */\n      swap1\n      pop\n        /* \"#utility.yul\":14946:14955   */\n      dup2\n        /* \"#utility.yul\":14940:14944   */\n      dup2\n        /* \"#utility.yul\":14936:14956   */\n      sub\n        /* \"#utility.yul\":14932:14933   */\n      0x00\n        /* \"#utility.yul\":14921:14930   */\n      dup4\n        /* \"#utility.yul\":14917:14934   */\n      add\n        /* \"#utility.yul\":14910:14957   */\n      mstore\n        /* \"#utility.yul\":14974:15105   */\n      tag_478\n        /* \"#utility.yul\":15100:15104   */\n      dup2\n        /* \"#utility.yul\":14974:15105   */\n      tag_411\n      jump\t// in\n    tag_478:\n        /* \"#utility.yul\":14966:15105   */\n      swap1\n      pop\n        /* \"#utility.yul\":14693:15112   */\n      swap2\n      swap1\n      pop\n      jump\t// out\n        /* \"#utility.yul\":15118:15537   */\n    tag_217:\n        /* \"#utility.yul\":15284:15288   */\n      0x00\n        /* \"#utility.yul\":15322:15324   */\n      0x20\n        /* \"#utility.yul\":15311:15320   */\n      dup3\n        /* \"#utility.yul\":15307:15325   */\n      add\n        /* \"#utility.yul\":15299:15325   */\n      swap1\n      pop\n        /* \"#utility.yul\":15371:15380   */\n      dup2\n        /* \"#utility.yul\":15365:15369   */\n      dup2\n        /* \"#utility.yul\":15361:15381   */\n      sub\n        /* \"#utility.yul\":15357:15358   */\n      0x00\n        /* \"#utility.yul\":15346:15355   */\n      dup4\n        /* \"#utility.yul\":15342:15359   */\n      add\n        /* \"#utility.yul\":15335:15382   */\n      mstore\n        /* \"#utility.yul\":15399:15530   */\n      tag_480\n        /* \"#utility.yul\":15525:15529   */\n      dup2\n        /* \"#utility.yul\":15399:15530   */\n      tag_416\n      jump\t// in\n    tag_480:\n        /* \"#utility.yul\":15391:15530   */\n      swap1\n      pop\n        /* \"#utility.yul\":15118:15537   */\n      swap2\n      swap1\n      pop\n      jump\t// out\n        /* \"#utility.yul\":15543:15962   */\n    tag_191:\n        /* \"#utility.yul\":15709:15713   */\n      0x00\n        /* \"#utility.yul\":15747:15749   */\n      0x20\n        /* \"#utility.yul\":15736:15745   */\n      dup3\n        /* \"#utility.yul\":15732:15750   */\n      add\n        /* \"#utility.yul\":15724:15750   */\n      swap1\n      pop\n        /* \"#utility.yul\":15796:15805   */\n      dup2\n        /* \"#utility.yul\":15790:15794   */\n      dup2\n        /* \"#utility.yul\":15786:15806   */\n      sub\n        /* \"#utility.yul\":15782:15783   */\n      0x00\n        /* \"#utility.yul\":15771:15780   */\n      dup4\n        /* \"#utility.yul\":15767:15784   */\n      add\n        /* \"#utility.yul\":15760:15807   */\n      mstore\n        /* \"#utility.yul\":15824:15955   */\n      tag_482\n        /* \"#utility.yul\":15950:15954   */\n      dup2\n        /* \"#utility.yul\":15824:15955   */\n      tag_426\n      jump\t// in\n    tag_482:\n        /* \"#utility.yul\":15816:15955   */\n      swap1\n      pop\n        /* \"#utility.yul\":15543:15962   */\n      swap2\n      swap1\n      pop\n      jump\t// out\n        /* \"#utility.yul\":15968:16387   */\n    tag_165:\n        /* \"#utility.yul\":16134:16138   */\n      0x00\n        /* \"#utility.yul\":16172:16174   */\n      0x20\n        /* \"#utility.yul\":16161:16170   */\n      dup3\n        /* \"#utility.yul\":16157:16175   */\n      add\n        /* \"#utility.yul\":16149:16175   */\n      swap1\n      pop\n        /* \"#utility.yul\":16221:16230   */\n      dup2\n        /* \"#utility.yul\":16215:16219   */\n      dup2\n        /* \"#utility.yul\":16211:16231   */\n      sub\n        /* \"#utility.yul\":16207:16208   */\n      0x00\n        /* \"#utility.yul\":16196:16205   */\n      dup4\n        /* \"#utility.yul\":16192:16209   */\n      add\n        /* \"#utility.yul\":16185:16232   */\n      mstore\n        /* \"#utility.yul\":16249:16380   */\n      tag_484\n        /* \"#utility.yul\":16375:16379   */\n      dup2\n        /* \"#utility.yul\":16249:16380   */\n      tag_436\n      jump\t// in\n    tag_484:\n        /* \"#utility.yul\":16241:16380   */\n      swap1\n      pop\n        /* \"#utility.yul\":15968:16387   */\n      swap2\n      swap1\n      pop\n      jump\t// out\n        /* \"#utility.yul\":16393:16812   */\n    tag_251:\n        /* \"#utility.yul\":16559:16563   */\n      0x00\n        /* \"#utility.yul\":16597:16599   */\n      0x20\n        /* \"#utility.yul\":16586:16595   */\n      dup3\n        /* \"#utility.yul\":16582:16600   */\n      add\n        /* \"#utility.yul\":16574:16600   */\n      swap1\n      pop\n        /* \"#utility.yul\":16646:16655   */\n      dup2\n        /* \"#utility.yul\":16640:16644   */\n      dup2\n        /* \"#utility.yul\":16636:16656   */\n      sub\n        /* \"#utility.yul\":16632:16633   */\n      0x00\n        /* \"#utility.yul\":16621:16630   */\n      dup4\n        /* \"#utility.yul\":16617:16634   */\n      add\n        /* \"#utility.yul\":16610:16657   */\n      mstore\n        /* \"#utility.yul\":16674:16805   */\n      tag_486\n        /* \"#utility.yul\":16800:16804   */\n      dup2\n        /* \"#utility.yul\":16674:16805   */\n      tag_441\n      jump\t// in\n    tag_486:\n        /* \"#utility.yul\":16666:16805   */\n      swap1\n      pop\n        /* \"#utility.yul\":16393:16812   */\n      swap2\n      swap1\n      pop\n      jump\t// out\n        /* \"#utility.yul\":16818:17040   */\n    tag_50:\n        /* \"#utility.yul\":16911:16915   */\n      0x00\n        /* \"#utility.yul\":16949:16951   */\n      0x20\n        /* \"#utility.yul\":16938:16947   */\n      dup3\n        /* \"#utility.yul\":16934:16952   */\n      add\n        /* \"#utility.yul\":16926:16952   */\n      swap1\n      pop\n        /* \"#utility.yul\":16962:17033   */\n      tag_488\n        /* \"#utility.yul\":17030:17031   */\n      0x00\n        /* \"#utility.yul\":17019:17028   */\n      dup4\n        /* \"#utility.yul\":17015:17032   */\n      add\n        /* \"#utility.yul\":17006:17012   */\n      dup5\n        /* \"#utility.yul\":16962:17033   */\n      tag_446\n      jump\t// in\n    tag_488:\n        /* \"#utility.yul\":16818:17040   */\n      swap3\n      swap2\n      pop\n      pop\n      jump\t// out\n        /* \"#utility.yul\":17046:17260   */\n    tag_69:\n        /* \"#utility.yul\":17135:17139   */\n      0x00\n        /* \"#utility.yul\":17173:17175   */\n      0x20\n        /* \"#utility.yul\":17162:17171   */\n      dup3\n        /* \"#utility.yul\":17158:17176   */\n      add\n        /* \"#utility.yul\":17150:17176   */\n      swap1\n      pop\n        /* \"#utility.yul\":17186:17253   */\n      tag_490\n        /* \"#utility.yul\":17250:17251   */\n      0x00\n        /* \"#utility.yul\":17239:17248   */\n      dup4\n        /* \"#utility.yul\":17235:17252   */\n      add\n        /* \"#utility.yul\":17226:17232   */\n      dup5\n        /* \"#utility.yul\":17186:17253   */\n      tag_450\n      jump\t// in\n    tag_490:\n        /* \"#utility.yul\":17046:17260   */\n      swap3\n      swap2\n      pop\n      pop\n      jump\t// out\n        /* \"#utility.yul\":17347:17446   */\n    tag_368:\n        /* \"#utility.yul\":17399:17405   */\n      0x00\n        /* \"#utility.yul\":17433:17438   */\n      dup2\n        /* \"#utility.yul\":17427:17439   */\n      mload\n        /* \"#utility.yul\":17417:17439   */\n      swap1\n      pop\n        /* \"#utility.yul\":17347:17446   */\n      swap2\n      swap1\n      pop\n      jump\t// out\n        /* \"#utility.yul\":17452:17621   */\n    tag_370:\n        /* \"#utility.yul\":17536:17547   */\n      0x00\n        /* \"#utility.yul\":17570:17576   */\n      dup3\n        /* \"#utility.yul\":17565:17568   */\n      dup3\n        /* \"#utility.yul\":17558:17577   */\n      mstore\n        /* \"#utility.yul\":17610:17614   */\n      0x20\n        /* \"#utility.yul\":17605:17608   */\n      dup3\n        /* \"#utility.yul\":17601:17615   */\n      add\n        /* \"#utility.yul\":17586:17615   */\n      swap1\n      pop\n        /* \"#utility.yul\":17452:17621   */\n      swap3\n      swap2\n      pop\n      pop\n      jump\t// out\n        /* \"#utility.yul\":17627:17775   */\n    tag_379:\n        /* \"#utility.yul\":17729:17740   */\n      0x00\n        /* \"#utility.yul\":17766:17769   */\n      dup2\n        /* \"#utility.yul\":17751:17769   */\n      swap1\n      pop\n        /* \"#utility.yul\":17627:17775   */\n      swap3\n      swap2\n      pop\n      pop\n      jump\t// out\n        /* \"#utility.yul\":17781:18086   */\n    tag_172:\n        /* \"#utility.yul\":17821:17824   */\n      0x00\n        /* \"#utility.yul\":17840:17860   */\n      tag_497\n        /* \"#utility.yul\":17858:17859   */\n      dup3\n        /* \"#utility.yul\":17840:17860   */\n      tag_449\n      jump\t// in\n    tag_497:\n        /* \"#utility.yul\":17835:17860   */\n      swap2\n      pop\n        /* \"#utility.yul\":17874:17894   */\n      tag_498\n        /* \"#utility.yul\":17892:17893   */\n      dup4\n        /* \"#utility.yul\":17874:17894   */\n      tag_449\n      jump\t// in\n    tag_498:\n        /* \"#utility.yul\":17869:17894   */\n      swap3\n      pop\n        /* \"#utility.yul\":18028:18029   */\n      dup3\n        /* \"#utility.yul\":17960:18026   */\n      0xffffffffffffffffffffffffffffffffffffffffffffffffffffffffffffffff\n        /* \"#utility.yul\":17956:18030   */\n      sub\n        /* \"#utility.yul\":17953:17954   */\n      dup3\n        /* \"#utility.yul\":17950:18031   */\n      gt\n        /* \"#utility.yul\":17947:18054   */\n      iszero\n      tag_499\n      jumpi\n        /* \"#utility.yul\":18034:18052   */\n      tag_500\n      tag_501\n      jump\t// in\n    tag_500:\n        /* \"#utility.yul\":17947:18054   */\n    tag_499:\n        /* \"#utility.yul\":18078:18079   */\n      dup3\n        /* \"#utility.yul\":18075:18076   */\n      dup3\n        /* \"#utility.yul\":18071:18080   */\n      add\n        /* \"#utility.yul\":18064:18080   */\n      swap1\n      pop\n        /* \"#utility.yul\":17781:18086   */\n      swap3\n      swap2\n      pop\n      pop\n      jump\t// out\n        /* \"#utility.yul\":18092:18440   */\n    tag_272:\n        /* \"#utility.yul\":18132:18139   */\n      0x00\n        /* \"#utility.yul\":18155:18175   */\n      tag_503\n        /* \"#utility.yul\":18173:18174   */\n      dup3\n        /* \"#utility.yul\":18155:18175   */\n      tag_449\n      jump\t// in\n    tag_503:\n        /* \"#utility.yul\":18150:18175   */\n      swap2\n      pop\n        /* \"#utility.yul\":18189:18209   */\n      tag_504\n        /* \"#utility.yul\":18207:18208   */\n      dup4\n        /* \"#utility.yul\":18189:18209   */\n      tag_449\n      jump\t// in\n    tag_504:\n        /* \"#utility.yul\":18184:18209   */\n      swap3\n      pop\n        /* \"#utility.yul\":18377:18378   */\n      dup2\n        /* \"#utility.yul\":18309:18375   */\n      0xffffffffffffffffffffffffffffffffffffffffffffffffffffffffffffffff\n        /* \"#utility.yul\":18305:18379   */\n      div\n        /* \"#utility.yul\":18302:18303   */\n      dup4\n        /* \"#utility.yul\":18299:18380   */\n      gt\n        /* \"#utility.yul\":18294:18295   */\n      dup3\n        /* \"#utility.yul\":18287:18296   */\n      iszero\n        /* \"#utility.yul\":18280:18297   */\n      iszero\n        /* \"#utility.yul\":18276:18381   */\n      and\n        /* \"#utility.yul\":18273:18404   */\n      iszero\n      tag_505\n      jumpi\n        /* \"#utility.yul\":18384:18402   */\n      tag_506\n      tag_501\n      jump\t// in\n    tag_506:\n        /* \"#utility.yul\":18273:18404   */\n    tag_505:\n        /* \"#utility.yul\":18432:18433   */\n      dup3\n        /* \"#utility.yul\":18429:18430   */\n      dup3\n        /* \"#utility.yul\":18425:18434   */\n      mul\n        /* \"#utility.yul\":18414:18434   */\n      swap1\n      pop\n        /* \"#utility.yul\":18092:18440   */\n      swap3\n      swap2\n      pop\n      pop\n      jump\t// out\n        /* \"#utility.yul\":18446:18542   */\n    tag_507:\n        /* \"#utility.yul\":18483:18490   */\n      0x00\n        /* \"#utility.yul\":18512:18536   */\n      tag_509\n        /* \"#utility.yul\":18530:18535   */\n      dup3\n        /* \"#utility.yul\":18512:18536   */\n      tag_510\n      jump\t// in\n    tag_509:\n        /* \"#utility.yul\":18501:18536   */\n      swap1\n      pop\n        /* \"#utility.yul\":18446:18542   */\n      swap2\n      swap1\n      pop\n      jump\t// out\n        /* \"#utility.yul\":18548:18638   */\n    tag_360:\n        /* \"#utility.yul\":18582:18589   */\n      0x00\n        /* \"#utility.yul\":18625:18630   */\n      dup2\n        /* \"#utility.yul\":18618:18631   */\n      iszero\n        /* \"#utility.yul\":18611:18632   */\n      iszero\n        /* \"#utility.yul\":18600:18632   */\n      swap1\n      pop\n        /* \"#utility.yul\":18548:18638   */\n      swap2\n      swap1\n      pop\n      jump\t// out\n        /* \"#utility.yul\":18644:18721   */\n    tag_364:\n        /* \"#utility.yul\":18681:18688   */\n      0x00\n        /* \"#utility.yul\":18710:18715   */\n      dup2\n        /* \"#utility.yul\":18699:18715   */\n      swap1\n      pop\n        /* \"#utility.yul\":18644:18721   */\n      swap2\n      swap1\n      pop\n      jump\t// out\n        /* \"#utility.yul\":18727:18876   */\n    tag_513:\n        /* \"#utility.yul\":18763:18770   */\n      0x00\n        /* \"#utility.yul\":18803:18869   */\n      0xffffffff00000000000000000000000000000000000000000000000000000000\n        /* \"#utility.yul\":18796:18801   */\n      dup3\n        /* \"#utility.yul\":18792:18870   */\n      and\n        /* \"#utility.yul\":18781:18870   */\n      swap1\n      pop\n        /* \"#utility.yul\":18727:18876   */\n      swap2\n      swap1\n      pop\n      jump\t// out\n        /* \"#utility.yul\":18882:19008   */\n    tag_510:\n        /* \"#utility.yul\":18919:18926   */\n      0x00\n        /* \"#utility.yul\":18959:19001   */\n      0xffffffffffffffffffffffffffffffffffffffff\n        /* \"#utility.yul\":18952:18957   */\n      dup3\n        /* \"#utility.yul\":18948:19002   */\n      and\n        /* \"#utility.yul\":18937:19002   */\n      swap1\n      pop\n        /* \"#utility.yul\":18882:19008   */\n      swap2\n      swap1\n      pop\n      jump\t// out\n        /* \"#utility.yul\":19014:19091   */\n    tag_449:\n        /* \"#utility.yul\":19051:19058   */\n      0x00\n        /* \"#utility.yul\":19080:19085   */\n      dup2\n        /* \"#utility.yul\":19069:19085   */\n      swap1\n      pop\n        /* \"#utility.yul\":19014:19091   */\n      swap2\n      swap1\n      pop\n      jump\t// out\n        /* \"#utility.yul\":19097:19183   */\n    tag_453:\n        /* \"#utility.yul\":19132:19139   */\n      0x00\n        /* \"#utility.yul\":19172:19176   */\n      0xff\n        /* \"#utility.yul\":19165:19170   */\n      dup3\n        /* \"#utility.yul\":19161:19177   */\n      and\n        /* \"#utility.yul\":19150:19177   */\n      swap1\n      pop\n        /* \"#utility.yul\":19097:19183   */\n      swap2\n      swap1\n      pop\n      jump\t// out\n        /* \"#utility.yul\":19189:19496   */\n    tag_372:\n        /* \"#utility.yul\":19257:19258   */\n      0x00\n        /* \"#utility.yul\":19267:19380   */\n    tag_519:\n        /* \"#utility.yul\":19281:19287   */\n      dup4\n        /* \"#utility.yul\":19278:19279   */\n      dup2\n        /* \"#utility.yul\":19275:19288   */\n      lt\n        /* \"#utility.yul\":19267:19380   */\n      iszero\n      tag_521\n      jumpi\n        /* \"#utility.yul\":19366:19367   */\n      dup1\n        /* \"#utility.yul\":19361:19364   */\n      dup3\n        /* \"#utility.yul\":19357:19368   */\n      add\n        /* \"#utility.yul\":19351:19369   */\n      mload\n        /* \"#utility.yul\":19347:19348   */\n      dup2\n        /* \"#utility.yul\":19342:19345   */\n      dup5\n        /* \"#utility.yul\":19338:19349   */\n      add\n        /* \"#utility.yul\":19331:19370   */\n      mstore\n        /* \"#utility.yul\":19303:19305   */\n      0x20\n        /* \"#utility.yul\":19300:19301   */\n      dup2\n        /* \"#utility.yul\":19296:19306   */\n      add\n        /* \"#utility.yul\":19291:19306   */\n      swap1\n      pop\n        /* \"#utility.yul\":19267:19380   */\n      jump(tag_519)\n    tag_521:\n        /* \"#utility.yul\":19398:19404   */\n      dup4\n        /* \"#utility.yul\":19395:19396   */\n      dup2\n        /* \"#utility.yul\":19392:19405   */\n      gt\n        /* \"#utility.yul\":19389:19490   */\n      iszero\n      tag_522\n      jumpi\n        /* \"#utility.yul\":19478:19479   */\n      0x00\n        /* \"#utility.yul\":19469:19475   */\n      dup5\n        /* \"#utility.yul\":19464:19467   */\n      dup5\n        /* \"#utility.yul\":19460:19476   */\n      add\n        /* \"#utility.yul\":19453:19480   */\n      mstore\n        /* \"#utility.yul\":19389:19490   */\n    tag_522:\n        /* \"#utility.yul\":19238:19496   */\n      pop\n        /* \"#utility.yul\":19189:19496   */\n      pop\n      pop\n      pop\n      jump\t// out\n        /* \"#utility.yul\":19502:19673   */\n    tag_293:\n        /* \"#utility.yul\":19541:19544   */\n      0x00\n        /* \"#utility.yul\":19564:19588   */\n      tag_524\n        /* \"#utility.yul\":19582:19587   */\n      dup3\n        /* \"#utility.yul\":19564:19588   */\n      tag_449\n      jump\t// in\n    tag_524:\n        /* \"#utility.yul\":19555:19588   */\n      swap2\n      pop\n        /* \"#utility.yul\":19610:19614   */\n      0x00\n        /* \"#utility.yul\":19603:19608   */\n      dup3\n        /* \"#utility.yul\":19600:19615   */\n      eq\n        /* \"#utility.yul\":19597:19638   */\n      iszero\n      tag_525\n      jumpi\n        /* \"#utility.yul\":19618:19636   */\n      tag_526\n      tag_501\n      jump\t// in\n    tag_526:\n        /* \"#utility.yul\":19597:19638   */\n    tag_525:\n        /* \"#utility.yul\":19665:19666   */\n      0x01\n        /* \"#utility.yul\":19658:19663   */\n      dup3\n        /* \"#utility.yul\":19654:19667   */\n      sub\n        /* \"#utility.yul\":19647:19667   */\n      swap1\n      pop\n        /* \"#utility.yul\":19502:19673   */\n      swap2\n      swap1\n      pop\n      jump\t// out\n        /* \"#utility.yul\":19679:19999   */\n    tag_123:\n        /* \"#utility.yul\":19723:19729   */\n      0x00\n        /* \"#utility.yul\":19760:19761   */\n      0x02\n        /* \"#utility.yul\":19754:19758   */\n      dup3\n        /* \"#utility.yul\":19750:19762   */\n      div\n        /* \"#utility.yul\":19740:19762   */\n      swap1\n      pop\n        /* \"#utility.yul\":19807:19808   */\n      0x01\n        /* \"#utility.yul\":19801:19805   */\n      dup3\n        /* \"#utility.yul\":19797:19809   */\n      and\n        /* \"#utility.yul\":19828:19846   */\n      dup1\n        /* \"#utility.yul\":19818:19899   */\n      tag_528\n      jumpi\n        /* \"#utility.yul\":19884:19888   */\n      0x7f\n        /* \"#utility.yul\":19876:19882   */\n      dup3\n        /* \"#utility.yul\":19872:19889   */\n      and\n        /* \"#utility.yul\":19862:19889   */\n      swap2\n      pop\n        /* \"#utility.yul\":19818:19899   */\n    tag_528:\n        /* \"#utility.yul\":19946:19948   */\n      0x20\n        /* \"#utility.yul\":19938:19944   */\n      dup3\n        /* \"#utility.yul\":19935:19949   */\n      lt\n        /* \"#utility.yul\":19915:19933   */\n      dup2\n        /* \"#utility.yul\":19912:19950   */\n      eq\n        /* \"#utility.yul\":19909:19993   */\n      iszero\n      tag_529\n      jumpi\n        /* \"#utility.yul\":19965:19983   */\n      tag_530\n      tag_531\n      jump\t// in\n    tag_530:\n        /* \"#utility.yul\":19909:19993   */\n    tag_529:\n        /* \"#utility.yul\":19730:19999   */\n      pop\n        /* \"#utility.yul\":19679:19999   */\n      swap2\n      swap1\n      pop\n      jump\t// out\n        /* \"#utility.yul\":20005:20185   */\n    tag_501:\n        /* \"#utility.yul\":20053:20130   */\n      0x4e487b7100000000000000000000000000000000000000000000000000000000\n        /* \"#utility.yul\":20050:20051   */\n      0x00\n        /* \"#utility.yul\":20043:20131   */\n      mstore\n        /* \"#utility.yul\":20150:20154   */\n      0x11\n        /* \"#utility.yul\":20147:20148   */\n      0x04\n        /* \"#utility.yul\":20140:20155   */\n      mstore\n        /* \"#utility.yul\":20174:20178   */\n      0x24\n        /* \"#utility.yul\":20171:20172   */\n      0x00\n        /* \"#utility.yul\":20164:20179   */\n      revert\n        /* \"#utility.yul\":20191:20371   */\n    tag_531:\n        /* \"#utility.yul\":20239:20316   */\n      0x4e487b7100000000000000000000000000000000000000000000000000000000\n        /* \"#utility.yul\":20236:20237   */\n      0x00\n        /* \"#utility.yul\":20229:20317   */\n      mstore\n        /* \"#utility.yul\":20336:20340   */\n      0x22\n        /* \"#utility.yul\":20333:20334   */\n      0x04\n        /* \"#utility.yul\":20326:20341   */\n      mstore\n        /* \"#utility.yul\":20360:20364   */\n      0x24\n        /* \"#utility.yul\":20357:20358   */\n      0x00\n        /* \"#utility.yul\":20350:20365   */\n      revert\n        /* \"#utility.yul\":20377:20557   */\n    tag_280:\n        /* \"#utility.yul\":20425:20502   */\n      0x4e487b7100000000000000000000000000000000000000000000000000000000\n        /* \"#utility.yul\":20422:20423   */\n      0x00\n        /* \"#utility.yul\":20415:20503   */\n      mstore\n        /* \"#utility.yul\":20522:20526   */\n      0x32\n        /* \"#utility.yul\":20519:20520   */\n      0x04\n        /* \"#utility.yul\":20512:20527   */\n      mstore\n        /* \"#utility.yul\":20546:20550   */\n      0x24\n        /* \"#utility.yul\":20543:20544   */\n      0x00\n        /* \"#utility.yul\":20536:20551   */\n      revert\n        /* \"#utility.yul\":20563:20743   */\n    tag_276:\n        /* \"#utility.yul\":20611:20688   */\n      0x4e487b7100000000000000000000000000000000000000000000000000000000\n        /* \"#utility.yul\":20608:20609   */\n      0x00\n        /* \"#utility.yul\":20601:20689   */\n      mstore\n        /* \"#utility.yul\":20708:20712   */\n      0x41\n        /* \"#utility.yul\":20705:20706   */\n      0x04\n        /* \"#utility.yul\":20698:20713   */\n      mstore\n        /* \"#utility.yul\":20732:20736   */\n      0x24\n        /* \"#utility.yul\":20729:20730   */\n      0x00\n        /* \"#utility.yul\":20722:20737   */\n      revert\n        /* \"#utility.yul\":20872:20989   */\n    tag_321:\n        /* \"#utility.yul\":20981:20982   */\n      0x00\n        /* \"#utility.yul\":20978:20979   */\n      dup1\n        /* \"#utility.yul\":20971:20983   */\n      revert\n        /* \"#utility.yul\":20995:21097   */\n    tag_374:\n        /* \"#utility.yul\":21036:21042   */\n      0x00\n        /* \"#utility.yul\":21087:21089   */\n      0x1f\n        /* \"#utility.yul\":21083:21090   */\n      not\n        /* \"#utility.yul\":21078:21080   */\n      0x1f\n        /* \"#utility.yul\":21071:21076   */\n      dup4\n        /* \"#utility.yul\":21067:21081   */\n      add\n        /* \"#utility.yul\":21063:21091   */\n      and\n        /* \"#utility.yul\":21053:21091   */\n      swap1\n      pop\n        /* \"#utility.yul\":20995:21097   */\n      swap2\n      swap1\n      pop\n      jump\t// out\n        /* \"#utility.yul\":21103:21260   */\n    tag_385:\n        /* \"#utility.yul\":21243:21252   */\n      0x216d696e74657200000000000000000000000000000000000000000000000000\n        /* \"#utility.yul\":21239:21240   */\n      0x00\n        /* \"#utility.yul\":21231:21237   */\n      dup3\n        /* \"#utility.yul\":21227:21241   */\n      add\n        /* \"#utility.yul\":21220:21253   */\n      mstore\n        /* \"#utility.yul\":21103:21260   */\n      pop\n      jump\t// out\n        /* \"#utility.yul\":21266:21448   */\n    tag_390:\n        /* \"#utility.yul\":21406:21440   */\n      0x537472696e67733a20686578206c656e67746820696e73756666696369656e74\n        /* \"#utility.yul\":21402:21403   */\n      0x00\n        /* \"#utility.yul\":21394:21400   */\n      dup3\n        /* \"#utility.yul\":21390:21404   */\n      add\n        /* \"#utility.yul\":21383:21441   */\n      mstore\n        /* \"#utility.yul\":21266:21448   */\n      pop\n      jump\t// out\n        /* \"#utility.yul\":21454:21676   */\n    tag_395:\n        /* \"#utility.yul\":21594:21628   */\n      0x45524332303a207472616e7366657220746f20746865207a65726f2061646472\n        /* \"#utility.yul\":21590:21591   */\n      0x00\n        /* \"#utility.yul\":21582:21588   */\n      dup3\n        /* \"#utility.yul\":21578:21592   */\n      add\n        /* \"#utility.yul\":21571:21629   */\n      mstore\n        /* \"#utility.yul\":21663:21668   */\n      0x6573730000000000000000000000000000000000000000000000000000000000\n        /* \"#utility.yul\":21658:21660   */\n      0x20\n        /* \"#utility.yul\":21650:21656   */\n      dup3\n        /* \"#utility.yul\":21646:21661   */\n      add\n        /* \"#utility.yul\":21639:21669   */\n      mstore\n        /* \"#utility.yul\":21454:21676   */\n      pop\n      jump\t// out\n        /* \"#utility.yul\":21682:21903   */\n    tag_400:\n        /* \"#utility.yul\":21822:21856   */\n      0x45524332303a20617070726f766520746f20746865207a65726f206164647265\n        /* \"#utility.yul\":21818:21819   */\n      0x00\n        /* \"#utility.yul\":21810:21816   */\n      dup3\n        /* \"#utility.yul\":21806:21820   */\n      add\n        /* \"#utility.yul\":21799:21857   */\n      mstore\n        /* \"#utility.yul\":21891:21895   */\n      0x7373000000000000000000000000000000000000000000000000000000000000\n        /* \"#utility.yul\":21886:21888   */\n      0x20\n        /* \"#utility.yul\":21878:21884   */\n      dup3\n        /* \"#utility.yul\":21874:21889   */\n      add\n        /* \"#utility.yul\":21867:21896   */\n      mstore\n        /* \"#utility.yul\":21682:21903   */\n      pop\n      jump\t// out\n        /* \"#utility.yul\":21909:22088   */\n    tag_405:\n        /* \"#utility.yul\":22049:22080   */\n      0x45524332303a20696e73756666696369656e7420616c6c6f77616e6365000000\n        /* \"#utility.yul\":22045:22046   */\n      0x00\n        /* \"#utility.yul\":22037:22043   */\n      dup3\n        /* \"#utility.yul\":22033:22047   */\n      add\n        /* \"#utility.yul\":22026:22081   */\n      mstore\n        /* \"#utility.yul\":21909:22088   */\n      pop\n      jump\t// out\n        /* \"#utility.yul\":22094:22319   */\n    tag_410:\n        /* \"#utility.yul\":22234:22268   */\n      0x45524332303a207472616e7366657220616d6f756e7420657863656564732062\n        /* \"#utility.yul\":22230:22231   */\n      0x00\n        /* \"#utility.yul\":22222:22228   */\n      dup3\n        /* \"#utility.yul\":22218:22232   */\n      add\n        /* \"#utility.yul\":22211:22269   */\n      mstore\n        /* \"#utility.yul\":22303:22311   */\n      0x616c616e63650000000000000000000000000000000000000000000000000000\n        /* \"#utility.yul\":22298:22300   */\n      0x20\n        /* \"#utility.yul\":22290:22296   */\n      dup3\n        /* \"#utility.yul\":22286:22301   */\n      add\n        /* \"#utility.yul\":22279:22312   */\n      mstore\n        /* \"#utility.yul\":22094:22319   */\n      pop\n      jump\t// out\n        /* \"#utility.yul\":22325:22549   */\n    tag_415:\n        /* \"#utility.yul\":22465:22499   */\n      0x45524332303a207472616e736665722066726f6d20746865207a65726f206164\n        /* \"#utility.yul\":22461:22462   */\n      0x00\n        /* \"#utility.yul\":22453:22459   */\n      dup3\n        /* \"#utility.yul\":22449:22463   */\n      add\n        /* \"#utility.yul\":22442:22500   */\n      mstore\n        /* \"#utility.yul\":22534:22541   */\n      0x6472657373000000000000000000000000000000000000000000000000000000\n        /* \"#utility.yul\":22529:22531   */\n      0x20\n        /* \"#utility.yul\":22521:22527   */\n      dup3\n        /* \"#utility.yul\":22517:22532   */\n      add\n        /* \"#utility.yul\":22510:22542   */\n      mstore\n        /* \"#utility.yul\":22325:22549   */\n      pop\n      jump\t// out\n        /* \"#utility.yul\":22555:22778   */\n    tag_420:\n        /* \"#utility.yul\":22695:22729   */\n      0x45524332303a20617070726f76652066726f6d20746865207a65726f20616464\n        /* \"#utility.yul\":22691:22692   */\n      0x00\n        /* \"#utility.yul\":22683:22689   */\n      dup3\n        /* \"#utility.yul\":22679:22693   */\n      add\n        /* \"#utility.yul\":22672:22730   */\n      mstore\n        /* \"#utility.yul\":22764:22770   */\n      0x7265737300000000000000000000000000000000000000000000000000000000\n        /* \"#utility.yul\":22759:22761   */\n      0x20\n        /* \"#utility.yul\":22751:22757   */\n      dup3\n        /* \"#utility.yul\":22747:22762   */\n      add\n        /* \"#utility.yul\":22740:22771   */\n      mstore\n        /* \"#utility.yul\":22555:22778   */\n      pop\n      jump\t// out\n        /* \"#utility.yul\":22784:22957   */\n    tag_425:\n        /* \"#utility.yul\":22924:22949   */\n      0x416363657373436f6e74726f6c3a206163636f756e7420000000000000000000\n        /* \"#utility.yul\":22920:22921   */\n      0x00\n        /* \"#utility.yul\":22912:22918   */\n      dup3\n        /* \"#utility.yul\":22908:22922   */\n      add\n        /* \"#utility.yul\":22901:22950   */\n      mstore\n        /* \"#utility.yul\":22784:22957   */\n      pop\n      jump\t// out\n        /* \"#utility.yul\":22963:23187   */\n    tag_430:\n        /* \"#utility.yul\":23103:23137   */\n      0x45524332303a2064656372656173656420616c6c6f77616e63652062656c6f77\n        /* \"#utility.yul\":23099:23100   */\n      0x00\n        /* \"#utility.yul\":23091:23097   */\n      dup3\n        /* \"#utility.yul\":23087:23101   */\n      add\n        /* \"#utility.yul\":23080:23138   */\n      mstore\n        /* \"#utility.yul\":23172:23179   */\n      0x207a65726f000000000000000000000000000000000000000000000000000000\n        /* \"#utility.yul\":23167:23169   */\n      0x20\n        /* \"#utility.yul\":23159:23165   */\n      dup3\n        /* \"#utility.yul\":23155:23170   */\n      add\n        /* \"#utility.yul\":23148:23180   */\n      mstore\n        /* \"#utility.yul\":22963:23187   */\n      pop\n      jump\t// out\n        /* \"#utility.yul\":23193:23360   */\n    tag_435:\n        /* \"#utility.yul\":23333:23352   */\n      0x206973206d697373696e6720726f6c6520000000000000000000000000000000\n        /* \"#utility.yul\":23329:23330   */\n      0x00\n        /* \"#utility.yul\":23321:23327   */\n      dup3\n        /* \"#utility.yul\":23317:23331   */\n      add\n        /* \"#utility.yul\":23310:23353   */\n      mstore\n        /* \"#utility.yul\":23193:23360   */\n      pop\n      jump\t// out\n        /* \"#utility.yul\":23366:23600   */\n    tag_440:\n        /* \"#utility.yul\":23506:23540   */\n      0x416363657373436f6e74726f6c3a2063616e206f6e6c792072656e6f756e6365\n        /* \"#utility.yul\":23502:23503   */\n      0x00\n        /* \"#utility.yul\":23494:23500   */\n      dup3\n        /* \"#utility.yul\":23490:23504   */\n      add\n        /* \"#utility.yul\":23483:23541   */\n      mstore\n        /* \"#utility.yul\":23575:23592   */\n      0x20726f6c657320666f722073656c660000000000000000000000000000000000\n        /* \"#utility.yul\":23570:23572   */\n      0x20\n        /* \"#utility.yul\":23562:23568   */\n      dup3\n        /* \"#utility.yul\":23558:23573   */\n      add\n        /* \"#utility.yul\":23551:23593   */\n      mstore\n        /* \"#utility.yul\":23366:23600   */\n      pop\n      jump\t// out\n        /* \"#utility.yul\":23606:23787   */\n    tag_445:\n        /* \"#utility.yul\":23746:23779   */\n      0x45524332303a206d696e7420746f20746865207a65726f206164647265737300\n        /* \"#utility.yul\":23742:23743   */\n      0x00\n        /* \"#utility.yul\":23734:23740   */\n      dup3\n        /* \"#utility.yul\":23730:23744   */\n      add\n        /* \"#utility.yul\":23723:23780   */\n      mstore\n        /* \"#utility.yul\":23606:23787   */\n      pop\n      jump\t// out\n        /* \"#utility.yul\":23793:23915   */\n    tag_301:\n        /* \"#utility.yul\":23866:23890   */\n      tag_554\n        /* \"#utility.yul\":23884:23889   */\n      dup2\n        /* \"#utility.yul\":23866:23890   */\n      tag_507\n      jump\t// in\n    tag_554:\n        /* \"#utility.yul\":23859:23864   */\n      dup2\n        /* \"#utility.yul\":23856:23891   */\n      eq\n        /* \"#utility.yul\":23846:23909   */\n      tag_555\n      jumpi\n        /* \"#utility.yul\":23905:23906   */\n      0x00\n        /* \"#utility.yul\":23902:23903   */\n      dup1\n        /* \"#utility.yul\":23895:23907   */\n      revert\n        /* \"#utility.yul\":23846:23909   */\n    tag_555:\n        /* \"#utility.yul\":23793:23915   */\n      pop\n      jump\t// out\n        /* \"#utility.yul\":23921:24037   */\n    tag_305:\n        /* \"#utility.yul\":23991:24012   */\n      tag_557\n        /* \"#utility.yul\":24006:24011   */\n      dup2\n        /* \"#utility.yul\":23991:24012   */\n      tag_360\n      jump\t// in\n    tag_557:\n        /* \"#utility.yul\":23984:23989   */\n      dup2\n        /* \"#utility.yul\":23981:24013   */\n      eq\n        /* \"#utility.yul\":23971:24031   */\n      tag_558\n      jumpi\n        /* \"#utility.yul\":24027:24028   */\n      0x00\n        /* \"#utility.yul\":24024:24025   */\n      dup1\n        /* \"#utility.yul\":24017:24029   */\n      revert\n        /* \"#utility.yul\":23971:24031   */\n    tag_558:\n        /* \"#utility.yul\":23921:24037   */\n      pop\n      jump\t// out\n        /* \"#utility.yul\":24043:24165   */\n    tag_309:\n        /* \"#utility.yul\":24116:24140   */\n      tag_560\n        /* \"#utility.yul\":24134:24139   */\n      dup2\n        /* \"#utility.yul\":24116:24140   */\n      tag_364\n      jump\t// in\n    tag_560:\n        /* \"#utility.yul\":24109:24114   */\n      dup2\n        /* \"#utility.yul\":24106:24141   */\n      eq\n        /* \"#utility.yul\":24096:24159   */\n      tag_561\n      jumpi\n        /* \"#utility.yul\":24155:24156   */\n      0x00\n        /* \"#utility.yul\":24152:24153   */\n      dup1\n        /* \"#utility.yul\":24145:24157   */\n      revert\n        /* \"#utility.yul\":24096:24159   */\n    tag_561:\n        /* \"#utility.yul\":24043:24165   */\n      pop\n      jump\t// out\n        /* \"#utility.yul\":24171:24291   */\n    tag_313:\n        /* \"#utility.yul\":24243:24266   */\n      tag_563\n        /* \"#utility.yul\":24260:24265   */\n      dup2\n        /* \"#utility.yul\":24243:24266   */\n      tag_513\n      jump\t// in\n    tag_563:\n        /* \"#utility.yul\":24236:24241   */\n      dup2\n        /* \"#utility.yul\":24233:24267   */\n      eq\n        /* \"#utility.yul\":24223:24285   */\n      tag_564\n      jumpi\n        /* \"#utility.yul\":24281:24282   */\n      0x00\n        /* \"#utility.yul\":24278:24279   */\n      dup1\n        /* \"#utility.yul\":24271:24283   */\n      revert\n        /* \"#utility.yul\":24223:24285   */\n    tag_564:\n        /* \"#utility.yul\":24171:24291   */\n      pop\n      jump\t// out\n        /* \"#utility.yul\":24297:24419   */\n    tag_317:\n        /* \"#utility.yul\":24370:24394   */\n      tag_566\n        /* \"#utility.yul\":24388:24393   */\n      dup2\n        /* \"#utility.yul\":24370:24394   */\n      tag_449\n      jump\t// in\n    tag_566:\n        /* \"#utility.yul\":24363:24368   */\n      dup2\n        /* \"#utility.yul\":24360:24395   */\n      eq\n        /* \"#utility.yul\":24350:24413   */\n      tag_567\n      jumpi\n        /* \"#utility.yul\":24409:24410   */\n      0x00\n        /* \"#utility.yul\":24406:24407   */\n      dup1\n        /* \"#utility.yul\":24399:24411   */\n      revert\n        /* \"#utility.yul\":24350:24413   */\n    tag_567:\n        /* \"#utility.yul\":24297:24419   */\n      pop\n      jump\t// out\n\n    auxdata: 0xa2646970667358221220a98d4e24fc8f1d3a180003a1c04595685649e0d2c3f57f436769dd74a25134b764736f6c63430008070033\n}\n",
				"bytecode": {
					"linkReferences": {},
					"object": "60806040523480156200001157600080fd5b506040518060400160405280600a81526020017f4c69726961546f6b656e000000000000000000000000000000000000000000008152506040518060400160405280600381526020017f4c5241000000000000000000000000000000000000000000000000000000000081525081600390805190602001906200009692919062000265565b508060049080519060200190620000af92919062000265565b505050620000e47fa49807205ce4d355092ef5a8a18f56e8913cf4a201fbe287825b095693c2177533620000ea60201b60201c565b6200037a565b620000fc82826200010060201b60201c565b5050565b620001128282620001f260201b60201c565b620001ee5760016005600084815260200190815260200160002060000160008373ffffffffffffffffffffffffffffffffffffffff1673ffffffffffffffffffffffffffffffffffffffff16815260200190815260200160002060006101000a81548160ff021916908315150217905550620001936200025d60201b60201c565b73ffffffffffffffffffffffffffffffffffffffff168173ffffffffffffffffffffffffffffffffffffffff16837f2f8788117e7eff1d82e926ec794901d17c78024a50270940304540a733656f0d60405160405180910390a45b5050565b60006005600084815260200190815260200160002060000160008373ffffffffffffffffffffffffffffffffffffffff1673ffffffffffffffffffffffffffffffffffffffff16815260200190815260200160002060009054906101000a900460ff16905092915050565b600033905090565b828054620002739062000315565b90600052602060002090601f016020900481019282620002975760008555620002e3565b82601f10620002b257805160ff1916838001178555620002e3565b82800160010185558215620002e3579182015b82811115620002e2578251825591602001919060010190620002c5565b5b509050620002f29190620002f6565b5090565b5b8082111562000311576000816000905550600101620002f7565b5090565b600060028204905060018216806200032e57607f821691505b602082108114156200034557620003446200034b565b5b50919050565b7f4e487b7100000000000000000000000000000000000000000000000000000000600052602260045260246000fd5b6123d7806200038a6000396000f3fe608060405234801561001057600080fd5b50600436106101425760003560e01c806340c10f19116100b8578063a217fddf1161007c578063a217fddf1461039d578063a457c2d7146103bb578063a9059cbb146103eb578063d53913931461041b578063d547741f14610439578063dd62ed3e1461045557610142565b806340c10f19146102e557806370a082311461030157806375b238fc1461033157806391d148541461034f57806395d89b411461037f57610142565b806323b872dd1161010a57806323b872dd146101ff578063248a9ca31461022f5780632f2ff15d1461025f578063313ce5671461027b57806336568abe1461029957806339509351146102b557610142565b806301ffc9a71461014757806306fdde0314610177578063090f78dc14610195578063095ea7b3146101b157806318160ddd146101e1575b600080fd5b610161600480360381019061015c919061188a565b610485565b60405161016e9190611b5e565b60405180910390f35b61017f6104ff565b60405161018c9190611b94565b60405180910390f35b6101af60048036038101906101aa919061179d565b610591565b005b6101cb60048036038101906101c691906117dd565b610690565b6040516101d89190611b5e565b60405180910390f35b6101e96106b3565b6040516101f69190611d16565b60405180910390f35b6102196004803603810190610214919061174a565b6106bd565b6040516102269190611b5e565b60405180910390f35b6102496004803603810190610244919061181d565b6106ec565b6040516102569190611b79565b60405180910390f35b6102796004803603810190610274919061184a565b61070c565b005b61028361072d565b6040516102909190611d31565b60405180910390f35b6102b360048036038101906102ae919061184a565b610736565b005b6102cf60048036038101906102ca91906117dd565b6107b9565b6040516102dc9190611b5e565b60405180910390f35b6102ff60048036038101906102fa91906117dd565b6107f0565b005b61031b600480360381019061031691906116dd565b610829565b6040516103289190611d16565b60405180910390f35b610339610871565b6040516103469190611b79565b60405180910390f35b6103696004803603810190610364919061184a565b610895565b6040516103769190611b5e565b60405180910390f35b610387610900565b6040516103949190611b94565b60405180910390f35b6103a5610992565b6040516103b29190611b79565b60405180910390f35b6103d560048036038101906103d091906117dd565b610999565b6040516103e29190611b5e565b60405180910390f35b610405600480360381019061040091906117dd565b610a10565b6040516104129190611b5e565b60405180910390f35b610423610a33565b6040516104309190611b79565b60405180910390f35b610453600480360381019061044e919061184a565b610a57565b005b61046f600480360381019061046a919061170a565b610a78565b60405161047c9190611d16565b60405180910390f35b60007f7965db0b000000000000000000000000000000000000000000000000000000007bffffffffffffffffffffffffffffffffffffffffffffffffffffffff1916827bffffffffffffffffffffffffffffffffffffffffffffffffffffffff191614806104f857506104f782610aff565b5b9050919050565b60606003805461050e90611f0b565b80601f016020809104026020016040519081016040528092919081815260200182805461053a90611f0b565b80156105875780601f1061055c57610100808354040283529160200191610587565b820191906000526020600020905b81548152906001019060200180831161056a57829003601f168201915b5050505050905090565b7fa49807205ce4d355092ef5a8a18f56e8913cf4a201fbe287825b095693c217756105bb81610b69565b600073ffffffffffffffffffffffffffffffffffffffff168373ffffffffffffffffffffffffffffffffffffffff16141561062b576040517f08c379a000000000000000000000000000000000000000000000000000000000815260040161062290611bb6565b60405180910390fd5b81156106605761065b7f9f2df0fed2c77648de5860a4cc508cd0818c85b8b8a1ab4ceeef8d981c8956a684610b7d565b61068b565b61068a7f9f2df0fed2c77648de5860a4cc508cd0818c85b8b8a1ab4ceeef8d981c8956a684610b8b565b5b505050565b60008061069b610c6d565b90506106a8818585610c75565b600191505092915050565b6000600254905090565b6000806106c8610c6d565b90506106d5858285610e40565b6106e0858585610ecc565b60019150509392505050565b600060056000838152602001908152602001600020600101549050919050565b610715826106ec565b61071e81610b69565b6107288383611144565b505050565b60006012905090565b61073e610c6d565b73ffffffffffffffffffffffffffffffffffffffff168173ffffffffffffffffffffffffffffffffffffffff16146107ab576040517f08c379a00000000000000000000000000000000000000000000000000000000081526004016107a290611cd6565b60405180910390fd5b6107b58282610b8b565b5050565b6000806107c4610c6d565b90506107e58185856107d68589610a78565b6107e09190611d73565b610c75565b600191505092915050565b7f9f2df0fed2c77648de5860a4cc508cd0818c85b8b8a1ab4ceeef8d981c8956a661081a81610b69565b6108248383611225565b505050565b60008060008373ffffffffffffffffffffffffffffffffffffffff1673ffffffffffffffffffffffffffffffffffffffff168152602001908152602001600020549050919050565b7fa49807205ce4d355092ef5a8a18f56e8913cf4a201fbe287825b095693c2177581565b60006005600084815260200190815260200160002060000160008373ffffffffffffffffffffffffffffffffffffffff1673ffffffffffffffffffffffffffffffffffffffff16815260200190815260200160002060009054906101000a900460ff16905092915050565b60606004805461090f90611f0b565b80601f016020809104026020016040519081016040528092919081815260200182805461093b90611f0b565b80156109885780601f1061095d57610100808354040283529160200191610988565b820191906000526020600020905b81548152906001019060200180831161096b57829003601f168201915b5050505050905090565b6000801b81565b6000806109a4610c6d565b905060006109b28286610a78565b9050838110156109f7576040517f08c379a00000000000000000000000000000000000000000000000000000000081526004016109ee90611cb6565b60405180910390fd5b610a048286868403610c75565b60019250505092915050565b600080610a1b610c6d565b9050610a28818585610ecc565b600191505092915050565b7f9f2df0fed2c77648de5860a4cc508cd0818c85b8b8a1ab4ceeef8d981c8956a681565b610a60826106ec565b610a6981610b69565b610a738383610b8b565b505050565b6000600160008473ffffffffffffffffffffffffffffffffffffffff1673ffffffffffffffffffffffffffffffffffffffff16815260200190815260200160002060008373ffffffffffffffffffffffffffffffffffffffff1673ffffffffffffffffffffffffffffffffffffffff16815260200190815260200160002054905092915050565b60007f01ffc9a7000000000000000000000000000000000000000000000000000000007bffffffffffffffffffffffffffffffffffffffffffffffffffffffff1916827bffffffffffffffffffffffffffffffffffffffffffffffffffffffff1916149050919050565b610b7a81610b75610c6d565b61137c565b50565b610b878282611144565b5050565b610b958282610895565b15610c695760006005600084815260200190815260200160002060000160008373ffffffffffffffffffffffffffffffffffffffff1673ffffffffffffffffffffffffffffffffffffffff16815260200190815260200160002060006101000a81548160ff021916908315150217905550610c0e610c6d565b73ffffffffffffffffffffffffffffffffffffffff168173ffffffffffffffffffffffffffffffffffffffff16837ff6391f5c32d9c69d2a47ea670b442974b53935d1edc7fd64eb21e047a839171b60405160405180910390a45b5050565b600033905090565b600073ffffffffffffffffffffffffffffffffffffffff168373ffffffffffffffffffffffffffffffffffffffff161415610ce5576040517f08c379a0000000000000000000000000000000000000000000000000000000008152600401610cdc90611c96565b60405180910390fd5b600073ffffffffffffffffffffffffffffffffffffffff168273ffffffffffffffffffffffffffffffffffffffff161415610d55576040517f08c379a0000000000000000000000000000000000000000000000000000000008152600401610d4c90611c16565b60405180910390fd5b80600160008573ffffffffffffffffffffffffffffffffffffffff1673ffffffffffffffffffffffffffffffffffffffff16815260200190815260200160002060008473ffffffffffffffffffffffffffffffffffffffff1673ffffffffffffffffffffffffffffffffffffffff168152602001908152602001600020819055508173ffffffffffffffffffffffffffffffffffffffff168373ffffffffffffffffffffffffffffffffffffffff167f8c5be1e5ebec7d5bd14f71427d1e84f3dd0314c0f7b2291e5b200ac8c7c3b92583604051610e339190611d16565b60405180910390a3505050565b6000610e4c8484610a78565b90507fffffffffffffffffffffffffffffffffffffffffffffffffffffffffffffffff8114610ec65781811015610eb8576040517f08c379a0000000000000000000000000000000000000000000000000000000008152600401610eaf90611c36565b60405180910390fd5b610ec58484848403610c75565b5b50505050565b600073ffffffffffffffffffffffffffffffffffffffff168373ffffffffffffffffffffffffffffffffffffffff161415610f3c576040517f08c379a0000000000000000000000000000000000000000000000000000000008152600401610f3390611c76565b60405180910390fd5b600073ffffffffffffffffffffffffffffffffffffffff168273ffffffffffffffffffffffffffffffffffffffff161415610fac576040517f08c379a0000000000000000000000000000000000000000000000000000000008152600401610fa390611bf6565b60405180910390fd5b610fb7838383611401565b60008060008573ffffffffffffffffffffffffffffffffffffffff1673ffffffffffffffffffffffffffffffffffffffff1681526020019081526020016000205490508181101561103d576040517f08c379a000000000000000000000000000000000000000000000000000000000815260040161103490611c56565b60405180910390fd5b8181036000808673ffffffffffffffffffffffffffffffffffffffff1673ffffffffffffffffffffffffffffffffffffffff16815260200190815260200160002081905550816000808573ffffffffffffffffffffffffffffffffffffffff1673ffffffffffffffffffffffffffffffffffffffff168152602001908152602001600020600082825401925050819055508273ffffffffffffffffffffffffffffffffffffffff168473ffffffffffffffffffffffffffffffffffffffff167fddf252ad1be2c89b69c2b068fc378daa952ba7f163c4a11628f55a4df523b3ef8460405161112b9190611d16565b60405180910390a361113e848484611406565b50505050565b61114e8282610895565b6112215760016005600084815260200190815260200160002060000160008373ffffffffffffffffffffffffffffffffffffffff1673ffffffffffffffffffffffffffffffffffffffff16815260200190815260200160002060006101000a81548160ff0219169083151502179055506111c6610c6d565b73ffffffffffffffffffffffffffffffffffffffff168173ffffffffffffffffffffffffffffffffffffffff16837f2f8788117e7eff1d82e926ec794901d17c78024a50270940304540a733656f0d60405160405180910390a45b5050565b600073ffffffffffffffffffffffffffffffffffffffff168273ffffffffffffffffffffffffffffffffffffffff161415611295576040517f08c379a000000000000000000000000000000000000000000000000000000000815260040161128c90611cf6565b60405180910390fd5b6112a160008383611401565b80600260008282546112b39190611d73565b92505081905550806000808473ffffffffffffffffffffffffffffffffffffffff1673ffffffffffffffffffffffffffffffffffffffff168152602001908152602001600020600082825401925050819055508173ffffffffffffffffffffffffffffffffffffffff16600073ffffffffffffffffffffffffffffffffffffffff167fddf252ad1be2c89b69c2b068fc378daa952ba7f163c4a11628f55a4df523b3ef836040516113649190611d16565b60405180910390a361137860008383611406565b5050565b6113868282610895565b6113fd576113938161140b565b6113a18360001c6020611438565b6040516020016113b2929190611b24565b6040516020818303038152906040526040517f08c379a00000000000000000000000000000000000000000000000000000000081526004016113f49190611b94565b60405180910390fd5b5050565b505050565b505050565b60606114318273ffffffffffffffffffffffffffffffffffffffff16601460ff16611438565b9050919050565b60606000600283600261144b9190611dc9565b6114559190611d73565b67ffffffffffffffff81111561146e5761146d611fca565b5b6040519080825280601f01601f1916602001820160405280156114a05781602001600182028036833780820191505090505b5090507f3000000000000000000000000000000000000000000000000000000000000000816000815181106114d8576114d7611f9b565b5b60200101907effffffffffffffffffffffffffffffffffffffffffffffffffffffffffffff1916908160001a9053507f78000000000000000000000000000000000000000000000000000000000000008160018151811061153c5761153b611f9b565b5b60200101907effffffffffffffffffffffffffffffffffffffffffffffffffffffffffffff1916908160001a9053506000600184600261157c9190611dc9565b6115869190611d73565b90505b6001811115611626577f3031323334353637383961626364656600000000000000000000000000000000600f8616601081106115c8576115c7611f9b565b5b1a60f81b8282815181106115df576115de611f9b565b5b60200101907effffffffffffffffffffffffffffffffffffffffffffffffffffffffffffff1916908160001a905350600485901c94508061161f90611ee1565b9050611589565b506000841461166a576040517f08c379a000000000000000000000000000000000000000000000000000000000815260040161166190611bd6565b60405180910390fd5b8091505092915050565b6000813590506116838161232e565b92915050565b60008135905061169881612345565b92915050565b6000813590506116ad8161235c565b92915050565b6000813590506116c281612373565b92915050565b6000813590506116d78161238a565b92915050565b6000602082840312156116f3576116f2611ff9565b5b600061170184828501611674565b91505092915050565b6000806040838503121561172157611720611ff9565b5b600061172f85828601611674565b925050602061174085828601611674565b9150509250929050565b60008060006060848603121561176357611762611ff9565b5b600061177186828701611674565b935050602061178286828701611674565b9250506040611793868287016116c8565b9150509250925092565b600080604083850312156117b4576117b3611ff9565b5b60006117c285828601611674565b92505060206117d385828601611689565b9150509250929050565b600080604083850312156117f4576117f3611ff9565b5b600061180285828601611674565b9250506020611813858286016116c8565b9150509250929050565b60006020828403121561183357611832611ff9565b5b60006118418482850161169e565b91505092915050565b6000806040838503121561186157611860611ff9565b5b600061186f8582860161169e565b925050602061188085828601611674565b9150509250929050565b6000602082840312156118a05761189f611ff9565b5b60006118ae848285016116b3565b91505092915050565b6118c081611e35565b82525050565b6118cf81611e41565b82525050565b60006118e082611d4c565b6118ea8185611d57565b93506118fa818560208601611eae565b61190381611ffe565b840191505092915050565b600061191982611d4c565b6119238185611d68565b9350611933818560208601611eae565b80840191505092915050565b600061194c600783611d57565b91506119578261200f565b602082019050919050565b600061196f602083611d57565b915061197a82612038565b602082019050919050565b6000611992602383611d57565b915061199d82612061565b604082019050919050565b60006119b5602283611d57565b91506119c0826120b0565b604082019050919050565b60006119d8601d83611d57565b91506119e3826120ff565b602082019050919050565b60006119fb602683611d57565b9150611a0682612128565b604082019050919050565b6000611a1e602583611d57565b9150611a2982612177565b604082019050919050565b6000611a41602483611d57565b9150611a4c826121c6565b604082019050919050565b6000611a64601783611d68565b9150611a6f82612215565b601782019050919050565b6000611a87602583611d57565b9150611a928261223e565b604082019050919050565b6000611aaa601183611d68565b9150611ab58261228d565b601182019050919050565b6000611acd602f83611d57565b9150611ad8826122b6565b604082019050919050565b6000611af0601f83611d57565b9150611afb82612305565b602082019050919050565b611b0f81611e97565b82525050565b611b1e81611ea1565b82525050565b6000611b2f82611a57565b9150611b3b828561190e565b9150611b4682611a9d565b9150611b52828461190e565b91508190509392505050565b6000602082019050611b7360008301846118b7565b92915050565b6000602082019050611b8e60008301846118c6565b92915050565b60006020820190508181036000830152611bae81846118d5565b905092915050565b60006020820190508181036000830152611bcf8161193f565b9050919050565b60006020820190508181036000830152611bef81611962565b9050919050565b60006020820190508181036000830152611c0f81611985565b9050919050565b60006020820190508181036000830152611c2f816119a8565b9050919050565b60006020820190508181036000830152611c4f816119cb565b9050919050565b60006020820190508181036000830152611c6f816119ee565b9050919050565b60006020820190508181036000830152611c8f81611a11565b9050919050565b60006020820190508181036000830152611caf81611a34565b9050919050565b60006020820190508181036000830152611ccf81611a7a565b9050919050565b60006020820190508181036000830152611cef81611ac0565b9050919050565b60006020820190508181036000830152611d0f81611ae3565b9050919050565b6000602082019050611d2b6000830184611b06565b92915050565b6000602082019050611d466000830184611b15565b92915050565b600081519050919050565b600082825260208201905092915050565b600081905092915050565b6000611d7e82611e97565b9150611d8983611e97565b9250827fffffffffffffffffffffffffffffffffffffffffffffffffffffffffffffffff03821115611dbe57611dbd611f3d565b5b828201905092915050565b6000611dd482611e97565b9150611ddf83611e97565b9250817fffffffffffffffffffffffffffffffffffffffffffffffffffffffffffffffff0483118215151615611e1857611e17611f3d565b5b828202905092915050565b6000611e2e82611e77565b9050919050565b60008115159050919050565b6000819050919050565b60007fffffffff0000000000000000000000000000000000000000000000000000000082169050919050565b600073ffffffffffffffffffffffffffffffffffffffff82169050919050565b6000819050919050565b600060ff82169050919050565b60005b83811015611ecc578082015181840152602081019050611eb1565b83811115611edb576000848401525b50505050565b6000611eec82611e97565b91506000821415611f0057611eff611f3d565b5b600182039050919050565b60006002820490506001821680611f2357607f821691505b60208210811415611f3757611f36611f6c565b5b50919050565b7f4e487b7100000000000000000000000000000000000000000000000000000000600052601160045260246000fd5b7f4e487b7100000000000000000000000000000000000000000000000000000000600052602260045260246000fd5b7f4e487b7100000000000000000000000000000000000000000000000000000000600052603260045260246000fd5b7f4e487b7100000000000000000000000000000000000000000000000000000000600052604160045260246000fd5b600080fd5b6000601f19601f8301169050919050565b7f216d696e74657200000000000000000000000000000000000000000000000000600082015250565b7f537472696e67733a20686578206c656e67746820696e73756666696369656e74600082015250565b7f45524332303a207472616e7366657220746f20746865207a65726f206164647260008201527f6573730000000000000000000000000000000000000000000000000000000000602082015250565b7f45524332303a20617070726f766520746f20746865207a65726f20616464726560008201527f7373000000000000000000000000000000000000000000000000000000000000602082015250565b7f45524332303a20696e73756666696369656e7420616c6c6f77616e6365000000600082015250565b7f45524332303a207472616e7366657220616d6f756e742065786365656473206260008201527f616c616e63650000000000000000000000000000000000000000000000000000602082015250565b7f45524332303a207472616e736665722066726f6d20746865207a65726f20616460008201527f6472657373000000000000000000000000000000000000000000000000000000602082015250565b7f45524332303a20617070726f76652066726f6d20746865207a65726f2061646460008201527f7265737300000000000000000000000000000000000000000000000000000000602082015250565b7f416363657373436f6e74726f6c3a206163636f756e7420000000000000000000600082015250565b7f45524332303a2064656372656173656420616c6c6f77616e63652062656c6f7760008201527f207a65726f000000000000000000000000000000000000000000000000000000602082015250565b7f206973206d697373696e6720726f6c6520000000000000000000000000000000600082015250565b7f416363657373436f6e74726f6c3a2063616e206f6e6c792072656e6f756e636560008201527f20726f6c657320666f722073656c660000000000000000000000000000000000602082015250565b7f45524332303a206d696e7420746f20746865207a65726f206164647265737300600082015250565b61233781611e23565b811461234257600080fd5b50565b61234e81611e35565b811461235957600080fd5b50565b61236581611e41565b811461237057600080fd5b50565b61237c81611e4b565b811461238757600080fd5b50565b61239381611e97565b811461239e57600080fd5b5056fea2646970667358221220a98d4e24fc8f1d3a180003a1c04595685649e0d2c3f57f436769dd74a25134b764736f6c63430008070033",
					"opcodes": "PUSH1 0x80 PUSH1 0x40 MSTORE CALLVALUE DUP1 ISZERO PUSH3 0x11 JUMPI PUSH1 0x0 DUP1 REVERT JUMPDEST POP PUSH1 0x40 MLOAD DUP1 PUSH1 0x40 ADD PUSH1 0x40 MSTORE DUP1 PUSH1 0xA DUP2 MSTORE PUSH1 0x20 ADD PUSH32 0x4C69726961546F6B656E00000000000000000000000000000000000000000000 DUP2 MSTORE POP PUSH1 0x40 MLOAD DUP1 PUSH1 0x40 ADD PUSH1 0x40 MSTORE DUP1 PUSH1 0x3 DUP2 MSTORE PUSH1 0x20 ADD PUSH32 0x4C52410000000000000000000000000000000000000000000000000000000000 DUP2 MSTORE POP DUP2 PUSH1 0x3 SWAP1 DUP1 MLOAD SWAP1 PUSH1 0x20 ADD SWAP1 PUSH3 0x96 SWAP3 SWAP2 SWAP1 PUSH3 0x265 JUMP JUMPDEST POP DUP1 PUSH1 0x4 SWAP1 DUP1 MLOAD SWAP1 PUSH1 0x20 ADD SWAP1 PUSH3 0xAF SWAP3 SWAP2 SWAP1 PUSH3 0x265 JUMP JUMPDEST POP POP POP PUSH3 0xE4 PUSH32 0xA49807205CE4D355092EF5A8A18F56E8913CF4A201FBE287825B095693C21775 CALLER PUSH3 0xEA PUSH1 0x20 SHL PUSH1 0x20 SHR JUMP JUMPDEST PUSH3 0x37A JUMP JUMPDEST PUSH3 0xFC DUP3 DUP3 PUSH3 0x100 PUSH1 0x20 SHL PUSH1 0x20 SHR JUMP JUMPDEST POP POP JUMP JUMPDEST PUSH3 0x112 DUP3 DUP3 PUSH3 0x1F2 PUSH1 0x20 SHL PUSH1 0x20 SHR JUMP JUMPDEST PUSH3 0x1EE JUMPI PUSH1 0x1 PUSH1 0x5 PUSH1 0x0 DUP5 DUP2 MSTORE PUSH1 0x20 ADD SWAP1 DUP2 MSTORE PUSH1 0x20 ADD PUSH1 0x0 KECCAK256 PUSH1 0x0 ADD PUSH1 0x0 DUP4 PUSH20 0xFFFFFFFFFFFFFFFFFFFFFFFFFFFFFFFFFFFFFFFF AND PUSH20 0xFFFFFFFFFFFFFFFFFFFFFFFFFFFFFFFFFFFFFFFF AND DUP2 MSTORE PUSH1 0x20 ADD SWAP1 DUP2 MSTORE PUSH1 0x20 ADD PUSH1 0x0 KECCAK256 PUSH1 0x0 PUSH2 0x100 EXP DUP2 SLOAD DUP2 PUSH1 0xFF MUL NOT AND SWAP1 DUP4 ISZERO ISZERO MUL OR SWAP1 SSTORE POP PUSH3 0x193 PUSH3 0x25D PUSH1 0x20 SHL PUSH1 0x20 SHR JUMP JUMPDEST PUSH20 0xFFFFFFFFFFFFFFFFFFFFFFFFFFFFFFFFFFFFFFFF AND DUP2 PUSH20 0xFFFFFFFFFFFFFFFFFFFFFFFFFFFFFFFFFFFFFFFF AND DUP4 PUSH32 0x2F8788117E7EFF1D82E926EC794901D17C78024A50270940304540A733656F0D PUSH1 0x40 MLOAD PUSH1 0x40 MLOAD DUP1 SWAP2 SUB SWAP1 LOG4 JUMPDEST POP POP JUMP JUMPDEST PUSH1 0x0 PUSH1 0x5 PUSH1 0x0 DUP5 DUP2 MSTORE PUSH1 0x20 ADD SWAP1 DUP2 MSTORE PUSH1 0x20 ADD PUSH1 0x0 KECCAK256 PUSH1 0x0 ADD PUSH1 0x0 DUP4 PUSH20 0xFFFFFFFFFFFFFFFFFFFFFFFFFFFFFFFFFFFFFFFF AND PUSH20 0xFFFFFFFFFFFFFFFFFFFFFFFFFFFFFFFFFFFFFFFF AND DUP2 MSTORE PUSH1 0x20 ADD SWAP1 DUP2 MSTORE PUSH1 0x20 ADD PUSH1 0x0 KECCAK256 PUSH1 0x0 SWAP1 SLOAD SWAP1 PUSH2 0x100 EXP SWAP1 DIV PUSH1 0xFF AND SWAP1 POP SWAP3 SWAP2 POP POP JUMP JUMPDEST PUSH1 0x0 CALLER SWAP1 POP SWAP1 JUMP JUMPDEST DUP3 DUP1 SLOAD PUSH3 0x273 SWAP1 PUSH3 0x315 JUMP JUMPDEST SWAP1 PUSH1 0x0 MSTORE PUSH1 0x20 PUSH1 0x0 KECCAK256 SWAP1 PUSH1 0x1F ADD PUSH1 0x20 SWAP1 DIV DUP2 ADD SWAP3 DUP3 PUSH3 0x297 JUMPI PUSH1 0x0 DUP6 SSTORE PUSH3 0x2E3 JUMP JUMPDEST DUP3 PUSH1 0x1F LT PUSH3 0x2B2 JUMPI DUP1 MLOAD PUSH1 0xFF NOT AND DUP4 DUP1 ADD OR DUP6 SSTORE PUSH3 0x2E3 JUMP JUMPDEST DUP3 DUP1 ADD PUSH1 0x1 ADD DUP6 SSTORE DUP3 ISZERO PUSH3 0x2E3 JUMPI SWAP2 DUP3 ADD JUMPDEST DUP3 DUP2 GT ISZERO PUSH3 0x2E2 JUMPI DUP3 MLOAD DUP3 SSTORE SWAP2 PUSH1 0x20 ADD SWAP2 SWAP1 PUSH1 0x1 ADD SWAP1 PUSH3 0x2C5 JUMP JUMPDEST JUMPDEST POP SWAP1 POP PUSH3 0x2F2 SWAP2 SWAP1 PUSH3 0x2F6 JUMP JUMPDEST POP SWAP1 JUMP JUMPDEST JUMPDEST DUP1 DUP3 GT ISZERO PUSH3 0x311 JUMPI PUSH1 0x0 DUP2 PUSH1 0x0 SWAP1 SSTORE POP PUSH1 0x1 ADD PUSH3 0x2F7 JUMP JUMPDEST POP SWAP1 JUMP JUMPDEST PUSH1 0x0 PUSH1 0x2 DUP3 DIV SWAP1 POP PUSH1 0x1 DUP3 AND DUP1 PUSH3 0x32E JUMPI PUSH1 0x7F DUP3 AND SWAP2 POP JUMPDEST PUSH1 0x20 DUP3 LT DUP2 EQ ISZERO PUSH3 0x345 JUMPI PUSH3 0x344 PUSH3 0x34B JUMP JUMPDEST JUMPDEST POP SWAP2 SWAP1 POP JUMP JUMPDEST PUSH32 0x4E487B7100000000000000000000000000000000000000000000000000000000 PUSH1 0x0 MSTORE PUSH1 0x22 PUSH1 0x4 MSTORE PUSH1 0x24 PUSH1 0x0 REVERT JUMPDEST PUSH2 0x23D7 DUP1 PUSH3 0x38A PUSH1 0x0 CODECOPY PUSH1 0x0 RETURN INVALID PUSH1 0x80 PUSH1 0x40 MSTORE CALLVALUE DUP1 ISZERO PUSH2 0x10 JUMPI PUSH1 0x0 DUP1 REVERT JUMPDEST POP PUSH1 0x4 CALLDATASIZE LT PUSH2 0x142 JUMPI PUSH1 0x0 CALLDATALOAD PUSH1 0xE0 SHR DUP1 PUSH4 0x40C10F19 GT PUSH2 0xB8 JUMPI DUP1 PUSH4 0xA217FDDF GT PUSH2 0x7C JUMPI DUP1 PUSH4 0xA217FDDF EQ PUSH2 0x39D JUMPI DUP1 PUSH4 0xA457C2D7 EQ PUSH2 0x3BB JUMPI DUP1 PUSH4 0xA9059CBB EQ PUSH2 0x3EB JUMPI DUP1 PUSH4 0xD5391393 EQ PUSH2 0x41B JUMPI DUP1 PUSH4 0xD547741F EQ PUSH2 0x439 JUMPI DUP1 PUSH4 0xDD62ED3E EQ PUSH2 0x455 JUMPI PUSH2 0x142 JUMP JUMPDEST DUP1 PUSH4 0x40C10F19 EQ PUSH2 0x2E5 JUMPI DUP1 PUSH4 0x70A08231 EQ PUSH2 0x301 JUMPI DUP1 PUSH4 0x75B238FC EQ PUSH2 0x331 JUMPI DUP1 PUSH4 0x91D14854 EQ PUSH2 0x34F JUMPI DUP1 PUSH4 0x95D89B41 EQ PUSH2 0x37F JUMPI PUSH2 0x142 JUMP JUMPDEST DUP1 PUSH4 0x23B872DD GT PUSH2 0x10A JUMPI DUP1 PUSH4 0x23B872DD EQ PUSH2 0x1FF JUMPI DUP1 PUSH4 0x248A9CA3 EQ PUSH2 0x22F JUMPI DUP1 PUSH4 0x2F2FF15D EQ PUSH2 0x25F JUMPI DUP1 PUSH4 0x313CE567 EQ PUSH2 0x27B JUMPI DUP1 PUSH4 0x36568ABE EQ PUSH2 0x299 JUMPI DUP1 PUSH4 0x39509351 EQ PUSH2 0x2B5 JUMPI PUSH2 0x142 JUMP JUMPDEST DUP1 PUSH4 0x1FFC9A7 EQ PUSH2 0x147 JUMPI DUP1 PUSH4 0x6FDDE03 EQ PUSH2 0x177 JUMPI DUP1 PUSH4 0x90F78DC EQ PUSH2 0x195 JUMPI DUP1 PUSH4 0x95EA7B3 EQ PUSH2 0x1B1 JUMPI DUP1 PUSH4 0x18160DDD EQ PUSH2 0x1E1 JUMPI JUMPDEST PUSH1 0x0 DUP1 REVERT JUMPDEST PUSH2 0x161 PUSH1 0x4 DUP1 CALLDATASIZE SUB DUP2 ADD SWAP1 PUSH2 0x15C SWAP2 SWAP1 PUSH2 0x188A JUMP JUMPDEST PUSH2 0x485 JUMP JUMPDEST PUSH1 0x40 MLOAD PUSH2 0x16E SWAP2 SWAP1 PUSH2 0x1B5E JUMP JUMPDEST PUSH1 0x40 MLOAD DUP1 SWAP2 SUB SWAP1 RETURN JUMPDEST PUSH2 0x17F PUSH2 0x4FF JUMP JUMPDEST PUSH1 0x40 MLOAD PUSH2 0x18C SWAP2 SWAP1 PUSH2 0x1B94 JUMP JUMPDEST PUSH1 0x40 MLOAD DUP1 SWAP2 SUB SWAP1 RETURN JUMPDEST PUSH2 0x1AF PUSH1 0x4 DUP1 CALLDATASIZE SUB DUP2 ADD SWAP1 PUSH2 0x1AA SWAP2 SWAP1 PUSH2 0x179D JUMP JUMPDEST PUSH2 0x591 JUMP JUMPDEST STOP JUMPDEST PUSH2 0x1CB PUSH1 0x4 DUP1 CALLDATASIZE SUB DUP2 ADD SWAP1 PUSH2 0x1C6 SWAP2 SWAP1 PUSH2 0x17DD JUMP JUMPDEST PUSH2 0x690 JUMP JUMPDEST PUSH1 0x40 MLOAD PUSH2 0x1D8 SWAP2 SWAP1 PUSH2 0x1B5E JUMP JUMPDEST PUSH1 0x40 MLOAD DUP1 SWAP2 SUB SWAP1 RETURN JUMPDEST PUSH2 0x1E9 PUSH2 0x6B3 JUMP JUMPDEST PUSH1 0x40 MLOAD PUSH2 0x1F6 SWAP2 SWAP1 PUSH2 0x1D16 JUMP JUMPDEST PUSH1 0x40 MLOAD DUP1 SWAP2 SUB SWAP1 RETURN JUMPDEST PUSH2 0x219 PUSH1 0x4 DUP1 CALLDATASIZE SUB DUP2 ADD SWAP1 PUSH2 0x214 SWAP2 SWAP1 PUSH2 0x174A JUMP JUMPDEST PUSH2 0x6BD JUMP JUMPDEST PUSH1 0x40 MLOAD PUSH2 0x226 SWAP2 SWAP1 PUSH2 0x1B5E JUMP JUMPDEST PUSH1 0x40 MLOAD DUP1 SWAP2 SUB SWAP1 RETURN JUMPDEST PUSH2 0x249 PUSH1 0x4 DUP1 CALLDATASIZE SUB DUP2 ADD SWAP1 PUSH2 0x244 SWAP2 SWAP1 PUSH2 0x181D JUMP JUMPDEST PUSH2 0x6EC JUMP JUMPDEST PUSH1 0x40 MLOAD PUSH2 0x256 SWAP2 SWAP1 PUSH2 0x1B79 JUMP JUMPDEST PUSH1 0x40 MLOAD DUP1 SWAP2 SUB SWAP1 RETURN JUMPDEST PUSH2 0x279 PUSH1 0x4 DUP1 CALLDATASIZE SUB DUP2 ADD SWAP1 PUSH2 0x274 SWAP2 SWAP1 PUSH2 0x184A JUMP JUMPDEST PUSH2 0x70C JUMP JUMPDEST STOP JUMPDEST PUSH2 0x283 PUSH2 0x72D JUMP JUMPDEST PUSH1 0x40 MLOAD PUSH2 0x290 SWAP2 SWAP1 PUSH2 0x1D31 JUMP JUMPDEST PUSH1 0x40 MLOAD DUP1 SWAP2 SUB SWAP1 RETURN JUMPDEST PUSH2 0x2B3 PUSH1 0x4 DUP1 CALLDATASIZE SUB DUP2 ADD SWAP1 PUSH2 0x2AE SWAP2 SWAP1 PUSH2 0x184A JUMP JUMPDEST PUSH2 0x736 JUMP JUMPDEST STOP JUMPDEST PUSH2 0x2CF PUSH1 0x4 DUP1 CALLDATASIZE SUB DUP2 ADD SWAP1 PUSH2 0x2CA SWAP2 SWAP1 PUSH2 0x17DD JUMP JUMPDEST PUSH2 0x7B9 JUMP JUMPDEST PUSH1 0x40 MLOAD PUSH2 0x2DC SWAP2 SWAP1 PUSH2 0x1B5E JUMP JUMPDEST PUSH1 0x40 MLOAD DUP1 SWAP2 SUB SWAP1 RETURN JUMPDEST PUSH2 0x2FF PUSH1 0x4 DUP1 CALLDATASIZE SUB DUP2 ADD SWAP1 PUSH2 0x2FA SWAP2 SWAP1 PUSH2 0x17DD JUMP JUMPDEST PUSH2 0x7F0 JUMP JUMPDEST STOP JUMPDEST PUSH2 0x31B PUSH1 0x4 DUP1 CALLDATASIZE SUB DUP2 ADD SWAP1 PUSH2 0x316 SWAP2 SWAP1 PUSH2 0x16DD JUMP JUMPDEST PUSH2 0x829 JUMP JUMPDEST PUSH1 0x40 MLOAD PUSH2 0x328 SWAP2 SWAP1 PUSH2 0x1D16 JUMP JUMPDEST PUSH1 0x40 MLOAD DUP1 SWAP2 SUB SWAP1 RETURN JUMPDEST PUSH2 0x339 PUSH2 0x871 JUMP JUMPDEST PUSH1 0x40 MLOAD PUSH2 0x346 SWAP2 SWAP1 PUSH2 0x1B79 JUMP JUMPDEST PUSH1 0x40 MLOAD DUP1 SWAP2 SUB SWAP1 RETURN JUMPDEST PUSH2 0x369 PUSH1 0x4 DUP1 CALLDATASIZE SUB DUP2 ADD SWAP1 PUSH2 0x364 SWAP2 SWAP1 PUSH2 0x184A JUMP JUMPDEST PUSH2 0x895 JUMP JUMPDEST PUSH1 0x40 MLOAD PUSH2 0x376 SWAP2 SWAP1 PUSH2 0x1B5E JUMP JUMPDEST PUSH1 0x40 MLOAD DUP1 SWAP2 SUB SWAP1 RETURN JUMPDEST PUSH2 0x387 PUSH2 0x900 JUMP JUMPDEST PUSH1 0x40 MLOAD PUSH2 0x394 SWAP2 SWAP1 PUSH2 0x1B94 JUMP JUMPDEST PUSH1 0x40 MLOAD DUP1 SWAP2 SUB SWAP1 RETURN JUMPDEST PUSH2 0x3A5 PUSH2 0x992 JUMP JUMPDEST PUSH1 0x40 MLOAD PUSH2 0x3B2 SWAP2 SWAP1 PUSH2 0x1B79 JUMP JUMPDEST PUSH1 0x40 MLOAD DUP1 SWAP2 SUB SWAP1 RETURN JUMPDEST PUSH2 0x3D5 PUSH1 0x4 DUP1 CALLDATASIZE SUB DUP2 ADD SWAP1 PUSH2 0x3D0 SWAP2 SWAP1 PUSH2 0x17DD JUMP JUMPDEST PUSH2 0x999 JUMP JUMPDEST PUSH1 0x40 MLOAD PUSH2 0x3E2 SWAP2 SWAP1 PUSH2 0x1B5E JUMP JUMPDEST PUSH1 0x40 MLOAD DUP1 SWAP2 SUB SWAP1 RETURN JUMPDEST PUSH2 0x405 PUSH1 0x4 DUP1 CALLDATASIZE SUB DUP2 ADD SWAP1 PUSH2 0x400 SWAP2 SWAP1 PUSH2 0x17DD JUMP JUMPDEST PUSH2 0xA10 JUMP JUMPDEST PUSH1 0x40 MLOAD PUSH2 0x412 SWAP2 SWAP1 PUSH2 0x1B5E JUMP JUMPDEST PUSH1 0x40 MLOAD DUP1 SWAP2 SUB SWAP1 RETURN JUMPDEST PUSH2 0x423 PUSH2 0xA33 JUMP JUMPDEST PUSH1 0x40 MLOAD PUSH2 0x430 SWAP2 SWAP1 PUSH2 0x1B79 JUMP JUMPDEST PUSH1 0x40 MLOAD DUP1 SWAP2 SUB SWAP1 RETURN JUMPDEST PUSH2 0x453 PUSH1 0x4 DUP1 CALLDATASIZE SUB DUP2 ADD SWAP1 PUSH2 0x44E SWAP2 SWAP1 PUSH2 0x184A JUMP JUMPDEST PUSH2 0xA57 JUMP JUMPDEST STOP JUMPDEST PUSH2 0x46F PUSH1 0x4 DUP1 CALLDATASIZE SUB DUP2 ADD SWAP1 PUSH2 0x46A SWAP2 SWAP1 PUSH2 0x170A JUMP JUMPDEST PUSH2 0xA78 JUMP JUMPDEST PUSH1 0x40 MLOAD PUSH2 0x47C SWAP2 SWAP1 PUSH2 0x1D16 JUMP JUMPDEST PUSH1 0x40 MLOAD DUP1 SWAP2 SUB SWAP1 RETURN JUMPDEST PUSH1 0x0 PUSH32 0x7965DB0B00000000000000000000000000000000000000000000000000000000 PUSH28 0xFFFFFFFFFFFFFFFFFFFFFFFFFFFFFFFFFFFFFFFFFFFFFFFFFFFFFFFF NOT AND DUP3 PUSH28 0xFFFFFFFFFFFFFFFFFFFFFFFFFFFFFFFFFFFFFFFFFFFFFFFFFFFFFFFF NOT AND EQ DUP1 PUSH2 0x4F8 JUMPI POP PUSH2 0x4F7 DUP3 PUSH2 0xAFF JUMP JUMPDEST JUMPDEST SWAP1 POP SWAP2 SWAP1 POP JUMP JUMPDEST PUSH1 0x60 PUSH1 0x3 DUP1 SLOAD PUSH2 0x50E SWAP1 PUSH2 0x1F0B JUMP JUMPDEST DUP1 PUSH1 0x1F ADD PUSH1 0x20 DUP1 SWAP2 DIV MUL PUSH1 0x20 ADD PUSH1 0x40 MLOAD SWAP1 DUP2 ADD PUSH1 0x40 MSTORE DUP1 SWAP3 SWAP2 SWAP1 DUP2 DUP2 MSTORE PUSH1 0x20 ADD DUP3 DUP1 SLOAD PUSH2 0x53A SWAP1 PUSH2 0x1F0B JUMP JUMPDEST DUP1 ISZERO PUSH2 0x587 JUMPI DUP1 PUSH1 0x1F LT PUSH2 0x55C JUMPI PUSH2 0x100 DUP1 DUP4 SLOAD DIV MUL DUP4 MSTORE SWAP2 PUSH1 0x20 ADD SWAP2 PUSH2 0x587 JUMP JUMPDEST DUP3 ADD SWAP2 SWAP1 PUSH1 0x0 MSTORE PUSH1 0x20 PUSH1 0x0 KECCAK256 SWAP1 JUMPDEST DUP2 SLOAD DUP2 MSTORE SWAP1 PUSH1 0x1 ADD SWAP1 PUSH1 0x20 ADD DUP1 DUP4 GT PUSH2 0x56A JUMPI DUP3 SWAP1 SUB PUSH1 0x1F AND DUP3 ADD SWAP2 JUMPDEST POP POP POP POP POP SWAP1 POP SWAP1 JUMP JUMPDEST PUSH32 0xA49807205CE4D355092EF5A8A18F56E8913CF4A201FBE287825B095693C21775 PUSH2 0x5BB DUP2 PUSH2 0xB69 JUMP JUMPDEST PUSH1 0x0 PUSH20 0xFFFFFFFFFFFFFFFFFFFFFFFFFFFFFFFFFFFFFFFF AND DUP4 PUSH20 0xFFFFFFFFFFFFFFFFFFFFFFFFFFFFFFFFFFFFFFFF AND EQ ISZERO PUSH2 0x62B JUMPI PUSH1 0x40 MLOAD PUSH32 0x8C379A000000000000000000000000000000000000000000000000000000000 DUP2 MSTORE PUSH1 0x4 ADD PUSH2 0x622 SWAP1 PUSH2 0x1BB6 JUMP JUMPDEST PUSH1 0x40 MLOAD DUP1 SWAP2 SUB SWAP1 REVERT JUMPDEST DUP2 ISZERO PUSH2 0x660 JUMPI PUSH2 0x65B PUSH32 0x9F2DF0FED2C77648DE5860A4CC508CD0818C85B8B8A1AB4CEEEF8D981C8956A6 DUP5 PUSH2 0xB7D JUMP JUMPDEST PUSH2 0x68B JUMP JUMPDEST PUSH2 0x68A PUSH32 0x9F2DF0FED2C77648DE5860A4CC508CD0818C85B8B8A1AB4CEEEF8D981C8956A6 DUP5 PUSH2 0xB8B JUMP JUMPDEST JUMPDEST POP POP POP JUMP JUMPDEST PUSH1 0x0 DUP1 PUSH2 0x69B PUSH2 0xC6D JUMP JUMPDEST SWAP1 POP PUSH2 0x6A8 DUP2 DUP6 DUP6 PUSH2 0xC75 JUMP JUMPDEST PUSH1 0x1 SWAP2 POP POP SWAP3 SWAP2 POP POP JUMP JUMPDEST PUSH1 0x0 PUSH1 0x2 SLOAD SWAP1 POP SWAP1 JUMP JUMPDEST PUSH1 0x0 DUP1 PUSH2 0x6C8 PUSH2 0xC6D JUMP JUMPDEST SWAP1 POP PUSH2 0x6D5 DUP6 DUP3 DUP6 PUSH2 0xE40 JUMP JUMPDEST PUSH2 0x6E0 DUP6 DUP6 DUP6 PUSH2 0xECC JUMP JUMPDEST PUSH1 0x1 SWAP2 POP POP SWAP4 SWAP3 POP POP POP JUMP JUMPDEST PUSH1 0x0 PUSH1 0x5 PUSH1 0x0 DUP4 DUP2 MSTORE PUSH1 0x20 ADD SWAP1 DUP2 MSTORE PUSH1 0x20 ADD PUSH1 0x0 KECCAK256 PUSH1 0x1 ADD SLOAD SWAP1 POP SWAP2 SWAP1 POP JUMP JUMPDEST PUSH2 0x715 DUP3 PUSH2 0x6EC JUMP JUMPDEST PUSH2 0x71E DUP2 PUSH2 0xB69 JUMP JUMPDEST PUSH2 0x728 DUP4 DUP4 PUSH2 0x1144 JUMP JUMPDEST POP POP POP JUMP JUMPDEST PUSH1 0x0 PUSH1 0x12 SWAP1 POP SWAP1 JUMP JUMPDEST PUSH2 0x73E PUSH2 0xC6D JUMP JUMPDEST PUSH20 0xFFFFFFFFFFFFFFFFFFFFFFFFFFFFFFFFFFFFFFFF AND DUP2 PUSH20 0xFFFFFFFFFFFFFFFFFFFFFFFFFFFFFFFFFFFFFFFF AND EQ PUSH2 0x7AB JUMPI PUSH1 0x40 MLOAD PUSH32 0x8C379A000000000000000000000000000000000000000000000000000000000 DUP2 MSTORE PUSH1 0x4 ADD PUSH2 0x7A2 SWAP1 PUSH2 0x1CD6 JUMP JUMPDEST PUSH1 0x40 MLOAD DUP1 SWAP2 SUB SWAP1 REVERT JUMPDEST PUSH2 0x7B5 DUP3 DUP3 PUSH2 0xB8B JUMP JUMPDEST POP POP JUMP JUMPDEST PUSH1 0x0 DUP1 PUSH2 0x7C4 PUSH2 0xC6D JUMP JUMPDEST SWAP1 POP PUSH2 0x7E5 DUP2 DUP6 DUP6 PUSH2 0x7D6 DUP6 DUP10 PUSH2 0xA78 JUMP JUMPDEST PUSH2 0x7E0 SWAP2 SWAP1 PUSH2 0x1D73 JUMP JUMPDEST PUSH2 0xC75 JUMP JUMPDEST PUSH1 0x1 SWAP2 POP POP SWAP3 SWAP2 POP POP JUMP JUMPDEST PUSH32 0x9F2DF0FED2C77648DE5860A4CC508CD0818C85B8B8A1AB4CEEEF8D981C8956A6 PUSH2 0x81A DUP2 PUSH2 0xB69 JUMP JUMPDEST PUSH2 0x824 DUP4 DUP4 PUSH2 0x1225 JUMP JUMPDEST POP POP POP JUMP JUMPDEST PUSH1 0x0 DUP1 PUSH1 0x0 DUP4 PUSH20 0xFFFFFFFFFFFFFFFFFFFFFFFFFFFFFFFFFFFFFFFF AND PUSH20 0xFFFFFFFFFFFFFFFFFFFFFFFFFFFFFFFFFFFFFFFF AND DUP2 MSTORE PUSH1 0x20 ADD SWAP1 DUP2 MSTORE PUSH1 0x20 ADD PUSH1 0x0 KECCAK256 SLOAD SWAP1 POP SWAP2 SWAP1 POP JUMP JUMPDEST PUSH32 0xA49807205CE4D355092EF5A8A18F56E8913CF4A201FBE287825B095693C21775 DUP2 JUMP JUMPDEST PUSH1 0x0 PUSH1 0x5 PUSH1 0x0 DUP5 DUP2 MSTORE PUSH1 0x20 ADD SWAP1 DUP2 MSTORE PUSH1 0x20 ADD PUSH1 0x0 KECCAK256 PUSH1 0x0 ADD PUSH1 0x0 DUP4 PUSH20 0xFFFFFFFFFFFFFFFFFFFFFFFFFFFFFFFFFFFFFFFF AND PUSH20 0xFFFFFFFFFFFFFFFFFFFFFFFFFFFFFFFFFFFFFFFF AND DUP2 MSTORE PUSH1 0x20 ADD SWAP1 DUP2 MSTORE PUSH1 0x20 ADD PUSH1 0x0 KECCAK256 PUSH1 0x0 SWAP1 SLOAD SWAP1 PUSH2 0x100 EXP SWAP1 DIV PUSH1 0xFF AND SWAP1 POP SWAP3 SWAP2 POP POP JUMP JUMPDEST PUSH1 0x60 PUSH1 0x4 DUP1 SLOAD PUSH2 0x90F SWAP1 PUSH2 0x1F0B JUMP JUMPDEST DUP1 PUSH1 0x1F ADD PUSH1 0x20 DUP1 SWAP2 DIV MUL PUSH1 0x20 ADD PUSH1 0x40 MLOAD SWAP1 DUP2 ADD PUSH1 0x40 MSTORE DUP1 SWAP3 SWAP2 SWAP1 DUP2 DUP2 MSTORE PUSH1 0x20 ADD DUP3 DUP1 SLOAD PUSH2 0x93B SWAP1 PUSH2 0x1F0B JUMP JUMPDEST DUP1 ISZERO PUSH2 0x988 JUMPI DUP1 PUSH1 0x1F LT PUSH2 0x95D JUMPI PUSH2 0x100 DUP1 DUP4 SLOAD DIV MUL DUP4 MSTORE SWAP2 PUSH1 0x20 ADD SWAP2 PUSH2 0x988 JUMP JUMPDEST DUP3 ADD SWAP2 SWAP1 PUSH1 0x0 MSTORE PUSH1 0x20 PUSH1 0x0 KECCAK256 SWAP1 JUMPDEST DUP2 SLOAD DUP2 MSTORE SWAP1 PUSH1 0x1 ADD SWAP1 PUSH1 0x20 ADD DUP1 DUP4 GT PUSH2 0x96B JUMPI DUP3 SWAP1 SUB PUSH1 0x1F AND DUP3 ADD SWAP2 JUMPDEST POP POP POP POP POP SWAP1 POP SWAP1 JUMP JUMPDEST PUSH1 0x0 DUP1 SHL DUP2 JUMP JUMPDEST PUSH1 0x0 DUP1 PUSH2 0x9A4 PUSH2 0xC6D JUMP JUMPDEST SWAP1 POP PUSH1 0x0 PUSH2 0x9B2 DUP3 DUP7 PUSH2 0xA78 JUMP JUMPDEST SWAP1 POP DUP4 DUP2 LT ISZERO PUSH2 0x9F7 JUMPI PUSH1 0x40 MLOAD PUSH32 0x8C379A000000000000000000000000000000000000000000000000000000000 DUP2 MSTORE PUSH1 0x4 ADD PUSH2 0x9EE SWAP1 PUSH2 0x1CB6 JUMP JUMPDEST PUSH1 0x40 MLOAD DUP1 SWAP2 SUB SWAP1 REVERT JUMPDEST PUSH2 0xA04 DUP3 DUP7 DUP7 DUP5 SUB PUSH2 0xC75 JUMP JUMPDEST PUSH1 0x1 SWAP3 POP POP POP SWAP3 SWAP2 POP POP JUMP JUMPDEST PUSH1 0x0 DUP1 PUSH2 0xA1B PUSH2 0xC6D JUMP JUMPDEST SWAP1 POP PUSH2 0xA28 DUP2 DUP6 DUP6 PUSH2 0xECC JUMP JUMPDEST PUSH1 0x1 SWAP2 POP POP SWAP3 SWAP2 POP POP JUMP JUMPDEST PUSH32 0x9F2DF0FED2C77648DE5860A4CC508CD0818C85B8B8A1AB4CEEEF8D981C8956A6 DUP2 JUMP JUMPDEST PUSH2 0xA60 DUP3 PUSH2 0x6EC JUMP JUMPDEST PUSH2 0xA69 DUP2 PUSH2 0xB69 JUMP JUMPDEST PUSH2 0xA73 DUP4 DUP4 PUSH2 0xB8B JUMP JUMPDEST POP POP POP JUMP JUMPDEST PUSH1 0x0 PUSH1 0x1 PUSH1 0x0 DUP5 PUSH20 0xFFFFFFFFFFFFFFFFFFFFFFFFFFFFFFFFFFFFFFFF AND PUSH20 0xFFFFFFFFFFFFFFFFFFFFFFFFFFFFFFFFFFFFFFFF AND DUP2 MSTORE PUSH1 0x20 ADD SWAP1 DUP2 MSTORE PUSH1 0x20 ADD PUSH1 0x0 KECCAK256 PUSH1 0x0 DUP4 PUSH20 0xFFFFFFFFFFFFFFFFFFFFFFFFFFFFFFFFFFFFFFFF AND PUSH20 0xFFFFFFFFFFFFFFFFFFFFFFFFFFFFFFFFFFFFFFFF AND DUP2 MSTORE PUSH1 0x20 ADD SWAP1 DUP2 MSTORE PUSH1 0x20 ADD PUSH1 0x0 KECCAK256 SLOAD SWAP1 POP SWAP3 SWAP2 POP POP JUMP JUMPDEST PUSH1 0x0 PUSH32 0x1FFC9A700000000000000000000000000000000000000000000000000000000 PUSH28 0xFFFFFFFFFFFFFFFFFFFFFFFFFFFFFFFFFFFFFFFFFFFFFFFFFFFFFFFF NOT AND DUP3 PUSH28 0xFFFFFFFFFFFFFFFFFFFFFFFFFFFFFFFFFFFFFFFFFFFFFFFFFFFFFFFF NOT AND EQ SWAP1 POP SWAP2 SWAP1 POP JUMP JUMPDEST PUSH2 0xB7A DUP2 PUSH2 0xB75 PUSH2 0xC6D JUMP JUMPDEST PUSH2 0x137C JUMP JUMPDEST POP JUMP JUMPDEST PUSH2 0xB87 DUP3 DUP3 PUSH2 0x1144 JUMP JUMPDEST POP POP JUMP JUMPDEST PUSH2 0xB95 DUP3 DUP3 PUSH2 0x895 JUMP JUMPDEST ISZERO PUSH2 0xC69 JUMPI PUSH1 0x0 PUSH1 0x5 PUSH1 0x0 DUP5 DUP2 MSTORE PUSH1 0x20 ADD SWAP1 DUP2 MSTORE PUSH1 0x20 ADD PUSH1 0x0 KECCAK256 PUSH1 0x0 ADD PUSH1 0x0 DUP4 PUSH20 0xFFFFFFFFFFFFFFFFFFFFFFFFFFFFFFFFFFFFFFFF AND PUSH20 0xFFFFFFFFFFFFFFFFFFFFFFFFFFFFFFFFFFFFFFFF AND DUP2 MSTORE PUSH1 0x20 ADD SWAP1 DUP2 MSTORE PUSH1 0x20 ADD PUSH1 0x0 KECCAK256 PUSH1 0x0 PUSH2 0x100 EXP DUP2 SLOAD DUP2 PUSH1 0xFF MUL NOT AND SWAP1 DUP4 ISZERO ISZERO MUL OR SWAP1 SSTORE POP PUSH2 0xC0E PUSH2 0xC6D JUMP JUMPDEST PUSH20 0xFFFFFFFFFFFFFFFFFFFFFFFFFFFFFFFFFFFFFFFF AND DUP2 PUSH20 0xFFFFFFFFFFFFFFFFFFFFFFFFFFFFFFFFFFFFFFFF AND DUP4 PUSH32 0xF6391F5C32D9C69D2A47EA670B442974B53935D1EDC7FD64EB21E047A839171B PUSH1 0x40 MLOAD PUSH1 0x40 MLOAD DUP1 SWAP2 SUB SWAP1 LOG4 JUMPDEST POP POP JUMP JUMPDEST PUSH1 0x0 CALLER SWAP1 POP SWAP1 JUMP JUMPDEST PUSH1 0x0 PUSH20 0xFFFFFFFFFFFFFFFFFFFFFFFFFFFFFFFFFFFFFFFF AND DUP4 PUSH20 0xFFFFFFFFFFFFFFFFFFFFFFFFFFFFFFFFFFFFFFFF AND EQ ISZERO PUSH2 0xCE5 JUMPI PUSH1 0x40 MLOAD PUSH32 0x8C379A000000000000000000000000000000000000000000000000000000000 DUP2 MSTORE PUSH1 0x4 ADD PUSH2 0xCDC SWAP1 PUSH2 0x1C96 JUMP JUMPDEST PUSH1 0x40 MLOAD DUP1 SWAP2 SUB SWAP1 REVERT JUMPDEST PUSH1 0x0 PUSH20 0xFFFFFFFFFFFFFFFFFFFFFFFFFFFFFFFFFFFFFFFF AND DUP3 PUSH20 0xFFFFFFFFFFFFFFFFFFFFFFFFFFFFFFFFFFFFFFFF AND EQ ISZERO PUSH2 0xD55 JUMPI PUSH1 0x40 MLOAD PUSH32 0x8C379A000000000000000000000000000000000000000000000000000000000 DUP2 MSTORE PUSH1 0x4 ADD PUSH2 0xD4C SWAP1 PUSH2 0x1C16 JUMP JUMPDEST PUSH1 0x40 MLOAD DUP1 SWAP2 SUB SWAP1 REVERT JUMPDEST DUP1 PUSH1 0x1 PUSH1 0x0 DUP6 PUSH20 0xFFFFFFFFFFFFFFFFFFFFFFFFFFFFFFFFFFFFFFFF AND PUSH20 0xFFFFFFFFFFFFFFFFFFFFFFFFFFFFFFFFFFFFFFFF AND DUP2 MSTORE PUSH1 0x20 ADD SWAP1 DUP2 MSTORE PUSH1 0x20 ADD PUSH1 0x0 KECCAK256 PUSH1 0x0 DUP5 PUSH20 0xFFFFFFFFFFFFFFFFFFFFFFFFFFFFFFFFFFFFFFFF AND PUSH20 0xFFFFFFFFFFFFFFFFFFFFFFFFFFFFFFFFFFFFFFFF AND DUP2 MSTORE PUSH1 0x20 ADD SWAP1 DUP2 MSTORE PUSH1 0x20 ADD PUSH1 0x0 KECCAK256 DUP2 SWAP1 SSTORE POP DUP2 PUSH20 0xFFFFFFFFFFFFFFFFFFFFFFFFFFFFFFFFFFFFFFFF AND DUP4 PUSH20 0xFFFFFFFFFFFFFFFFFFFFFFFFFFFFFFFFFFFFFFFF AND PUSH32 0x8C5BE1E5EBEC7D5BD14F71427D1E84F3DD0314C0F7B2291E5B200AC8C7C3B925 DUP4 PUSH1 0x40 MLOAD PUSH2 0xE33 SWAP2 SWAP1 PUSH2 0x1D16 JUMP JUMPDEST PUSH1 0x40 MLOAD DUP1 SWAP2 SUB SWAP1 LOG3 POP POP POP JUMP JUMPDEST PUSH1 0x0 PUSH2 0xE4C DUP5 DUP5 PUSH2 0xA78 JUMP JUMPDEST SWAP1 POP PUSH32 0xFFFFFFFFFFFFFFFFFFFFFFFFFFFFFFFFFFFFFFFFFFFFFFFFFFFFFFFFFFFFFFFF DUP2 EQ PUSH2 0xEC6 JUMPI DUP2 DUP2 LT ISZERO PUSH2 0xEB8 JUMPI PUSH1 0x40 MLOAD PUSH32 0x8C379A000000000000000000000000000000000000000000000000000000000 DUP2 MSTORE PUSH1 0x4 ADD PUSH2 0xEAF SWAP1 PUSH2 0x1C36 JUMP JUMPDEST PUSH1 0x40 MLOAD DUP1 SWAP2 SUB SWAP1 REVERT JUMPDEST PUSH2 0xEC5 DUP5 DUP5 DUP5 DUP5 SUB PUSH2 0xC75 JUMP JUMPDEST JUMPDEST POP POP POP POP JUMP JUMPDEST PUSH1 0x0 PUSH20 0xFFFFFFFFFFFFFFFFFFFFFFFFFFFFFFFFFFFFFFFF AND DUP4 PUSH20 0xFFFFFFFFFFFFFFFFFFFFFFFFFFFFFFFFFFFFFFFF AND EQ ISZERO PUSH2 0xF3C JUMPI PUSH1 0x40 MLOAD PUSH32 0x8C379A000000000000000000000000000000000000000000000000000000000 DUP2 MSTORE PUSH1 0x4 ADD PUSH2 0xF33 SWAP1 PUSH2 0x1C76 JUMP JUMPDEST PUSH1 0x40 MLOAD DUP1 SWAP2 SUB SWAP1 REVERT JUMPDEST PUSH1 0x0 PUSH20 0xFFFFFFFFFFFFFFFFFFFFFFFFFFFFFFFFFFFFFFFF AND DUP3 PUSH20 0xFFFFFFFFFFFFFFFFFFFFFFFFFFFFFFFFFFFFFFFF AND EQ ISZERO PUSH2 0xFAC JUMPI PUSH1 0x40 MLOAD PUSH32 0x8C379A000000000000000000000000000000000000000000000000000000000 DUP2 MSTORE PUSH1 0x4 ADD PUSH2 0xFA3 SWAP1 PUSH2 0x1BF6 JUMP JUMPDEST PUSH1 0x40 MLOAD DUP1 SWAP2 SUB SWAP1 REVERT JUMPDEST PUSH2 0xFB7 DUP4 DUP4 DUP4 PUSH2 0x1401 JUMP JUMPDEST PUSH1 0x0 DUP1 PUSH1 0x0 DUP6 PUSH20 0xFFFFFFFFFFFFFFFFFFFFFFFFFFFFFFFFFFFFFFFF AND PUSH20 0xFFFFFFFFFFFFFFFFFFFFFFFFFFFFFFFFFFFFFFFF AND DUP2 MSTORE PUSH1 0x20 ADD SWAP1 DUP2 MSTORE PUSH1 0x20 ADD PUSH1 0x0 KECCAK256 SLOAD SWAP1 POP DUP2 DUP2 LT ISZERO PUSH2 0x103D JUMPI PUSH1 0x40 MLOAD PUSH32 0x8C379A000000000000000000000000000000000000000000000000000000000 DUP2 MSTORE PUSH1 0x4 ADD PUSH2 0x1034 SWAP1 PUSH2 0x1C56 JUMP JUMPDEST PUSH1 0x40 MLOAD DUP1 SWAP2 SUB SWAP1 REVERT JUMPDEST DUP2 DUP2 SUB PUSH1 0x0 DUP1 DUP7 PUSH20 0xFFFFFFFFFFFFFFFFFFFFFFFFFFFFFFFFFFFFFFFF AND PUSH20 0xFFFFFFFFFFFFFFFFFFFFFFFFFFFFFFFFFFFFFFFF AND DUP2 MSTORE PUSH1 0x20 ADD SWAP1 DUP2 MSTORE PUSH1 0x20 ADD PUSH1 0x0 KECCAK256 DUP2 SWAP1 SSTORE POP DUP2 PUSH1 0x0 DUP1 DUP6 PUSH20 0xFFFFFFFFFFFFFFFFFFFFFFFFFFFFFFFFFFFFFFFF AND PUSH20 0xFFFFFFFFFFFFFFFFFFFFFFFFFFFFFFFFFFFFFFFF AND DUP2 MSTORE PUSH1 0x20 ADD SWAP1 DUP2 MSTORE PUSH1 0x20 ADD PUSH1 0x0 KECCAK256 PUSH1 0x0 DUP3 DUP3 SLOAD ADD SWAP3 POP POP DUP2 SWAP1 SSTORE POP DUP3 PUSH20 0xFFFFFFFFFFFFFFFFFFFFFFFFFFFFFFFFFFFFFFFF AND DUP5 PUSH20 0xFFFFFFFFFFFFFFFFFFFFFFFFFFFFFFFFFFFFFFFF AND PUSH32 0xDDF252AD1BE2C89B69C2B068FC378DAA952BA7F163C4A11628F55A4DF523B3EF DUP5 PUSH1 0x40 MLOAD PUSH2 0x112B SWAP2 SWAP1 PUSH2 0x1D16 JUMP JUMPDEST PUSH1 0x40 MLOAD DUP1 SWAP2 SUB SWAP1 LOG3 PUSH2 0x113E DUP5 DUP5 DUP5 PUSH2 0x1406 JUMP JUMPDEST POP POP POP POP JUMP JUMPDEST PUSH2 0x114E DUP3 DUP3 PUSH2 0x895 JUMP JUMPDEST PUSH2 0x1221 JUMPI PUSH1 0x1 PUSH1 0x5 PUSH1 0x0 DUP5 DUP2 MSTORE PUSH1 0x20 ADD SWAP1 DUP2 MSTORE PUSH1 0x20 ADD PUSH1 0x0 KECCAK256 PUSH1 0x0 ADD PUSH1 0x0 DUP4 PUSH20 0xFFFFFFFFFFFFFFFFFFFFFFFFFFFFFFFFFFFFFFFF AND PUSH20 0xFFFFFFFFFFFFFFFFFFFFFFFFFFFFFFFFFFFFFFFF AND DUP2 MSTORE PUSH1 0x20 ADD SWAP1 DUP2 MSTORE PUSH1 0x20 ADD PUSH1 0x0 KECCAK256 PUSH1 0x0 PUSH2 0x100 EXP DUP2 SLOAD DUP2 PUSH1 0xFF MUL NOT AND SWAP1 DUP4 ISZERO ISZERO MUL OR SWAP1 SSTORE POP PUSH2 0x11C6 PUSH2 0xC6D JUMP JUMPDEST PUSH20 0xFFFFFFFFFFFFFFFFFFFFFFFFFFFFFFFFFFFFFFFF AND DUP2 PUSH20 0xFFFFFFFFFFFFFFFFFFFFFFFFFFFFFFFFFFFFFFFF AND DUP4 PUSH32 0x2F8788117E7EFF1D82E926EC794901D17C78024A50270940304540A733656F0D PUSH1 0x40 MLOAD PUSH1 0x40 MLOAD DUP1 SWAP2 SUB SWAP1 LOG4 JUMPDEST POP POP JUMP JUMPDEST PUSH1 0x0 PUSH20 0xFFFFFFFFFFFFFFFFFFFFFFFFFFFFFFFFFFFFFFFF AND DUP3 PUSH20 0xFFFFFFFFFFFFFFFFFFFFFFFFFFFFFFFFFFFFFFFF AND EQ ISZERO PUSH2 0x1295 JUMPI PUSH1 0x40 MLOAD PUSH32 0x8C379A000000000000000000000000000000000000000000000000000000000 DUP2 MSTORE PUSH1 0x4 ADD PUSH2 0x128C SWAP1 PUSH2 0x1CF6 JUMP JUMPDEST PUSH1 0x40 MLOAD DUP1 SWAP2 SUB SWAP1 REVERT JUMPDEST PUSH2 0x12A1 PUSH1 0x0 DUP4 DUP4 PUSH2 0x1401 JUMP JUMPDEST DUP1 PUSH1 0x2 PUSH1 0x0 DUP3 DUP3 SLOAD PUSH2 0x12B3 SWAP2 SWAP1 PUSH2 0x1D73 JUMP JUMPDEST SWAP3 POP POP DUP2 SWAP1 SSTORE POP DUP1 PUSH1 0x0 DUP1 DUP5 PUSH20 0xFFFFFFFFFFFFFFFFFFFFFFFFFFFFFFFFFFFFFFFF AND PUSH20 0xFFFFFFFFFFFFFFFFFFFFFFFFFFFFFFFFFFFFFFFF AND DUP2 MSTORE PUSH1 0x20 ADD SWAP1 DUP2 MSTORE PUSH1 0x20 ADD PUSH1 0x0 KECCAK256 PUSH1 0x0 DUP3 DUP3 SLOAD ADD SWAP3 POP POP DUP2 SWAP1 SSTORE POP DUP2 PUSH20 0xFFFFFFFFFFFFFFFFFFFFFFFFFFFFFFFFFFFFFFFF AND PUSH1 0x0 PUSH20 0xFFFFFFFFFFFFFFFFFFFFFFFFFFFFFFFFFFFFFFFF AND PUSH32 0xDDF252AD1BE2C89B69C2B068FC378DAA952BA7F163C4A11628F55A4DF523B3EF DUP4 PUSH1 0x40 MLOAD PUSH2 0x1364 SWAP2 SWAP1 PUSH2 0x1D16 JUMP JUMPDEST PUSH1 0x40 MLOAD DUP1 SWAP2 SUB SWAP1 LOG3 PUSH2 0x1378 PUSH1 0x0 DUP4 DUP4 PUSH2 0x1406 JUMP JUMPDEST POP POP JUMP JUMPDEST PUSH2 0x1386 DUP3 DUP3 PUSH2 0x895 JUMP JUMPDEST PUSH2 0x13FD JUMPI PUSH2 0x1393 DUP2 PUSH2 0x140B JUMP JUMPDEST PUSH2 0x13A1 DUP4 PUSH1 0x0 SHR PUSH1 0x20 PUSH2 0x1438 JUMP JUMPDEST PUSH1 0x40 MLOAD PUSH1 0x20 ADD PUSH2 0x13B2 SWAP3 SWAP2 SWAP1 PUSH2 0x1B24 JUMP JUMPDEST PUSH1 0x40 MLOAD PUSH1 0x20 DUP2 DUP4 SUB SUB DUP2 MSTORE SWAP1 PUSH1 0x40 MSTORE PUSH1 0x40 MLOAD PUSH32 0x8C379A000000000000000000000000000000000000000000000000000000000 DUP2 MSTORE PUSH1 0x4 ADD PUSH2 0x13F4 SWAP2 SWAP1 PUSH2 0x1B94 JUMP JUMPDEST PUSH1 0x40 MLOAD DUP1 SWAP2 SUB SWAP1 REVERT JUMPDEST POP POP JUMP JUMPDEST POP POP POP JUMP JUMPDEST POP POP POP JUMP JUMPDEST PUSH1 0x60 PUSH2 0x1431 DUP3 PUSH20 0xFFFFFFFFFFFFFFFFFFFFFFFFFFFFFFFFFFFFFFFF AND PUSH1 0x14 PUSH1 0xFF AND PUSH2 0x1438 JUMP JUMPDEST SWAP1 POP SWAP2 SWAP1 POP JUMP JUMPDEST PUSH1 0x60 PUSH1 0x0 PUSH1 0x2 DUP4 PUSH1 0x2 PUSH2 0x144B SWAP2 SWAP1 PUSH2 0x1DC9 JUMP JUMPDEST PUSH2 0x1455 SWAP2 SWAP1 PUSH2 0x1D73 JUMP JUMPDEST PUSH8 0xFFFFFFFFFFFFFFFF DUP2 GT ISZERO PUSH2 0x146E JUMPI PUSH2 0x146D PUSH2 0x1FCA JUMP JUMPDEST JUMPDEST PUSH1 0x40 MLOAD SWAP1 DUP1 DUP3 MSTORE DUP1 PUSH1 0x1F ADD PUSH1 0x1F NOT AND PUSH1 0x20 ADD DUP3 ADD PUSH1 0x40 MSTORE DUP1 ISZERO PUSH2 0x14A0 JUMPI DUP2 PUSH1 0x20 ADD PUSH1 0x1 DUP3 MUL DUP1 CALLDATASIZE DUP4 CALLDATACOPY DUP1 DUP3 ADD SWAP2 POP POP SWAP1 POP JUMPDEST POP SWAP1 POP PUSH32 0x3000000000000000000000000000000000000000000000000000000000000000 DUP2 PUSH1 0x0 DUP2 MLOAD DUP2 LT PUSH2 0x14D8 JUMPI PUSH2 0x14D7 PUSH2 0x1F9B JUMP JUMPDEST JUMPDEST PUSH1 0x20 ADD ADD SWAP1 PUSH31 0xFFFFFFFFFFFFFFFFFFFFFFFFFFFFFFFFFFFFFFFFFFFFFFFFFFFFFFFFFFFFFF NOT AND SWAP1 DUP2 PUSH1 0x0 BYTE SWAP1 MSTORE8 POP PUSH32 0x7800000000000000000000000000000000000000000000000000000000000000 DUP2 PUSH1 0x1 DUP2 MLOAD DUP2 LT PUSH2 0x153C JUMPI PUSH2 0x153B PUSH2 0x1F9B JUMP JUMPDEST JUMPDEST PUSH1 0x20 ADD ADD SWAP1 PUSH31 0xFFFFFFFFFFFFFFFFFFFFFFFFFFFFFFFFFFFFFFFFFFFFFFFFFFFFFFFFFFFFFF NOT AND SWAP1 DUP2 PUSH1 0x0 BYTE SWAP1 MSTORE8 POP PUSH1 0x0 PUSH1 0x1 DUP5 PUSH1 0x2 PUSH2 0x157C SWAP2 SWAP1 PUSH2 0x1DC9 JUMP JUMPDEST PUSH2 0x1586 SWAP2 SWAP1 PUSH2 0x1D73 JUMP JUMPDEST SWAP1 POP JUMPDEST PUSH1 0x1 DUP2 GT ISZERO PUSH2 0x1626 JUMPI PUSH32 0x3031323334353637383961626364656600000000000000000000000000000000 PUSH1 0xF DUP7 AND PUSH1 0x10 DUP2 LT PUSH2 0x15C8 JUMPI PUSH2 0x15C7 PUSH2 0x1F9B JUMP JUMPDEST JUMPDEST BYTE PUSH1 0xF8 SHL DUP3 DUP3 DUP2 MLOAD DUP2 LT PUSH2 0x15DF JUMPI PUSH2 0x15DE PUSH2 0x1F9B JUMP JUMPDEST JUMPDEST PUSH1 0x20 ADD ADD SWAP1 PUSH31 0xFFFFFFFFFFFFFFFFFFFFFFFFFFFFFFFFFFFFFFFFFFFFFFFFFFFFFFFFFFFFFF NOT AND SWAP1 DUP2 PUSH1 0x0 BYTE SWAP1 MSTORE8 POP PUSH1 0x4 DUP6 SWAP1 SHR SWAP5 POP DUP1 PUSH2 0x161F SWAP1 PUSH2 0x1EE1 JUMP JUMPDEST SWAP1 POP PUSH2 0x1589 JUMP JUMPDEST POP PUSH1 0x0 DUP5 EQ PUSH2 0x166A JUMPI PUSH1 0x40 MLOAD PUSH32 0x8C379A000000000000000000000000000000000000000000000000000000000 DUP2 MSTORE PUSH1 0x4 ADD PUSH2 0x1661 SWAP1 PUSH2 0x1BD6 JUMP JUMPDEST PUSH1 0x40 MLOAD DUP1 SWAP2 SUB SWAP1 REVERT JUMPDEST DUP1 SWAP2 POP POP SWAP3 SWAP2 POP POP JUMP JUMPDEST PUSH1 0x0 DUP2 CALLDATALOAD SWAP1 POP PUSH2 0x1683 DUP2 PUSH2 0x232E JUMP JUMPDEST SWAP3 SWAP2 POP POP JUMP JUMPDEST PUSH1 0x0 DUP2 CALLDATALOAD SWAP1 POP PUSH2 0x1698 DUP2 PUSH2 0x2345 JUMP JUMPDEST SWAP3 SWAP2 POP POP JUMP JUMPDEST PUSH1 0x0 DUP2 CALLDATALOAD SWAP1 POP PUSH2 0x16AD DUP2 PUSH2 0x235C JUMP JUMPDEST SWAP3 SWAP2 POP POP JUMP JUMPDEST PUSH1 0x0 DUP2 CALLDATALOAD SWAP1 POP PUSH2 0x16C2 DUP2 PUSH2 0x2373 JUMP JUMPDEST SWAP3 SWAP2 POP POP JUMP JUMPDEST PUSH1 0x0 DUP2 CALLDATALOAD SWAP1 POP PUSH2 0x16D7 DUP2 PUSH2 0x238A JUMP JUMPDEST SWAP3 SWAP2 POP POP JUMP JUMPDEST PUSH1 0x0 PUSH1 0x20 DUP3 DUP5 SUB SLT ISZERO PUSH2 0x16F3 JUMPI PUSH2 0x16F2 PUSH2 0x1FF9 JUMP JUMPDEST JUMPDEST PUSH1 0x0 PUSH2 0x1701 DUP5 DUP3 DUP6 ADD PUSH2 0x1674 JUMP JUMPDEST SWAP2 POP POP SWAP3 SWAP2 POP POP JUMP JUMPDEST PUSH1 0x0 DUP1 PUSH1 0x40 DUP4 DUP6 SUB SLT ISZERO PUSH2 0x1721 JUMPI PUSH2 0x1720 PUSH2 0x1FF9 JUMP JUMPDEST JUMPDEST PUSH1 0x0 PUSH2 0x172F DUP6 DUP3 DUP7 ADD PUSH2 0x1674 JUMP JUMPDEST SWAP3 POP POP PUSH1 0x20 PUSH2 0x1740 DUP6 DUP3 DUP7 ADD PUSH2 0x1674 JUMP JUMPDEST SWAP2 POP POP SWAP3 POP SWAP3 SWAP1 POP JUMP JUMPDEST PUSH1 0x0 DUP1 PUSH1 0x0 PUSH1 0x60 DUP5 DUP7 SUB SLT ISZERO PUSH2 0x1763 JUMPI PUSH2 0x1762 PUSH2 0x1FF9 JUMP JUMPDEST JUMPDEST PUSH1 0x0 PUSH2 0x1771 DUP7 DUP3 DUP8 ADD PUSH2 0x1674 JUMP JUMPDEST SWAP4 POP POP PUSH1 0x20 PUSH2 0x1782 DUP7 DUP3 DUP8 ADD PUSH2 0x1674 JUMP JUMPDEST SWAP3 POP POP PUSH1 0x40 PUSH2 0x1793 DUP7 DUP3 DUP8 ADD PUSH2 0x16C8 JUMP JUMPDEST SWAP2 POP POP SWAP3 POP SWAP3 POP SWAP3 JUMP JUMPDEST PUSH1 0x0 DUP1 PUSH1 0x40 DUP4 DUP6 SUB SLT ISZERO PUSH2 0x17B4 JUMPI PUSH2 0x17B3 PUSH2 0x1FF9 JUMP JUMPDEST JUMPDEST PUSH1 0x0 PUSH2 0x17C2 DUP6 DUP3 DUP7 ADD PUSH2 0x1674 JUMP JUMPDEST SWAP3 POP POP PUSH1 0x20 PUSH2 0x17D3 DUP6 DUP3 DUP7 ADD PUSH2 0x1689 JUMP JUMPDEST SWAP2 POP POP SWAP3 POP SWAP3 SWAP1 POP JUMP JUMPDEST PUSH1 0x0 DUP1 PUSH1 0x40 DUP4 DUP6 SUB SLT ISZERO PUSH2 0x17F4 JUMPI PUSH2 0x17F3 PUSH2 0x1FF9 JUMP JUMPDEST JUMPDEST PUSH1 0x0 PUSH2 0x1802 DUP6 DUP3 DUP7 ADD PUSH2 0x1674 JUMP JUMPDEST SWAP3 POP POP PUSH1 0x20 PUSH2 0x1813 DUP6 DUP3 DUP7 ADD PUSH2 0x16C8 JUMP JUMPDEST SWAP2 POP POP SWAP3 POP SWAP3 SWAP1 POP JUMP JUMPDEST PUSH1 0x0 PUSH1 0x20 DUP3 DUP5 SUB SLT ISZERO PUSH2 0x1833 JUMPI PUSH2 0x1832 PUSH2 0x1FF9 JUMP JUMPDEST JUMPDEST PUSH1 0x0 PUSH2 0x1841 DUP5 DUP3 DUP6 ADD PUSH2 0x169E JUMP JUMPDEST SWAP2 POP POP SWAP3 SWAP2 POP POP JUMP JUMPDEST PUSH1 0x0 DUP1 PUSH1 0x40 DUP4 DUP6 SUB SLT ISZERO PUSH2 0x1861 JUMPI PUSH2 0x1860 PUSH2 0x1FF9 JUMP JUMPDEST JUMPDEST PUSH1 0x0 PUSH2 0x186F DUP6 DUP3 DUP7 ADD PUSH2 0x169E JUMP JUMPDEST SWAP3 POP POP PUSH1 0x20 PUSH2 0x1880 DUP6 DUP3 DUP7 ADD PUSH2 0x1674 JUMP JUMPDEST SWAP2 POP POP SWAP3 POP SWAP3 SWAP1 POP JUMP JUMPDEST PUSH1 0x0 PUSH1 0x20 DUP3 DUP5 SUB SLT ISZERO PUSH2 0x18A0 JUMPI PUSH2 0x189F PUSH2 0x1FF9 JUMP JUMPDEST JUMPDEST PUSH1 0x0 PUSH2 0x18AE DUP5 DUP3 DUP6 ADD PUSH2 0x16B3 JUMP JUMPDEST SWAP2 POP POP SWAP3 SWAP2 POP POP JUMP JUMPDEST PUSH2 0x18C0 DUP2 PUSH2 0x1E35 JUMP JUMPDEST DUP3 MSTORE POP POP JUMP JUMPDEST PUSH2 0x18CF DUP2 PUSH2 0x1E41 JUMP JUMPDEST DUP3 MSTORE POP POP JUMP JUMPDEST PUSH1 0x0 PUSH2 0x18E0 DUP3 PUSH2 0x1D4C JUMP JUMPDEST PUSH2 0x18EA DUP2 DUP6 PUSH2 0x1D57 JUMP JUMPDEST SWAP4 POP PUSH2 0x18FA DUP2 DUP6 PUSH1 0x20 DUP7 ADD PUSH2 0x1EAE JUMP JUMPDEST PUSH2 0x1903 DUP2 PUSH2 0x1FFE JUMP JUMPDEST DUP5 ADD SWAP2 POP POP SWAP3 SWAP2 POP POP JUMP JUMPDEST PUSH1 0x0 PUSH2 0x1919 DUP3 PUSH2 0x1D4C JUMP JUMPDEST PUSH2 0x1923 DUP2 DUP6 PUSH2 0x1D68 JUMP JUMPDEST SWAP4 POP PUSH2 0x1933 DUP2 DUP6 PUSH1 0x20 DUP7 ADD PUSH2 0x1EAE JUMP JUMPDEST DUP1 DUP5 ADD SWAP2 POP POP SWAP3 SWAP2 POP POP JUMP JUMPDEST PUSH1 0x0 PUSH2 0x194C PUSH1 0x7 DUP4 PUSH2 0x1D57 JUMP JUMPDEST SWAP2 POP PUSH2 0x1957 DUP3 PUSH2 0x200F JUMP JUMPDEST PUSH1 0x20 DUP3 ADD SWAP1 POP SWAP2 SWAP1 POP JUMP JUMPDEST PUSH1 0x0 PUSH2 0x196F PUSH1 0x20 DUP4 PUSH2 0x1D57 JUMP JUMPDEST SWAP2 POP PUSH2 0x197A DUP3 PUSH2 0x2038 JUMP JUMPDEST PUSH1 0x20 DUP3 ADD SWAP1 POP SWAP2 SWAP1 POP JUMP JUMPDEST PUSH1 0x0 PUSH2 0x1992 PUSH1 0x23 DUP4 PUSH2 0x1D57 JUMP JUMPDEST SWAP2 POP PUSH2 0x199D DUP3 PUSH2 0x2061 JUMP JUMPDEST PUSH1 0x40 DUP3 ADD SWAP1 POP SWAP2 SWAP1 POP JUMP JUMPDEST PUSH1 0x0 PUSH2 0x19B5 PUSH1 0x22 DUP4 PUSH2 0x1D57 JUMP JUMPDEST SWAP2 POP PUSH2 0x19C0 DUP3 PUSH2 0x20B0 JUMP JUMPDEST PUSH1 0x40 DUP3 ADD SWAP1 POP SWAP2 SWAP1 POP JUMP JUMPDEST PUSH1 0x0 PUSH2 0x19D8 PUSH1 0x1D DUP4 PUSH2 0x1D57 JUMP JUMPDEST SWAP2 POP PUSH2 0x19E3 DUP3 PUSH2 0x20FF JUMP JUMPDEST PUSH1 0x20 DUP3 ADD SWAP1 POP SWAP2 SWAP1 POP JUMP JUMPDEST PUSH1 0x0 PUSH2 0x19FB PUSH1 0x26 DUP4 PUSH2 0x1D57 JUMP JUMPDEST SWAP2 POP PUSH2 0x1A06 DUP3 PUSH2 0x2128 JUMP JUMPDEST PUSH1 0x40 DUP3 ADD SWAP1 POP SWAP2 SWAP1 POP JUMP JUMPDEST PUSH1 0x0 PUSH2 0x1A1E PUSH1 0x25 DUP4 PUSH2 0x1D57 JUMP JUMPDEST SWAP2 POP PUSH2 0x1A29 DUP3 PUSH2 0x2177 JUMP JUMPDEST PUSH1 0x40 DUP3 ADD SWAP1 POP SWAP2 SWAP1 POP JUMP JUMPDEST PUSH1 0x0 PUSH2 0x1A41 PUSH1 0x24 DUP4 PUSH2 0x1D57 JUMP JUMPDEST SWAP2 POP PUSH2 0x1A4C DUP3 PUSH2 0x21C6 JUMP JUMPDEST PUSH1 0x40 DUP3 ADD SWAP1 POP SWAP2 SWAP1 POP JUMP JUMPDEST PUSH1 0x0 PUSH2 0x1A64 PUSH1 0x17 DUP4 PUSH2 0x1D68 JUMP JUMPDEST SWAP2 POP PUSH2 0x1A6F DUP3 PUSH2 0x2215 JUMP JUMPDEST PUSH1 0x17 DUP3 ADD SWAP1 POP SWAP2 SWAP1 POP JUMP JUMPDEST PUSH1 0x0 PUSH2 0x1A87 PUSH1 0x25 DUP4 PUSH2 0x1D57 JUMP JUMPDEST SWAP2 POP PUSH2 0x1A92 DUP3 PUSH2 0x223E JUMP JUMPDEST PUSH1 0x40 DUP3 ADD SWAP1 POP SWAP2 SWAP1 POP JUMP JUMPDEST PUSH1 0x0 PUSH2 0x1AAA PUSH1 0x11 DUP4 PUSH2 0x1D68 JUMP JUMPDEST SWAP2 POP PUSH2 0x1AB5 DUP3 PUSH2 0x228D JUMP JUMPDEST PUSH1 0x11 DUP3 ADD SWAP1 POP SWAP2 SWAP1 POP JUMP JUMPDEST PUSH1 0x0 PUSH2 0x1ACD PUSH1 0x2F DUP4 PUSH2 0x1D57 JUMP JUMPDEST SWAP2 POP PUSH2 0x1AD8 DUP3 PUSH2 0x22B6 JUMP JUMPDEST PUSH1 0x40 DUP3 ADD SWAP1 POP SWAP2 SWAP1 POP JUMP JUMPDEST PUSH1 0x0 PUSH2 0x1AF0 PUSH1 0x1F DUP4 PUSH2 0x1D57 JUMP JUMPDEST SWAP2 POP PUSH2 0x1AFB DUP3 PUSH2 0x2305 JUMP JUMPDEST PUSH1 0x20 DUP3 ADD SWAP1 POP SWAP2 SWAP1 POP JUMP JUMPDEST PUSH2 0x1B0F DUP2 PUSH2 0x1E97 JUMP JUMPDEST DUP3 MSTORE POP POP JUMP JUMPDEST PUSH2 0x1B1E DUP2 PUSH2 0x1EA1 JUMP JUMPDEST DUP3 MSTORE POP POP JUMP JUMPDEST PUSH1 0x0 PUSH2 0x1B2F DUP3 PUSH2 0x1A57 JUMP JUMPDEST SWAP2 POP PUSH2 0x1B3B DUP3 DUP6 PUSH2 0x190E JUMP JUMPDEST SWAP2 POP PUSH2 0x1B46 DUP3 PUSH2 0x1A9D JUMP JUMPDEST SWAP2 POP PUSH2 0x1B52 DUP3 DUP5 PUSH2 0x190E JUMP JUMPDEST SWAP2 POP DUP2 SWAP1 POP SWAP4 SWAP3 POP POP POP JUMP JUMPDEST PUSH1 0x0 PUSH1 0x20 DUP3 ADD SWAP1 POP PUSH2 0x1B73 PUSH1 0x0 DUP4 ADD DUP5 PUSH2 0x18B7 JUMP JUMPDEST SWAP3 SWAP2 POP POP JUMP JUMPDEST PUSH1 0x0 PUSH1 0x20 DUP3 ADD SWAP1 POP PUSH2 0x1B8E PUSH1 0x0 DUP4 ADD DUP5 PUSH2 0x18C6 JUMP JUMPDEST SWAP3 SWAP2 POP POP JUMP JUMPDEST PUSH1 0x0 PUSH1 0x20 DUP3 ADD SWAP1 POP DUP2 DUP2 SUB PUSH1 0x0 DUP4 ADD MSTORE PUSH2 0x1BAE DUP2 DUP5 PUSH2 0x18D5 JUMP JUMPDEST SWAP1 POP SWAP3 SWAP2 POP POP JUMP JUMPDEST PUSH1 0x0 PUSH1 0x20 DUP3 ADD SWAP1 POP DUP2 DUP2 SUB PUSH1 0x0 DUP4 ADD MSTORE PUSH2 0x1BCF DUP2 PUSH2 0x193F JUMP JUMPDEST SWAP1 POP SWAP2 SWAP1 POP JUMP JUMPDEST PUSH1 0x0 PUSH1 0x20 DUP3 ADD SWAP1 POP DUP2 DUP2 SUB PUSH1 0x0 DUP4 ADD MSTORE PUSH2 0x1BEF DUP2 PUSH2 0x1962 JUMP JUMPDEST SWAP1 POP SWAP2 SWAP1 POP JUMP JUMPDEST PUSH1 0x0 PUSH1 0x20 DUP3 ADD SWAP1 POP DUP2 DUP2 SUB PUSH1 0x0 DUP4 ADD MSTORE PUSH2 0x1C0F DUP2 PUSH2 0x1985 JUMP JUMPDEST SWAP1 POP SWAP2 SWAP1 POP JUMP JUMPDEST PUSH1 0x0 PUSH1 0x20 DUP3 ADD SWAP1 POP DUP2 DUP2 SUB PUSH1 0x0 DUP4 ADD MSTORE PUSH2 0x1C2F DUP2 PUSH2 0x19A8 JUMP JUMPDEST SWAP1 POP SWAP2 SWAP1 POP JUMP JUMPDEST PUSH1 0x0 PUSH1 0x20 DUP3 ADD SWAP1 POP DUP2 DUP2 SUB PUSH1 0x0 DUP4 ADD MSTORE PUSH2 0x1C4F DUP2 PUSH2 0x19CB JUMP JUMPDEST SWAP1 POP SWAP2 SWAP1 POP JUMP JUMPDEST PUSH1 0x0 PUSH1 0x20 DUP3 ADD SWAP1 POP DUP2 DUP2 SUB PUSH1 0x0 DUP4 ADD MSTORE PUSH2 0x1C6F DUP2 PUSH2 0x19EE JUMP JUMPDEST SWAP1 POP SWAP2 SWAP1 POP JUMP JUMPDEST PUSH1 0x0 PUSH1 0x20 DUP3 ADD SWAP1 POP DUP2 DUP2 SUB PUSH1 0x0 DUP4 ADD MSTORE PUSH2 0x1C8F DUP2 PUSH2 0x1A11 JUMP JUMPDEST SWAP1 POP SWAP2 SWAP1 POP JUMP JUMPDEST PUSH1 0x0 PUSH1 0x20 DUP3 ADD SWAP1 POP DUP2 DUP2 SUB PUSH1 0x0 DUP4 ADD MSTORE PUSH2 0x1CAF DUP2 PUSH2 0x1A34 JUMP JUMPDEST SWAP1 POP SWAP2 SWAP1 POP JUMP JUMPDEST PUSH1 0x0 PUSH1 0x20 DUP3 ADD SWAP1 POP DUP2 DUP2 SUB PUSH1 0x0 DUP4 ADD MSTORE PUSH2 0x1CCF DUP2 PUSH2 0x1A7A JUMP JUMPDEST SWAP1 POP SWAP2 SWAP1 POP JUMP JUMPDEST PUSH1 0x0 PUSH1 0x20 DUP3 ADD SWAP1 POP DUP2 DUP2 SUB PUSH1 0x0 DUP4 ADD MSTORE PUSH2 0x1CEF DUP2 PUSH2 0x1AC0 JUMP JUMPDEST SWAP1 POP SWAP2 SWAP1 POP JUMP JUMPDEST PUSH1 0x0 PUSH1 0x20 DUP3 ADD SWAP1 POP DUP2 DUP2 SUB PUSH1 0x0 DUP4 ADD MSTORE PUSH2 0x1D0F DUP2 PUSH2 0x1AE3 JUMP JUMPDEST SWAP1 POP SWAP2 SWAP1 POP JUMP JUMPDEST PUSH1 0x0 PUSH1 0x20 DUP3 ADD SWAP1 POP PUSH2 0x1D2B PUSH1 0x0 DUP4 ADD DUP5 PUSH2 0x1B06 JUMP JUMPDEST SWAP3 SWAP2 POP POP JUMP JUMPDEST PUSH1 0x0 PUSH1 0x20 DUP3 ADD SWAP1 POP PUSH2 0x1D46 PUSH1 0x0 DUP4 ADD DUP5 PUSH2 0x1B15 JUMP JUMPDEST SWAP3 SWAP2 POP POP JUMP JUMPDEST PUSH1 0x0 DUP2 MLOAD SWAP1 POP SWAP2 SWAP1 POP JUMP JUMPDEST PUSH1 0x0 DUP3 DUP3 MSTORE PUSH1 0x20 DUP3 ADD SWAP1 POP SWAP3 SWAP2 POP POP JUMP JUMPDEST PUSH1 0x0 DUP2 SWAP1 POP SWAP3 SWAP2 POP POP JUMP JUMPDEST PUSH1 0x0 PUSH2 0x1D7E DUP3 PUSH2 0x1E97 JUMP JUMPDEST SWAP2 POP PUSH2 0x1D89 DUP4 PUSH2 0x1E97 JUMP JUMPDEST SWAP3 POP DUP3 PUSH32 0xFFFFFFFFFFFFFFFFFFFFFFFFFFFFFFFFFFFFFFFFFFFFFFFFFFFFFFFFFFFFFFFF SUB DUP3 GT ISZERO PUSH2 0x1DBE JUMPI PUSH2 0x1DBD PUSH2 0x1F3D JUMP JUMPDEST JUMPDEST DUP3 DUP3 ADD SWAP1 POP SWAP3 SWAP2 POP POP JUMP JUMPDEST PUSH1 0x0 PUSH2 0x1DD4 DUP3 PUSH2 0x1E97 JUMP JUMPDEST SWAP2 POP PUSH2 0x1DDF DUP4 PUSH2 0x1E97 JUMP JUMPDEST SWAP3 POP DUP2 PUSH32 0xFFFFFFFFFFFFFFFFFFFFFFFFFFFFFFFFFFFFFFFFFFFFFFFFFFFFFFFFFFFFFFFF DIV DUP4 GT DUP3 ISZERO ISZERO AND ISZERO PUSH2 0x1E18 JUMPI PUSH2 0x1E17 PUSH2 0x1F3D JUMP JUMPDEST JUMPDEST DUP3 DUP3 MUL SWAP1 POP SWAP3 SWAP2 POP POP JUMP JUMPDEST PUSH1 0x0 PUSH2 0x1E2E DUP3 PUSH2 0x1E77 JUMP JUMPDEST SWAP1 POP SWAP2 SWAP1 POP JUMP JUMPDEST PUSH1 0x0 DUP2 ISZERO ISZERO SWAP1 POP SWAP2 SWAP1 POP JUMP JUMPDEST PUSH1 0x0 DUP2 SWAP1 POP SWAP2 SWAP1 POP JUMP JUMPDEST PUSH1 0x0 PUSH32 0xFFFFFFFF00000000000000000000000000000000000000000000000000000000 DUP3 AND SWAP1 POP SWAP2 SWAP1 POP JUMP JUMPDEST PUSH1 0x0 PUSH20 0xFFFFFFFFFFFFFFFFFFFFFFFFFFFFFFFFFFFFFFFF DUP3 AND SWAP1 POP SWAP2 SWAP1 POP JUMP JUMPDEST PUSH1 0x0 DUP2 SWAP1 POP SWAP2 SWAP1 POP JUMP JUMPDEST PUSH1 0x0 PUSH1 0xFF DUP3 AND SWAP1 POP SWAP2 SWAP1 POP JUMP JUMPDEST PUSH1 0x0 JUMPDEST DUP4 DUP2 LT ISZERO PUSH2 0x1ECC JUMPI DUP1 DUP3 ADD MLOAD DUP2 DUP5 ADD MSTORE PUSH1 0x20 DUP2 ADD SWAP1 POP PUSH2 0x1EB1 JUMP JUMPDEST DUP4 DUP2 GT ISZERO PUSH2 0x1EDB JUMPI PUSH1 0x0 DUP5 DUP5 ADD MSTORE JUMPDEST POP POP POP POP JUMP JUMPDEST PUSH1 0x0 PUSH2 0x1EEC DUP3 PUSH2 0x1E97 JUMP JUMPDEST SWAP2 POP PUSH1 0x0 DUP3 EQ ISZERO PUSH2 0x1F00 JUMPI PUSH2 0x1EFF PUSH2 0x1F3D JUMP JUMPDEST JUMPDEST PUSH1 0x1 DUP3 SUB SWAP1 POP SWAP2 SWAP1 POP JUMP JUMPDEST PUSH1 0x0 PUSH1 0x2 DUP3 DIV SWAP1 POP PUSH1 0x1 DUP3 AND DUP1 PUSH2 0x1F23 JUMPI PUSH1 0x7F DUP3 AND SWAP2 POP JUMPDEST PUSH1 0x20 DUP3 LT DUP2 EQ ISZERO PUSH2 0x1F37 JUMPI PUSH2 0x1F36 PUSH2 0x1F6C JUMP JUMPDEST JUMPDEST POP SWAP2 SWAP1 POP JUMP JUMPDEST PUSH32 0x4E487B7100000000000000000000000000000000000000000000000000000000 PUSH1 0x0 MSTORE PUSH1 0x11 PUSH1 0x4 MSTORE PUSH1 0x24 PUSH1 0x0 REVERT JUMPDEST PUSH32 0x4E487B7100000000000000000000000000000000000000000000000000000000 PUSH1 0x0 MSTORE PUSH1 0x22 PUSH1 0x4 MSTORE PUSH1 0x24 PUSH1 0x0 REVERT JUMPDEST PUSH32 0x4E487B7100000000000000000000000000000000000000000000000000000000 PUSH1 0x0 MSTORE PUSH1 0x32 PUSH1 0x4 MSTORE PUSH1 0x24 PUSH1 0x0 REVERT JUMPDEST PUSH32 0x4E487B7100000000000000000000000000000000000000000000000000000000 PUSH1 0x0 MSTORE PUSH1 0x41 PUSH1 0x4 MSTORE PUSH1 0x24 PUSH1 0x0 REVERT JUMPDEST PUSH1 0x0 DUP1 REVERT JUMPDEST PUSH1 0x0 PUSH1 0x1F NOT PUSH1 0x1F DUP4 ADD AND SWAP1 POP SWAP2 SWAP1 POP JUMP JUMPDEST PUSH32 0x216D696E74657200000000000000000000000000000000000000000000000000 PUSH1 0x0 DUP3 ADD MSTORE POP JUMP JUMPDEST PUSH32 0x537472696E67733A20686578206C656E67746820696E73756666696369656E74 PUSH1 0x0 DUP3 ADD MSTORE POP JUMP JUMPDEST PUSH32 0x45524332303A207472616E7366657220746F20746865207A65726F2061646472 PUSH1 0x0 DUP3 ADD MSTORE PUSH32 0x6573730000000000000000000000000000000000000000000000000000000000 PUSH1 0x20 DUP3 ADD MSTORE POP JUMP JUMPDEST PUSH32 0x45524332303A20617070726F766520746F20746865207A65726F206164647265 PUSH1 0x0 DUP3 ADD MSTORE PUSH32 0x7373000000000000000000000000000000000000000000000000000000000000 PUSH1 0x20 DUP3 ADD MSTORE POP JUMP JUMPDEST PUSH32 0x45524332303A20696E73756666696369656E7420616C6C6F77616E6365000000 PUSH1 0x0 DUP3 ADD MSTORE POP JUMP JUMPDEST PUSH32 0x45524332303A207472616E7366657220616D6F756E7420657863656564732062 PUSH1 0x0 DUP3 ADD MSTORE PUSH32 0x616C616E63650000000000000000000000000000000000000000000000000000 PUSH1 0x20 DUP3 ADD MSTORE POP JUMP JUMPDEST PUSH32 0x45524332303A207472616E736665722066726F6D20746865207A65726F206164 PUSH1 0x0 DUP3 ADD MSTORE PUSH32 0x6472657373000000000000000000000000000000000000000000000000000000 PUSH1 0x20 DUP3 ADD MSTORE POP JUMP JUMPDEST PUSH32 0x45524332303A20617070726F76652066726F6D20746865207A65726F20616464 PUSH1 0x0 DUP3 ADD MSTORE PUSH32 0x7265737300000000000000000000000000000000000000000000000000000000 PUSH1 0x20 DUP3 ADD MSTORE POP JUMP JUMPDEST PUSH32 0x416363657373436F6E74726F6C3A206163636F756E7420000000000000000000 PUSH1 0x0 DUP3 ADD MSTORE POP JUMP JUMPDEST PUSH32 0x45524332303A2064656372656173656420616C6C6F77616E63652062656C6F77 PUSH1 0x0 DUP3 ADD MSTORE PUSH32 0x207A65726F000000000000000000000000000000000000000000000000000000 PUSH1 0x20 DUP3 ADD MSTORE POP JUMP JUMPDEST PUSH32 0x206973206D697373696E6720726F6C6520000000000000000000000000000000 PUSH1 0x0 DUP3 ADD MSTORE POP JUMP JUMPDEST PUSH32 0x416363657373436F6E74726F6C3A2063616E206F6E6C792072656E6F756E6365 PUSH1 0x0 DUP3 ADD MSTORE PUSH32 0x20726F6C657320666F722073656C660000000000000000000000000000000000 PUSH1 0x20 DUP3 ADD MSTORE POP JUMP JUMPDEST PUSH32 0x45524332303A206D696E7420746F20746865207A65726F206164647265737300 PUSH1 0x0 DUP3 ADD MSTORE POP JUMP JUMPDEST PUSH2 0x2337 DUP2 PUSH2 0x1E23 JUMP JUMPDEST DUP2 EQ PUSH2 0x2342 JUMPI PUSH1 0x0 DUP1 REVERT JUMPDEST POP JUMP JUMPDEST PUSH2 0x234E DUP2 PUSH2 0x1E35 JUMP JUMPDEST DUP2 EQ PUSH2 0x2359 JUMPI PUSH1 0x0 DUP1 REVERT JUMPDEST POP JUMP JUMPDEST PUSH2 0x2365 DUP2 PUSH2 0x1E41 JUMP JUMPDEST DUP2 EQ PUSH2 0x2370 JUMPI PUSH1 0x0 DUP1 REVERT JUMPDEST POP JUMP JUMPDEST PUSH2 0x237C DUP2 PUSH2 0x1E4B JUMP JUMPDEST DUP2 EQ PUSH2 0x2387 JUMPI PUSH1 0x0 DUP1 REVERT JUMPDEST POP JUMP JUMPDEST PUSH2 0x2393 DUP2 PUSH2 0x1E97 JUMP JUMPDEST DUP2 EQ PUSH2 0x239E JUMPI PUSH1 0x0 DUP1 REVERT JUMPDEST POP JUMP INVALID LOG2 PUSH5 0x6970667358 0x22 SLT KECCAK256 0xA9 DUP14 0x4E 0x24 0xFC DUP16 SAR GASPRICE XOR STOP SUB LOG1 0xC0 GASLIMIT SWAP6 PUSH9 0x5649E0D2C3F57F4367 PUSH10 0xDD74A25134B764736F6C PUSH4 0x43000807 STOP CALLER "
				},
				"gasEstimates": {
					"creation": {
						"codeDepositCost": "1835000",
						"executionCost": "infinite",
						"totalCost": "infinite"
					},
					"external": {
						"ADMIN_ROLE()": "396",
						"DEFAULT_ADMIN_ROLE()": "357",
						"MINTER_ROLE()": "417",
						"allowance(address,address)": "infinite",
						"approve(address,uint256)": "infinite",
						"balanceOf(address)": "2886",
						"decimals()": "432",
						"decreaseAllowance(address,uint256)": "infinite",
						"getRoleAdmin(bytes32)": "infinite",
						"grantRole(bytes32,address)": "infinite",
						"hasRole(bytes32,address)": "3229",
						"increaseAllowance(address,uint256)": "infinite",
						"mint(address,uint256)": "infinite",
						"name()": "infinite",
						"renounceRole(bytes32,address)": "infinite",
						"revokeRole(bytes32,address)": "infinite",
						"setupMinter(address,bool)": "infinite",
						"supportsInterface(bytes4)": "751",
						"symbol()": "infinite",
						"totalSupply()": "2549",
						"transfer(address,uint256)": "infinite",
						"transferFrom(address,address,uint256)": "infinite"
					}
				},
				"methodIdentifiers": {
					"ADMIN_ROLE()": "75b238fc",
					"DEFAULT_ADMIN_ROLE()": "a217fddf",
					"MINTER_ROLE()": "d5391393",
					"allowance(address,address)": "dd62ed3e",
					"approve(address,uint256)": "095ea7b3",
					"balanceOf(address)": "70a08231",
					"decimals()": "313ce567",
					"decreaseAllowance(address,uint256)": "a457c2d7",
					"getRoleAdmin(bytes32)": "248a9ca3",
					"grantRole(bytes32,address)": "2f2ff15d",
					"hasRole(bytes32,address)": "91d14854",
					"increaseAllowance(address,uint256)": "39509351",
					"mint(address,uint256)": "40c10f19",
					"name()": "06fdde03",
					"renounceRole(bytes32,address)": "36568abe",
					"revokeRole(bytes32,address)": "d547741f",
					"setupMinter(address,bool)": "090f78dc",
					"supportsInterface(bytes4)": "01ffc9a7",
					"symbol()": "95d89b41",
					"totalSupply()": "18160ddd",
					"transfer(address,uint256)": "a9059cbb",
					"transferFrom(address,address,uint256)": "23b872dd"
				}
			},
			"storageLayout": {
				"storage": [
					{
						"astId": 1586,
						"contract": "LiriaToken_flat.sol:LiriaToken",
						"label": "_balances",
						"offset": 0,
						"slot": "0",
						"type": "t_mapping(t_address,t_uint256)"
					},
					{
						"astId": 1592,
						"contract": "LiriaToken_flat.sol:LiriaToken",
						"label": "_allowances",
						"offset": 0,
						"slot": "1",
						"type": "t_mapping(t_address,t_mapping(t_address,t_uint256))"
					},
					{
						"astId": 1594,
						"contract": "LiriaToken_flat.sol:LiriaToken",
						"label": "_totalSupply",
						"offset": 0,
						"slot": "2",
						"type": "t_uint256"
					},
					{
						"astId": 1596,
						"contract": "LiriaToken_flat.sol:LiriaToken",
						"label": "_name",
						"offset": 0,
						"slot": "3",
						"type": "t_string_storage"
					},
					{
						"astId": 1598,
						"contract": "LiriaToken_flat.sol:LiriaToken",
						"label": "_symbol",
						"offset": 0,
						"slot": "4",
						"type": "t_string_storage"
					},
					{
						"astId": 1183,
						"contract": "LiriaToken_flat.sol:LiriaToken",
						"label": "_roles",
						"offset": 0,
						"slot": "5",
						"type": "t_mapping(t_bytes32,t_struct(RoleData)1178_storage)"
					}
				],
				"types": {
					"t_address": {
						"encoding": "inplace",
						"label": "address",
						"numberOfBytes": "20"
					},
					"t_bool": {
						"encoding": "inplace",
						"label": "bool",
						"numberOfBytes": "1"
					},
					"t_bytes32": {
						"encoding": "inplace",
						"label": "bytes32",
						"numberOfBytes": "32"
					},
					"t_mapping(t_address,t_bool)": {
						"encoding": "mapping",
						"key": "t_address",
						"label": "mapping(address => bool)",
						"numberOfBytes": "32",
						"value": "t_bool"
					},
					"t_mapping(t_address,t_mapping(t_address,t_uint256))": {
						"encoding": "mapping",
						"key": "t_address",
						"label": "mapping(address => mapping(address => uint256))",
						"numberOfBytes": "32",
						"value": "t_mapping(t_address,t_uint256)"
					},
					"t_mapping(t_address,t_uint256)": {
						"encoding": "mapping",
						"key": "t_address",
						"label": "mapping(address => uint256)",
						"numberOfBytes": "32",
						"value": "t_uint256"
					},
					"t_mapping(t_bytes32,t_struct(RoleData)1178_storage)": {
						"encoding": "mapping",
						"key": "t_bytes32",
						"label": "mapping(bytes32 => struct AccessControl.RoleData)",
						"numberOfBytes": "32",
						"value": "t_struct(RoleData)1178_storage"
					},
					"t_string_storage": {
						"encoding": "bytes",
						"label": "string",
						"numberOfBytes": "32"
					},
					"t_struct(RoleData)1178_storage": {
						"encoding": "inplace",
						"label": "struct AccessControl.RoleData",
						"members": [
							{
								"astId": 1175,
								"contract": "LiriaToken_flat.sol:LiriaToken",
								"label": "members",
								"offset": 0,
								"slot": "0",
								"type": "t_mapping(t_address,t_bool)"
							},
							{
								"astId": 1177,
								"contract": "LiriaToken_flat.sol:LiriaToken",
								"label": "adminRole",
								"offset": 0,
								"slot": "1",
								"type": "t_bytes32"
							}
						],
						"numberOfBytes": "64"
					},
					"t_uint256": {
						"encoding": "inplace",
						"label": "uint256",
						"numberOfBytes": "32"
					}
				}
			},
			"userdoc": {
				"kind": "user",
				"methods": {},
				"version": 1
			}
		}
	}
}